:020000040800F2
:10000000A8850020A1010008D33D0008DF350008C5
:10001000D13D00083F0A0008CD490008000000005B
:100020000000000000000000000000001B4300086A
:10003000750A000800000000F53D00081D43000897
:10004000BB010008BB010008BB010008BB010008A0
:10005000BB010008BB010008770A0008BB010008CB
:10006000BB010008BB010008BB010008BB01000880
:10007000BB010008BB010008BB010008BB01000870
:10008000BB010008BB010008BB010008BB01000860
:10009000BB010008BB010008BB0100087D0A000885
:1000A000BB010008BB010008BB010008BB01000840
:1000B000BB0100080000000000000000BB010008B8
:1000C000BB010008BB010008BB010008BB01000820
:1000D000BB010008BB010008454900088949000828
:1000E000BB010008BB010008000000000000000088
:1000F0000000000000000000000000000000000000
:1001000000000000BB01000800000000BB01000867
:100110000000000000000000BB010008BB01000857
:10012000BB010008BB010008BB010008BB010008BF
:10013000BB010008000000000000000000000000FB
:10014000BB010008BB010008BB0100080000000063
:10015000BB010008BB010008BB010008BB0100088F
:10016000BB010008BB010008BB0100080000000043
:10017000BB010008BB0100080000000000000000F7
:10018000BB010008BB010008BB010008DFF80CD070
:1001900000F0CEFA00480047C1A00008A885002062
:1001A0000648804706480047FEE7FEE7FEE7FEE711
:1001B000FEE7FEE7FEE7FEE7FEE7FEE7F1430008A5
:1001C0008D0100082DE9F05F0546002092469B4610
:1001D00088460646814640241BE02846414647465D
:1001E000224600F0EEF953465A46C01A914110D308
:1001F00011461846224600F0D5F92D1A67EB010882
:100200004F4622460120002100F0CCF917EB0009EF
:100210004E41201EA4F10104DFDC484631462A4647
:10022000434600F000B830BCBDE8C09F40EA01037F
:100230009B0703D009E008C9121F08C0042AFAD29C
:1002400003E011F8013B00F8013B521EF9D2704760
:10025000D2B201E000F8012B491EFBD27047002208
:10026000F6E710B513460A4604461946FFF7F0FFB5
:10027000204610BD30B505462A460B4612F8010B44
:1002800013F8014B08B1A042F8D01CB1002802D0ED
:100290006D1CF1E7284630BD10B5044604E00B782C
:1002A00000F8013B03B1491C521EF8D2204610BD94
:1002B000421C10F8011B0029FBD1801A704703462D
:1002C00011F8012B00F8012B002AF9D118467047CC
:1002D00030B505460020034600E05B1C934205D282
:1002E000EC5CC85C201A01D1002CF6D130BD10B5F1
:1002F000484304460AF046F8002805D00021002CA7
:1003000002D0641E0155FAE710BD2DE9FE4F80466C
:1003100081EA0300C00F0C46009021F0004123F059
:100320000045B8EB0200A94105D24046214690465F
:100330001C460B46024623F00040104347D0270DD1
:10034000C7F30A00C3F30A510290401A01904028F3
:100350006BDAC3F3130040F4801B0098924620B17F
:100360000023D2EB030A63EB0B0B01985946C0F153
:100370004002504600F016F906460D4650465946D2
:10038000019A00F02EF910EB08006141002487EA81
:10039000115284EAE7731A4340D0009A62B3019A7B
:1003A000012A4FEA075215DC001B61EB02014FF0F6
:1003B000004202EA0752CDE90042001C41F58011DB
:1003C00032462B4600F065F903B000F045B84046D0
:1003D0002146F9E7001B61EB0201001C41F5801387
:1003E00000185B412018A2F5001747EB030140EA13
:1003F000D570B6196D4111E06D084FEA360645EA31
:10040000C0754FEA0752001B61EB0201001C41F569
:10041000801149084FEA30000019514132462B46FD
:1004200003B000F01CB800F025B90098012240008C
:100430000023D0EB020263EBE073009821464FEA01
:10044000E074B8EB000061EB0401E9E783F00043DE
:100450005BE781F0004158E730BCBDE8C08F30BC9D
:10046000BDE8C04FFFF7DFBF2DE9FE4F81EA03046F
:1004700004F0004421F0004100944FF0000B23F001
:10048000004350EA01045ED052EA03045BD0C3F398
:100490000A54C1F30A552C44A4F2F3340194A0FB8E
:1004A0000254C1F3130141F48011C3F3130343F465
:1004B000801301FB024400FB034E840A970A44EABE
:1004C000815447EA8357A4FB076802958D0A05FB10
:1004D00007854FEA932C04FB0C542705029D4FEA35
:1004E000065847EA1637B5EB08056EEB070C870E82
:1004F000920E47EA811742EA8312A7FB0201B6EB8C
:100500000B0164EB00042B0D43EA0C335E1844EB43
:100510001C50DA465146E7FB0201C5F313044FEACB
:100520000B3343EA14534FEA0432019C43EA0603B7
:10053000A4F10C040294009CCDE900B400F0A9F8E9
:1005400003B000F003B800200146F9E730BCBDE875
:10055000C08F0EB540F2334102910021CDE9001168
:100560000A460B4600F095F803B000BD01F00043C9
:1005700030B421F0004150EA010206D00A0DA2F584
:100580006072C1F31301002A02DC30BC0020704706
:10059000440F44EAC104C100E01830BC00EBC25073
:1005A00000F031B8202A04DB203A00FA02F10020E2
:1005B00070479140C2F1200320FA03F319439040A1
:1005C0007047202A04DB203A21FA02F0002170470C
:1005D00021FA02F3D040C2F12002914008431946AB
:1005E0007047202A06DBCB17203A41FA02F043EA93
:1005F000E07306E041FA02F3D040C2F120029140DC
:100600000843194670470029A8BF7047401C49009D
:1006100008BF20F00100704710B4B0FA80FC00FA67
:100620000CF050EA010404BF10BC704749B1CCF192
:10063000200421FA04F411FA0CF118BF012121431E
:100640000843A3EB0C01CB1D4FEA00614FEA1020D9
:1006500042BF002010BC704700EBC350104400297B
:10066000A4BF10BC7047401C490008BF20F0010027
:1006700010BC704710B5141E73F1000408DA401C5A
:1006800041F1000192185B411A4301D120F00100B1
:1006900010BD2DE9F04D92469B4611B1B1FA81F2A1
:1006A00002E0B0FA80F220329046FFF77BFF04466A
:1006B0000F4640EA0A0041EA0B0153465A460843F6
:1006C00013D0114653EA010019D0C8F14002504638
:1006D000FFF777FF05460E46504659464246FFF75C
:1006E00061FF084305D0012004E020463946BDE8FB
:1006F000F08D0020054346EAE0762C4337430A9804
:100700006305E40AA0EB08000022FD0A44EA47540E
:100710000A3002D500200146E9E7010510196941B8
:10072000DDE9084500196941BDE8F04DA2E7000088
:10073000064C074D06E0E06840F0010394E807002E
:1007400098471034AC42F6D3FFF724FD585D0108FA
:10075000785D010870B504460068816811F0010FEA
:1007600028D18168144A114215D18168D5432940A6
:10077000491C816001F084F8064616E0816811F09A
:10078000010F03D181682940491C816001F078F88C
:10079000801B022809D9606D40F010006065A06DD3
:1007A00040F00100A065012070BD20680168C943C8
:1007B000C907E3D1002070BD3F00008010B55A2169
:1007C0003A2000F023F90021232000F01FF9E02156
:1007D000242000F01BF90021252000F017F9082142
:1007E000262000F013F90221272000F00FF9022142
:1007F000282000F00BF91021292000F007F9102122
:100800002A2000F003F904212B2000F0FFF800213A
:100810002D2000F0FBF80021BDE810403A2000F048
:10082000F5B810B5FFF7CAFF052000F0A8FD5A2162
:100830003A2000F0EBF80021212000F0E7F8082131
:100840002C2000F0E3F8FF212A2000F0DFF8082137
:100850002D2000F0DBF80021BDE810403A2000F028
:10086000D5B8FFF7DEBF00001FB54FF47A73012241
:1008700003A98DE80E0013460246AF21034801F09C
:10088000B5F89DF80C0004B010BD000070510020B8
:100890002DE9F047062001F0A5FA2C20FFF7E4FF30
:1008A00000070DD44FF48D73354A36A13DA004F0F6
:1008B00039F940A004F036F9BDE8F047FFF7B1BFC1
:1008C0003420FFF7D1FF80463520FFF7CDFF0646E5
:1008D00042F210700DF032FC394D4FF00109AF1C9F
:1008E000B8F1000F1DD0002440F22D1628FA04F0B4
:1008F000C00711D000200DF011FA381985F80090CA
:100900004078687033461E4A1EA126A004F00AF9FA
:1009100069782CA004F006F9641CE4B2082CE5D335
:1009200029E0F6B100244FF49D7800BF26FA04F0C8
:10093000C00711D000200DF0F1F9381985F80090AA
:10094000407A687043460E4A0EA116A004F0EAF8F9
:10095000697823A004F0E6F8641CE4B2082CE5D31F
:1009600009E04FF4A073064A06A10EA004F0DAF8DD
:1009700022A004F0D7F8BDE8F047062001F03DBA08
:10098000841401082E2E5C557365725C447269767E
:100990006572735C7372635C617074386C31362E8F
:1009A000630000005B25733A202025733A202564FC
:1009B0005D200000756E706F776572200D0A000073
:1009C0003C0000206765745F6375725F6E756D62D1
:1009D00065722E6E756D6265723A25640D0A0000AF
:1009E0006765745F6375725F6E756D6265722E6E9A
:1009F000756D6265723A2564200D0A006B65792079
:100A0000756E7072657373200D0A000003B583B0B4
:100A10004FF47A73012204A98DE80E0013460246B2
:100A2000AE21024801F098F805B000BD70510020D9
:100A300010B50AF007F8BDE810400AF00BB8FEE761
:100A400070B5002404F1B000C0B203F0C0FF102064
:100A500003F0BDFF022003F0BAFF0025002003F0E1
:100A6000C7FF6D1CEDB2802DF8D3641CE4B2082CD6
:100A7000E8D370BD7047012000F024BE10B52020DF
:100A800000F020FE802000F01DFEBDE810404FF475
:100A9000807000F017BE0000124A117F1248012931
:100AA00001D003290BD1036843F40063036003689A
:100AB00023F400630360036843F4007303600229B6
:100AC00001D003290BD1016841F480510160016814
:100AD00021F480510160016841F4806101600020CF
:100AE000107770471800002000200240C107054819
:100AF00003D0416941F004014161416941F4803111
:100B0000416170470020024006494A6960F3CA0209
:100B10004A61486940F002004861486940F4803009
:100B20004861704700200240044910B54C6944F008
:100B300001044C610260436010BD000000200240CF
:100B4000074B10B55C69402244F480245C6172B6A6
:100B500008C908C0521E12F0FF02F9D162B610BDDA
:100B60000020024070B5054600F08AFE0646174C8C
:100B700008E0681C06D000F083FE801BA84201D369
:100B8000032070BD2069C003F3D4216910480140DF
:100B9000A06900F00040084311D00E494A680243A2
:100BA0004A60810F04D0A16900F040421143A16165
:100BB000810002D020F040402061012070BD2069FA
:100BC000C00701D001202061002070BD002002403C
:100BD000FAC30200180000200D4910B509684FF64D
:100BE000FF734FF48014994201D1224601E00A05B7
:100BF000920A02F10062824204D900BFA0F10060B3
:100C0000C00A10BD994201D009058C0A001BF5E706
:100C1000E075FF1F2DE9F84F00270446009790F874
:100C20005000DFF8B0930D46B846012811D00126D8
:100C300084F85060206802F05FFE60B1606D40F0A3
:100C4000200060655FF0010784F85080384600F0AE
:100C5000D7B90220FBE768680C23052812D80228C0
:100C600007D0032807D0042807D0052807D006207E
:100C700007E06B6006E0122003E0182001E04FF46B
:100C800080706860D5E9002103EA9113206801F0C3
:100C90001F0118444FF01F0C0CFA01FC036BC2F348
:100CA000846223EA0C038A4013430363206802F042
:100CB00023FE8246206802F01BFE5AEA00001DD186
:100CC000AA682968206802F023FE20686969C26862
:100CD000C2F3C102520091402A69042A0FD000EBEE
:100CE00082002B68DFF8F0C2026E03F0F84302EADC
:100CF0000C020B431A4342F00041016672E00021EE
:100D000002F0F0FD400320684FF0000172D002F0C5
:100D1000E9FD90FAA0F0B0FA80F1286842036ED0A5
:100D200090FAA0F0B0FA80F0814204D1002211467E
:100D3000206802F0FCFD0121206802F0D3FD400391
:100D400020684FF001015DD002F0CCFD90FAA0F0D8
:100D5000B0FA80F12868420359D090FAA0F0B0FAB6
:100D600080F0814204D100220121206802F0DFFDE1
:100D70000221206802F0B6FD400320684FF0020116
:100D800048D002F0AFFD90FAA0F0B0FA80F12868E8
:100D9000420344D090FAA0F0B0FA80F0814204D12E
:100DA00000220221206802F0C2FD0321206802F027
:100DB00099FD400320684FF0030133D002F092FD0B
:100DC00090FAA0F0B0FA80F1286842032FD090FA90
:100DD000A0F0B0FA80F0814204D100220321206803
:100DE00002F0A5FD2068816811F0010F22D0ACE06F
:100DF00000E004E002F076FDC0F384618DE7C0F30B
:100E0000846091E702F06EFDC0F38461A2E7C0F355
:100E10008460A6E702F066FDC0F38461B7E7C0F323
:100E20008460BBE702F05EFDC0F38461CCE7C0F3F1
:100E30008460D0E72A7B296850F8B03FC1F3120CD8
:100E400023EA0C0302F0180C644A22FA0CF20A405E
:100E500013430360E968494577D1286841031CD0F2
:100E600090FAA0F1B1FA81F1491C01F01F010929A2
:100E70004FEA403132D8002912D000BF90FAA0F1D9
:100E8000B1FA81F101F1010101F01F0106FA01F649
:100E900009D100BFC0F3846109E0C0F38461E3E7D6
:100EA000C0F38461EEE790FAA0F1B1FA81F101F1AB
:100EB000010101F01F0146EA816102D1C0F38460A3
:100EC00003E090FAA0F0B0FA80F000F1010000F029
:100ED0001F0000EB400041EA005132E000290ED033
:100EE00090FAA0F1B1FA81F101F1010101F01F01C5
:100EF00006FA01F606D100BFC0F3846106E0C0F334
:100F00008461F1E790FAA0F1B1FA81F101F10101F8
:100F100001F01F0146EA816102D1C0F3846003E061
:100F200090FAA0F0B0FA80F000F1010000F01F008C
:100F30002B4A00EB400002EB005041EA000141F077
:100F40000071AA68206802F0E3FC26482A68024281
:100F50003FF47AAE24488168244D254B01F0E071BE
:100F6000AA421AD10D0218D422689A427FF46CAEBC
:100F7000826841F4000122F0E0720A4382601D4859
:100F80001D490068B0FBF1F000EB4000800000E07C
:100F9000401E00900028FBD156E6184DAA4207D10A
:100FA000CD0105D422689A42F6D141F080710AE061
:100FB0006FF00045EA42EFD14A02EDD422689A422E
:100FC000EAD141F48001826822F0E0720A43826033
:100FD0003AE6000000007F4000F0FF03FFFF07003B
:100FE000000020FE0000088000030450000052C7EB
:100FF0000000045038000020400D0300000084CBA6
:1010000018BCBDE8E08F406D70470068006C704709
:10101000F8B54FF0000504002E46009502D0606D33
:1010200010B107E00120F8BD204600F0C7F8A66522
:1010300084F8506020688168C1F3407119B18168FB
:10104000564A1140816020688168C1F3007179B906
:101050008168534A114041F08051816051485249A2
:101060000068B0FBF1F000E0401E00900028FBD1CA
:1010700020688168C1F3007141B9616D41F01001D0
:101080006165A16D41F00101A165012502F034FC0B
:10109000616DC90600D430B1606D40F0100060652C
:1010A00001252846F8BD606D20F4807040F00200F4
:1010B00060652068806810F0010F0BD13B488068A4
:1010C00010F0010F06D13A486168826822F47C1260
:1010D0000A438260E168606B627E0843A16841EA6E
:1010E0004231084394F8201040EA0140012904D11C
:1010F000A18C304A02EB41410843A16A29B101F4B5
:101100007071E26A014342EA01002168CA682A4B11
:101110001A400243CA60206802F0EEFB06462068CF
:1011200002F0E6FB304315D1207E94F830108003A6
:1011300040EA41022068C16844F202039943114326
:10114000C16094F8380001280CD02068016921F0B2
:1011500001010161206901282068016B21F00F0164
:1011600011D013E0D4E90F010843D4E9111211435F
:10117000084321680A6940F2FC739A43104340F027
:1011800001000861E6E7E269521E11430163606DE8
:1011900020F0020040F00100606582E7C0FFFF5FC1
:1011A000C0FFFF7F38000020400D03000000045006
:1011B000000304500000FEFF07C0F0FF00B5006808
:1011C0000C4987B0884212D10B48C16C41F40051E0
:1011D000C164C06C694600F400500590082000907E
:1011E0000B20019000200290044800F077FA07B02D
:1011F00000BD00000000045000100240000800483C
:101200002DE9F041044640690D4608280AD02068BF
:10121000C068C00708D0606D40F020006065012004
:10122000BDE8F081082600E0042600F029FB07460F
:1012300007E0681C05D000F023FBC01BA8420FD8B4
:1012400075B1206800683042F3D0606D40F40070E2
:101250006065206802F054FBD0B1607E48B117E0B1
:10126000606D40F004006065002084F850000320A9
:10127000D6E72068006800070AD5606D20F480700A
:101280006065606DC00403D4606D40F0010060656E
:101290002068C168082E05D0490401D40C210160E2
:1012A0000020BDE70821FAE710B50446006802F007
:1012B00023FB10B10221084610BD94F8500001280C
:1012C0000CD0012084F850002046FFF743FA0100BB
:1012D0004FF0000004D084F85000ECE7022010BD6D
:1012E000626D40F601639A4342F480726265626DFA
:1012F000D20404D5A26D22F00602A26500E0A0652A
:1013000023681C221A6084F850002068C268920189
:1013100005D5626D22F4005242F480526265826803
:10132000024B1A40121D8260C5E70000C0FFFF7F1C
:1013300010B590F825100024022903D00421C163C0
:1013400001241AE001680A6822F00E020A600168AE
:101350000A6822F001020A6090F84410036C01F060
:101360001C02012101FA02F25A6080F825100021C6
:1013700080F82410816B01B18847204610BD70B5FC
:10138000044600F07DFA0546601C00D0641C00F0A5
:1013900077FA401BA042FAD370BD00002DE9F05F40
:1013A000054634488946017801290CD0012780463A
:1013B00007704CF2503B5846FFF7D4FB06004FF045
:1013C000000A03D052E0022000F058B851464046CF
:1013D000C8F804A0284C226892050ED5216821F493
:1013E000007121602168490505D5216821F48061DB
:1013F0002160032109E0077708E02268520504D53F
:10140000216821F480612160022101772868012888
:1014100007D04FF0FF31C9F8001040F2FA7BAF68F7
:101420001DE06868FFF762FB5846FFF79BFB064626
:10143000606920F00400606116E038466968FFF7D3
:1014400063FB4CF25030FFF78DFB0600606920EA29
:101450000B00606102D0C9F8007005E07F1CD5E97F
:1014600002010844B842E8D8FFF716FB88F800A04C
:101470003046A9E7180000200020024030BCBDE83B
:10148000C09F00000348416941F0004141610020D4
:1014900070470000002002402DE9FF5F254C064602
:1014A000904620789A4601280BD0012020704CF2FB
:1014B000503B5846FFF756FB07004FF0000904D099
:1014C0002AE0022004B000F039B84846C4F804907D
:1014D000194D2968490504D5286820F480602860E2
:1014E0000220207726B1012E09D0022E07D00CE071
:1014F000424653460198FFF717FB012612E041468A
:101500000198FFF71DFB022E0AD05846FFF72AFB71
:101510004FEA0007FFF7C0FA84F800903846D1E799
:101520004FF480265846FFF71DFB07466869B04315
:101530006861EFE7180000200020024030BCBDE8E1
:10154000C09F0000064900204A69002A07DA054AC0
:101550008A60054A8A604969002900DA01207047DB
:101560000020024023016745AB89EFCD70B501280B
:1015700014D0B0F5807F15D080282AD020284ED1F5
:101580004FF4B873264A27A12AA003F0CBFA2DA066
:1015900003F0C8FABDE8704003F0F4BDBDE8704048
:1015A000FFF776B964200CF0C9FD05200CF0B6FBFE
:1015B00040F25B131A4A1BA11EA003F0B3FA2CA041
:1015C00003F0B0FA314901200870BDE8704007F01F
:1015D00005BD0FF0ABFA2EA00FF0CEFE4FF4B375A1
:1015E0004FF4FA642D4E14E02B460D4A0DA111A0C4
:1015F00003F098FA2AA003F095FAF3200CF08EFB82
:1016000020460CF09BFD03200CF088FB20460CF0DC
:1016100095FD8021304600F028F90028E4D070BD07
:10162000251401082E2E2F5372632F6D61696E2EC3
:10163000630000005B25733A202025733A2025645F
:101640005D2000002023232323232323232323237C
:101650002323232323232320646574656374204E8E
:10166000464320697320636F6D696E67200D0A0021
:10167000206465746563742066696E6765722069AD
:1016800073207072657373200D0A00000000002043
:101690005749464920474F54204950000008004808
:1016A00020736F6D656F6E652074727920746F2082
:1016B000707279696E67206C6F636B2E2E2E200D11
:1016C0000A000000044910B50A68024202D008600E
:1016D000FFF74CFF10BD0000140401402DE9F84F46
:1016E000DFF864B100234FF0010C4FF0030A4FF014
:1016F0000F090BF1040EA0E00CFA03F6324072D091
:101700004C68022C01D0122C0ED1DC0800EB8408AE
:10171000D8F820405D07EF0E09FA07F5AC430D69D4
:10172000BD402543C8F8205007685D0091F804804B
:101730000AFA05F408F00308A74308FA05F848EA8E
:101740000708C0F800804F68012F05D0022F03D092
:10175000112F01D0122F11D18768D1F80C80A74327
:1017600008FA05F848EA0708C0F808804768B74350
:101770000E79C6F300169E403E434660C668A643F7
:101780008C68AC403443C4604C68E40054D52F4CA2
:10179000256E45F001052566246E23F0030504F04F
:1017A000010400942A4C2E19B4689D072F0F09FAE2
:1017B00007F5AC43B0F1904F04D0264DA84203D1B9
:1017C000012512E0002510E0234DA84201D1022599
:1017D0000BE0224DA84201D1032506E0204DA8428E
:1017E00002D1042501E027E00725BD402543B5606F
:1017F000DBF800405D464E689443F60300D5144381
:101800002C60DEF8004075464E689443B60300D560
:1018100014432C600C4D08352C684E689443F60236
:1018200000D514432C60084D0C352C684E68944349
:10183000B60200D514432C605B1C0A6832FA03F42C
:101840007FF45AAF00F00EB80004014000100240CF
:10185000000001400004004800080048000C004857
:101860000010004818BCBDE8E08F0069084000D0B7
:10187000012070470AB181617047816270470000A2
:1018800001480068704700001400002090F84120D3
:10189000202A24D190F84020012A20D0012280F86B
:1018A0004020242280F841200268136823F00103BD
:1018B00013600268136823F480531360026813688E
:1018C0000B43136001680A6842F001020A6020219C
:1018D00080F84110002180F840100846704702202F
:1018E000704790F84120202A22D190F84020012A08
:1018F0001ED0012280F84020242280F84120026876
:10190000136823F0010313600268136823F4706303
:1019100043EA0121116001680A6842F001020A608D
:10192000202180F84110002180F8401008467047BF
:101930000220704770B5040004D094F841000025DF
:1019400010B106E0012070BD84F84050204600F040
:10195000B3F9242084F841002068016821F00101D6
:1019600001606068216820F070600861206881680B
:1019700021F400418160E0680128A06807D040F4AC
:10198000044021688860E068022803D006E040F443
:101990000040F6E721684FF4006048602068416825
:1019A000114A114341602068C16821F40041C160BF
:1019B000D4E904010843A16940EA01202168C86014
:1019C000D4E907010843216808602068016841F0F4
:1019D000010101606564202084F84100256384F8DA
:1019E0004250002070BD0000008000022DE9FF4F32
:1019F00083B00446DDE9108790F84100DDF8489097
:101A00009A469346202874D15FEA080014D09FB10B
:101A100094F8400001286CD0012084F84000FFF7C2
:101A20002FFF0646012200901923D103204601F022
:101A3000A5FE002871D103E04FF4007060646CE0F3
:101A4000222084F84100402084F84200002565648B
:101A5000C4F8248067856563CDE9009653465A46ED
:101A60002046049901F010FE10B184F8405054E073
:101A7000618D3548FF274FF080784FF0007AFF29BD
:101A800004D927853A464346009005E0618D2185BB
:101A9000009094F8282053462046049901F058FEFF
:101AA0004B46002204212046009601F067FEA0BBB1
:101AB0002068406A616A0870606A401C6062208D1C
:101AC000401E81B22185608D401E6085608DD8B139
:101AD000D1B94B46002280212046009601F04EFEEF
:101AE000D8B9608DFF2805D927853A464346009529
:101AF00006E026E0608D2085009594F82820534666
:101B00002046049901F024FE608D0028C8D1324699
:101B10004946204601F05EFE18B1012007B000F0F2
:101B200017B821682020C86121684A68074B1A400D
:101B30004A6084F8410084F8425084F84050002004
:101B4000ECE70220EAE700000024008000E800FE45
:101B500030BCBDE8C08F00002DE9FF4F83B00446C4
:101B6000DDE9108790F84100DDF848909A469346E9
:101B7000202871D15FEA080014D09FB194F840008A
:101B8000012869D0012084F84000FFF779FE06465D
:101B9000012200901923D103204601F0EFFD002817
:101BA0006ED103E04FF40070606469E0212084F896
:101BB0004100402084F8420000256564C4F8248078
:101BC00067856563CDE9009653465A4620460499D9
:101BD00001F08CFD10B184F8405051E0608DFF277A
:101BE0004FF080784FF0007AFF2804D927853A46D5
:101BF0004346009505E0608D2085009594F82820E7
:101C000053462046049901F0A3FD3246494620463A
:101C100001F006FEA0BB606A216800788862606AF5
:101C2000401C6062608D401E6085208D401E80B229
:101C30002085618DD9B1D0B94B4600228021204644
:101C4000009601F09BFDD8B9608DFF2805D9278546
:101C50003A464346009506E026E0608D20850095D3
:101C600094F8282053462046049901F071FD608DB8
:101C70000028CAD132464946204601F0ABFD18B1D2
:101C8000012007B000F014B820682021C16120684D
:101C90004268064B1A40426084F8411084F8425072
:101CA00084F840500020ECE70220EAE700E800FE5C
:101CB00030BCBDE8C08F000000B500680F4987B098
:101CC000884218D14FF4C06000901220019001208A
:101CD0000290032003900420049069464FF0904046
:101CE000FFF7FCFC0648816D41F400118165806DB1
:101CF00000F40010059007B000BD00000054004043
:101D00000010024002480168491C01607047000051
:101D10001400002010B50024032000F099F80020E2
:101D200000F008F808B1012401E000F01BF820469B
:101D300010BD000070B5054609484FF47A710024C3
:101D40000068B0FBF1F001F0DAF908B1012404E019
:101D500000222946501E00F05BF8204670BD0000AE
:101D6000380000201E4808B5016E41F001010166EF
:101D7000016E01F001010091816D41F0805181659A
:101D8000806D00F080500090032000F061F8002288
:101D900011466FF00B0000F03BF8002211466FF087
:101DA0000A0000F035F8002211466FF0090000F03B
:101DB0002FF800221146501F00F02AF80022114689
:101DC000101F00F025F800221146901E00F020F8A8
:101DD0000022BDE808401146501E00F019B800006E
:101DE0000010024000F01F020121914040098000D4
:101DF00000F1E020C0F88011704700F01F020121BF
:101E000091404009800000F1E020C0F800117047C7
:101E1000F0B40E4B1B680C46C3F30223C3F1070555
:101E2000042D00D90425191D072901D2002300E043
:101E3000DB1E012606FA05F1491E214099409E400D
:101E4000761E16403143F0BC01F0C4BF0CED00E03B
:101E5000064900F0070208684FF6FF03184040EA01
:101E60000220034A10430860704700000CED00E0B8
:101E70000000FA051649B0F5007F0868C0F341205C
:101E800009D0022805D0086820F4C06040F48060C2
:101E90000860002070470128FBD0086820F4C0606B
:101EA00040F4007008600B483222006850430A4A30
:101EB000B0FBF2F0401C00E0401E4A69520501D51B
:101EC0000028F9D148694005E3D503207047000098
:101ED000007000403800002040420F000D490868A3
:101EE00020F4804008600C483222006850430B4ABE
:101EF000B0FBF2F0401C00E0401E4A69920501D59B
:101F00000028F9D14869800501D5032070470020D9
:101F100070470000007000403800002040420F0071
:101F20000248016841F48041016070470070004040
:101F30000248006800F4C060704700000070004074
:101F40000248016841F480710160704700700040F0
:101F500010B50C460E49002848690FD0C0438005D3
:101F600001D5FFF7DDFF0B48016821F00401016096
:101F7000012C0AD040BF20BF20BF10BD8005F2D584
:101F8000FFF7ACFF0028F8D1EDE730BF10BD00002F
:101F90000070004010ED00E00248016841F00401CB
:101FA00001607047001002402DE9F84F04460027F9
:101FB0000088A84D3E46000515D5606C60B1B0F5AF
:101FC000000F04D0B0F5400F2BD001270AE0E868DD
:101FD00040F48030E86024E00021201D01F00CFF77
:101FE00007001ED03E46206880033AD5A86D4FF00A
:101FF0000008C00009D4A86D40F08050A865A86D05
:102000004FF0010800F080500090DFF84CA2DAF8A1
:10201000001041F48071CAF80010FFF731FC8146CE
:1020200010E0D5F88800616C20F440000843C5F842
:102030008800D8E7FFF724FCA0EB0900022801D9AB
:10204000032705E0DAF80000C005F3D5002F7DD0A6
:102050004FEA0706B8F1000F03D0A86D20F08050BA
:10206000A8652078C00707D0D5F88800216A20F03D
:1020700003000843C5F888002078800707D5D5F805
:102080008800616A20F00C000843C5F888002078B9
:10209000400707D5D5F88800A16A20F03000084332
:1020A000C5F888002078800607D5D5F88800E16A51
:1020B00020F440600843C5F888002088800507D5D3
:1020C000D5F88800E16B20F440200843C5F888006B
:1020D0002088400507D5D5F88800216C20F44010F1
:1020E0000843C5F888002078400607D5D5F8880051
:1020F000216B20F440500843C5F888002078000682
:1021000007D5D5F88800616B20F440400843C5F836
:1021100088002088C00507D5D5F88800A16B20F479
:1021200040300843C5F8880020684FF0006700037E
:102130004FF0806850D5D5F88800A16C20F0406041
:102140000843C5F88800A06CB84200E005E03BD128
:10215000E86840F48010E8603EE0D5F8900010F4A4
:10216000407014D0A16D814211D0D5F89000D5F8FF
:10217000901020F4407041F48031C5F89010D5F8EB
:10218000901021F48031C5F89010C5F89000C00778
:1021900011D0FFF775FB074641F2883907E000BF11
:1021A000FFF76EFBC11B494501D9032652E7D5F85D
:1021B00090008007F4D5D5F89000A16D20F4407010
:1021C0000843C5F8900045E7404505D10121201D91
:1021D00001F012FE00B106462068400317D5D5F87D
:1021E0008800E16C20F040600843C5F88800E06C8E
:1021F000B84204D1E86840F48010E86007E0404548
:1022000005D10121201D01F0F7FD00B1064620880F
:10221000400411D5D5F88800216D20F040500843C6
:10222000C5F88800206DB0F1805F05D10221201D26
:1022300001F0E2FD00B106462088000406D555F8FD
:10224000880F616D20F0804008432860304600F020
:1022500005B80000001002400070004018BCBDE846
:10226000E08F00002DE9F0470F46050058D03F4EA3
:10227000306800F00700B84209D2306820F007004B
:1022800038433060306800F00700B84248D1287801
:10229000374CC0072CD06868032811D0022812D010
:1022A000216898B1490500293ADAA16821F00301B3
:1022B0000143A160FFF7E4FA804641F2883910E05B
:1022C00021688901EFE721688903ECE78907EAE7DC
:1022D000FFF7D6FAA0EB0801494502D90320BDE873
:1022E000F087A068696800F00C00B0EB810FEFD1B7
:1022F0002878800705D5A068A96820F0F000084379
:10230000A060306800F00700B8420BD9306820F0B8
:10231000070038433060306800F00700B84201D051
:102320000120DCE72878400705D5A068E96820F49B
:10233000E0600843A0602878000706D5A0682969F6
:1023400020F4605040EAC100A06000F041F8A168AC
:10235000084AC1F30311515C01F01F01C84006494E
:102360000860BDE8F0470020FFF7E4BC0020024011
:10237000001002403C1401083800002001480068A9
:102380007047000038000020054806490068896849
:10239000054AC1F30221515C01F01F01C84070479A
:1023A00038000020001002407C140108054806494E
:1023B00000688968054AC1F3C221515C01F01F0120
:1023C000C840704738000020001002407C1401080B
:1023D00070B52549002318468A68CC6812F00C02B3
:1023E00004F00306214C4FEA640509D00C2A05D0FD
:1023F000042A26D0082A00D1284670BD012E10D10B
:102400000B681B0704D4D1F89430C3F3032302E014
:102410000B68C3F30313164E56F823307AB10C2A17
:10242000EBD1C86800F00302C868C0F30210401C7A
:10243000022A08D0032A09D0B3FBF0F008E01846BE
:1024400070BD204670BDB4FBF0F001E0B5FBF0F0CC
:10245000CA68C968C2F306225043C1F34161491CEE
:102460004900B0FBF1F070BD001002400024F40000
:102470004C1401082DE9F84305007CD0FD4CA06800
:1024800000F00C06E06800F003072878C00662D56B
:1024900076B10C2E01D1012F0AD0A869002820683E
:1024A00078D040F001002060FFF7EAF9804659E05B
:1024B0002068800702D5A8690028DED0296A206834
:1024C000000703D5206800F0F00004E0D4F8940081
:1024D000F02202EA1010814216D9084601F022FDCE
:1024E000002848D1206840F0080020602068296A50
:1024F00020F0F000084320606068E96920F47F4024
:1025000040EA0120606015E0206840F0080020608B
:102510002068296A20F0F000084320606068E969BB
:1025200020F47F4040EA01206060286A01F0FAFC54
:102530000028D6D1FFF74CFFA168CF4AC1F30311A1
:10254000515C01F01F01C840CC4908600020FFF732
:10255000F1FB00287ED12EE0FFF792F9A0EB0800F6
:10256000022878D820688007F6D5206840F0080057
:102570002060206801E0BBE00CE0296A20F0F00058
:10258000084320606068E96920F47F4040EA012048
:10259000606010E020F001002060FFF771F98046D4
:1025A00006E000BFFFF76CF9A0EB08000228D8D8BE
:1025B00020688007F6D42878C00740D0082E18D0AD
:1025C0000C2E01D1032F14D06868B0F5803F17D0CE
:1025D000B0F5A02F206817D020F48030206020684C
:1025E00020F4802020606868E0B1FFF749F9804658
:1025F00014E02068800322D56868002878D01EE0A7
:10260000206840F48030EDE740F480202060F7E758
:10261000FFF736F9A0EB08006428A2D820688003F1
:10262000F6D50CE0FFF72CF9804605E0FFF728F916
:10263000A0EB0800642894D820688003F6D428789A
:1026400080073BD5042E11D00C2E01D1022F0DD0C6
:10265000E86801E05EE1B8E0002820681ED040F4A0
:1026600080702060FFF70CF907460CE020684005F9
:102670000CD5E8680028C1D008E000BFFFF700F9DA
:10268000C01B022893D820684005F7D56068297CD4
:1026900020F0F85040EA016060600FE020F48070A4
:1026A0002060FFF7EDF8074605E000BFFFF7E8F808
:1026B000C01B0228B1D820684005F7D4287800074D
:1026C00029D568690028D4F8940012D040F00100A0
:1026D000C4F89400FFF7D4F8074604E0FFF7D0F8F9
:1026E000C01B022871D8D4F894008007F6D512E0F8
:1026F00017E120F00100C4F89400FFF7C1F8074685
:1027000005E000BFFFF7BCF8C01B02285DD8D4F875
:1027100094008007F6D42878400766D5A06D00277E
:10272000C00008D4A06D40F08050A065A06D0127C6
:1027300000F08050009052480168C90512D4016829
:10274000814641F480710160FFF79AF8804605E008
:10275000FFF796F8A0EB0800022836D8D9F8000059
:10276000C005F5D5A868012816D00528D4F8900032
:1027700017D020F00100C4F89000D4F8900020F0A9
:10278000040000BFC4F89000A86841F28839C0B1C5
:10279000FFF776F880460FE0D4F8900040F0010093
:1027A000F0E740F00400C4F89000F5E7FFF768F8A0
:1027B000A0EB0801494508D8D4F890008007F5D56A
:1027C0000EE0FFF75DF8804606E07CE0FFF758F882
:1027D000A0EB0801494576D8D4F890008007F5D4DD
:1027E0001FB1A06D20F08050A0652878800628D504
:1027F000686A0028D4F8980012D040F00100C4F8AC
:102800009800FFF73DF8074605E000BFFFF738F8EE
:10281000C01B02287DD8D4F898008007F6D510E0B8
:1028200020F00100C4F89800FFF72AF8074604E0FA
:10283000FFF726F8C01B02286BD8D4F89800800751
:10284000F6D4A86AF0B30C2E6BD00228206820F0D2
:102850008070206018D02068000103D4E06820F068
:102860000300E060E06807490840E060FFF708F80F
:10287000054651E0001002403C14010838000020D9
:1028800000700040FFFFEEFEFEF7FAFF064604E090
:10289000FEF7F6FF801B02283BD820688001F7D4A2
:1028A000286B55F82C1F000110380843298A1E4A4E
:1028B000490802EB4151AA6841EA02210843297DF7
:1028C000490801E02BE024E04FF07E4202EB416139
:1028D0000843297B40EAC160E060206840F08070D6
:1028E0002060E06840F08070E060FEF7C9FF0546B8
:1028F00005E000BFFEF7C4FF401B022809D820688E
:102900008001F7D50BE000BFFEF7BAFF401B02289D
:1029100002D90320BDE8F88320688001F4D40020A8
:10292000F8E70120F6E700000000E0FF2DE9F74F8F
:10293000044690F82000934601281CD04FF001086F
:1029400084F82080022084F821002168CA2048628F
:10295000216853204862206880684FF000054005D8
:102960004FF0FF064FF0030A4FF47A790FD5FEF7C8
:1029700087FF074607E0022000F03AB8FEF780FF25
:10298000C01B484511D82068C0684007F6D42068AD
:10299000816821F480618160FEF772FF07460CE0D8
:1029A000FEF76EFFC01B484507D92068466284F8D1
:1029B00021A084F820500320DEE72068C06840078B
:1029C000EED52168886820F0070040EA0B00886097
:1029D0002168019848612068816841F480618160C4
:1029E0002068466284F8218084F820500020C3E7E4
:1029F0001EBCBDE8E08F000010B500680B464168C2
:102A00000D480140080CD870C1F304245C7001F03B
:102A10003F049C70C1F34231197052B901F0C0FA01
:102A2000D870587801F0BCFA5870987801F0B8FA6C
:102A30009870002010BD00003FFFFF0010B50B464E
:102A40000168896A596001680969C1F30E019960DA
:102A5000006801680D480140C1F305401870C1F3DA
:102A600006245C7001F07F049C70890DD97052B906
:102A700001F096FA1870587801F092FA5870987828
:102A800001F08EFA9870002010BD00007F7F7F005B
:102A90002DE9F04104004FF0010553D094F82100D6
:102AA000002528B9002084F82000204600F050F8C6
:102AB000022084F821002168CA204862216853203E
:102AC0004862204601F082FAFF26042718BB2068DE
:102AD00081681E4A11408160216888686268A36924
:102AE000104322691A43104388602168E068086136
:102AF00020680169228941EA024101612068C168B8
:102B000021F08001C16020688068800609D42046D9
:102B100000F016F928B12068466284F8217001257A
:102B200010E02068C16C21F00301C1646169E069B3
:102B300008432168CA6C1043C864206846620120BB
:102B400084F821002846BDE8F0810000BFFF8FFF18
:102B500000680549884205D1044850F8901F41F4A7
:102B60000041016070470000002800400010024052
:102B70002DE9F047044690F820000B46012820D0AC
:102B80004FF0010984F82090022084F82100DAB186
:102B90009878D97840EA014558781978000240EAD7
:102BA000413005432168CA204862216853204862A9
:102BB000204601F00BFA0026FF274FF0040860BB07
:102BC0001AE00220BDE8F0875878C10603D500F06E
:102BD000EF000A305870D87801F0EBF90504587806
:102BE00001F0E7F945EA0025987801F0E2F905439C
:102BF000187845EA4035D5E710480540206845601B
:102C00002068C16821F08001C1602068806880066A
:102C10000BD4204600F094F838B12068476284F85D
:102C2000218084F820600120CCE72068476284F886
:102C3000219084F820600020C4E700003FFFFF00DF
:102C40002DE9F047044690F8200092460D460128F1
:102C500015D04FF0010884F82080022084F821006C
:102C60002168CA204862216853204862204601F04A
:102C7000ADF9FF274FF004090026E8BB02E002206F
:102C8000BDE8F0872068BAF1000F80684FEA406025
:102C900005D0002817DA287801F082F914E000281E
:102CA00000DBEE70287801F084F90304687801F005
:102CB00080F943EA0023A87801F07BF90343E87820
:102CC00043EA80500AE0EE70A8782978EA7840EA72
:102CD00001406978090241EA8251084317490840D6
:102CE000216808602068816821F480218160D5E92D
:102CF00003010843216800E00FE08A681043886000
:102D00002068C16821F08001C16020688068800669
:102D10000BD4204600F014F838B12068476284F8DC
:102D2000219084F820600120AAE72068476284F897
:102D3000218084F820600020A2E700007F7F7F00D0
:102D400070B504460068C16821F0A001C160FEF7BB
:102D500097FD05464FF47A7607E000BFFEF790FD39
:102D6000401BB04201D9032070BD2068C0688006B6
:102D7000F4D5002070BD4FF0E020016941F0020160
:102D8000016170472DE9F041040005D00025A562DE
:102D900094F85D0018B107E00120BDE8F08184F8E7
:102DA0005C50204600F044F8022384F85D3020682F
:102DB000016821F040010160E0684FF4E066B04234
:102DC00001D9002101E04FF48051B0F5706F02D0BD
:102DD000B04200D0A562276B012227B9B04201D9C9
:102DE000236300E02263D4E901031843D4E90436E5
:102DF00033431843238B03F400731843E3691843E8
:102E0000236A1843A36A184323681860636B606AD7
:102E1000A66918430427E36807EA164633431843B4
:102E2000084321684860256684F85D200020B4E7E7
:102E300000B500680E4987B0884217D10D48816DF2
:102E400041F480418165806D694600F480400590C1
:102E50004FF4604000900220019000200290032077
:102E60000390052004900448FEF738FC07B000BD2D
:102E70000038004000100240000400482DE9F05FD7
:102E8000044690F85C0000270A9E1D4692468B4639
:102E90004FF0010901280ED0012084F85C00FEF7F4
:102EA000EFFC804694F85D00616801280CD0B1F514
:102EB000827F07D102E0022000F011B9A16809B9B0
:102EC000042801D0022700E1BBF1000F24D0BAF1A1
:102ED000000F21D005B394F85D00042802D005202E
:102EE00084F85D0000202066C4F840A0A4F8465095
:102EF000A4F84450C4F838B0E587A587E06420659D
:102F0000E0684FF4E061884201D8012D06D92068BD
:102F1000426822F4805205E00127D6E0206842682A
:102F200042F48052426020680268520603D402686C
:102F300042F040020260E0688842606845D908B10A
:102F4000012D3AD1A06B21680088C860A06B801C5D
:102F5000A063E08F401EE0872FE02068816889072A
:102F60000FD5E18F69B1B9F1010F0AD1A16B0988C1
:102F7000C160A06B801CA063E08F401EE0874FF013
:102F8000000920688168C9070FD0B4F8461061B104
:102F9000C068216C0880206C801C2064B4F8460056
:102FA000401EA4F846004FF00109FEF769FCA0EBB3
:102FB0000800B04201D3701C75D1E08F0028CCD13D
:102FC000B4F846000028C8D176E008B1012D6CD1D4
:102FD000E08F0128A06B08D921680088C860A06B29
:102FE000801CA063E08F801E07E0216800780873D2
:102FF000A06B401CA063E08F401EE08755E0206876
:10300000816889071AD5E18FC1B1B9F1010F15D1D6
:10301000E18F0129A16B07D90988C160A06B801CD1
:10302000A063E08F801E06E009780173A06B401C4E
:10303000A063E08F401EE0874FF0000920688168A0
:10304000C90728D0B4F8461029B3B4F846100129AE
:1030500014D9C068216C0880206C801C2064B4F8EE
:103060004600801EA4F84600B4F84600012810D897
:103070002068416841F4805141600AE0007B216C86
:103080000870206C401C2064B4F84600401EA4F870
:1030900046004FF00109FEF7F3FBA0EB0800B04239
:1030A00002D3701C01D018E0BEB1E08F0028A6D179
:1030B000B4F846000028A2D142463146204601F02D
:1030C00073F810B1012720202066012084F85D00EC
:1030D000002084F85C003846EEE60327F5E730BCB4
:1030E000BDE8C09F4FF0E0210428086903D020F01C
:1030F00004000861704740F00400FAE7704710B51B
:10310000401EB0F1807F01D3012010BD4FF0E024BC
:1031100060610F21601700F05DFE0020A0610720B4
:103120002061002010BD10B5FFF7E8FF10BD4FF083
:10313000E020016921F0020101617047704770478A
:1031400010F8711F40780843704700002DE9F041E6
:1031500002680446D0691168936810F00F0F4FF0B1
:1031600000055BD003F0010601F49077374369D086
:10317000C70707D0CF0505D501271762626F42F058
:1031800001026267820708D5DA0706D027680222A3
:103190003A62626F42F004026267420708D5DA07BA
:1031A00006D0236804221A62626F42F0020262674C
:1031B00002070AD501F02002324306D02368082214
:1031C0001A62626F42F008026267626F002A32D0B0
:1031D000800605D5880603D5216E09B120468847AB
:1031E000606F000703D420688068400625D520461C
:1031F00001F0BCF920688168490619D5816821F081
:1032000040018160E06E98B120498163E06EFEF775
:103210008FF800280FD0E06E816B06E0860611D58E
:103220008E060FD5216E1EE02046BDE8F04108470E
:103230002046FFF784FFBDE8F0812046FFF77FFFBF
:103240006567F8E7C60209D55B0207D54FF4801021
:1032500010622046BDE8F041FFF770BF030605D5B8
:103260000B0603D5616E0029DED1E4E74006E2D506
:103270004806E0D51168204621F040011160202168
:1032800084F87110656600F0A9F9D4E75945000883
:1032900010B5040003D094F8710010B107E00120CC
:1032A00010BD002084F87000204600F027F824208C
:1032B00084F871002068016821F001010160204656
:1032C00001F0C0F90128EBD0606A10B1204601F08E
:1032D000B1F82068416821F490414160206881681C
:1032E00021F02A0181602068016841F0010101603C
:1032F0002046BDE8104001F001B9000070B52C4E29
:10330000046800252B4802210322072386B0B4421B
:1033100012D1046E44F480440466006E00F48040D0
:103320000590C0208DE8230069462348CDE903239A
:10333000FEF7D4F906B070BD204EB44219D1846DA9
:1033400044F400348465806D02AC00F400300590D4
:103350000C20CDE9000184E80E0069464FF0904052
:10336000FEF7BCF9002211462620FEF751FD26206B
:103370001AE0134EB442DDD1846D44F48024846598
:10338000806D00F4802005904FF440608DE82300AC
:1033900069460C48CDE90323FEF7A0F90022114647
:1033A0002720FEF735FD2720FEF727FDC2E70000A6
:1033B0000038014000100240000400480044004072
:1033C000004800400008004830B590F87230202BCB
:1033D0004AD1B1B1AAB190F87030012B44D0012389
:1033E00080F870304165A0F85820A0F85A200022DB
:1033F00002661D038168FF23A94207D1016911B14B
:103400000CE0012030BD40F2FF110DE07F2419B126
:10341000B1F1805F05D009E0016901BBA0F85C3023
:1034200004E00169D9B13F21A0F85C104267222174
:1034300080F8721001688B6843F001038B6081682B
:10344000A94201D1016969B10849016680F870207B
:103450000068016841F490710160002030BDA0F85F
:103460005C40E3E70249F0E7022030BDE94500088F
:103470008D450008F0B5284A00242849904223D100
:10348000CD88280415D4084601F10302C088244ED3
:10349000C0F30D0300F1010012786F0480B20CD567
:1034A000F52AF25406D0C880C0F30D00072800D9D1
:1034B000CC80F0BD45F4004004E0F52AF9D1F25487
:1034C00040F48040C880F0BD164A9042FBD1888805
:1034D0000204F8D4114A430402F10202127809D519
:1034E0000A2A05D1B0F5804F02D040F4004010E028
:1034F0008C80F0BD0D2A0AD0C0F30D030A4D401C8C
:1035000080B2EA548880B0F5806FF1D2F0BD40F40B
:1035100080408880F0BD0000BC52002000000020E8
:10352000A804002034530020A80000202DE9F8430F
:10353000044690F871001F4616460D4620284BD1D0
:10354000C5B1BEB194F87000012845D0012084F8BF
:1035500070004FF00008C4F87480212084F87100D6
:10356000FEF78EF9A4F850608146A4F852604FF43B
:10357000805615E00120BDE8F8838021204601F047
:103580008BF9D8B9A068B04201D12069C0B115F853
:10359000010B21680885B4F85200401EA4F85200BF
:1035A000B4F852004B464FF0000200970028E4D1D7
:1035B0004FF04001204601F06FF930B10320DAE707
:1035C00035F8020BC0F30800E3E7202084F871000F
:1035D00084F870800020CEE70220CCE77047FEE739
:1035E00001688A69D243920701D400228A62006886
:1035F0008169C943C90703D0816941F00101816133
:10360000704700002DE9F0410446006890460E46E0
:103610008069C043C00633D4002520272068806914
:10362000C043800615D5701CF8D0FEF729F9A0EB31
:103630000800B04201D8002EF0D154F8440F40F0F9
:10364000200044F804096770A57025700120BDE8CA
:10365000F08121681020C8612068C7612046FFF70B
:10366000BFFF54F8440B4168064A1140416020688E
:1036700040F0040044F820096777A5772577E5E74F
:103680000020E4E700E800FE2DE9F8430446164672
:10369000DDE9089714489846DAB2009000232046E6
:1036A00000F056F83A464946204600F0B9F8B8B955
:1036B000F5B2B8F1010F08D02168300A88623A46A5
:1036C0004946204600F0ACF850B9206885624B4668
:1036D000002240212046009700F050F8002800D03A
:1036E0000120BDE8F8830000002000802DE9F843A8
:1036F0000446164615489846DDE90897DAB2C30233
:103700000090204600F024F83A464946204600F052
:1037100087F8B8B9F5B2B8F1010F08D02168300ABE
:1037200088623A464946204600F07AF850B9206847
:1037300085624B46002280212046009700F01EF84B
:10374000002800D00120BDE8F883000000200080A0
:10375000F0B50568059C68684FF48066064FC1F3B4
:10376000090106EA545641EA02413E431943B04377
:10377000214308436860F0BDFF63FF032DE9F0417A
:103780001D4617460E460446DDF8188008E0681C02
:1037900006D0FEF775F8A0EB0800A8420BD855B18B
:1037A0002068806936EA000012D00020B842EED0CE
:1037B0000020BDE8F08154F8440F40F0200044F8A8
:1037C0000409202060700020A07020700120F0E724
:1037D0000120EBE770B516460D4604460DE0324673
:1037E00029462046FFF70EFF08B1012070BDFEF705
:1037F00047F8801BA84207D835B120688069C043CC
:103800008006ECD4002070BD54F8440F40F0200036
:1038100044F80409202060700020A0702070E4E7C4
:1038200070B516460D4604460FE03246294620463E
:10383000FFF7E8FE08B1012070BD681C05D0FEF757
:103840001FF8801BA84207D835B120688069C043A3
:103850008007EAD4002070BD54F8440F40F02000E7
:1038600044F80409202060700020A0702070E2E776
:1038700010B500F03BFC0D4C012202212046FDF763
:10388000F9FF012211462046FDF7F4FF00BF00BFFB
:10389000002202212046FDF7EDFF00BF00BF0022FD
:1038A0002046BDE810400121FDF7E4BF00080048B4
:1038B00010B500F01BFC0A4C002202212046FDF747
:1038C000D9FF00BF012211462046FDF7D3FF00BFFC
:1038D00000BF01222046BDE810400221FDF7CABF0B
:1038E0000008004800EB8100006E00F0F8407047CF
:1038F0008068C0F3C00070478068C0F380007047E4
:10390000C06810F4406F01D000207047012070475C
:10391000042310B503EAD1531844C1F3045107241A
:103920008C4043698A40A3431343436110BD00EBBD
:103930008100016E21F000411143016670470000D3
:1039400070B5012214034FF0904521462846FDF73B
:1039500091FF0A4E002201213046FDF78BFF0848F7
:103960000AF0ECFB002221462846FDF783FF304693
:10397000BDE8704000220121FDF77CBF0004004833
:10398000F049020030B51B4887B019490024C0E94E
:10399000001484600425C460C0E9044504764476BC
:1039A0000121C16180F820408462C46280F8304007
:1039B000446380F83840FDF72BFB18B14B210EA073
:1039C00001F074F8104800900620CDE901047F2032
:1039D0000594CDE9030569460648FDF71BF9002863
:1039E00003D0582104A001F061F807B030BD0000F9
:1039F000000004500C5100202E2E2F5372632F61B3
:103A000064632E63000000001000C0102DE9F04731
:103A10004D4886B0C16C41F00401C164C16C01F035
:103A200004010591C16C41F00101C164C16C01F058
:103A300001010591C16C41F00201C164C06CDFF865
:103A40000C8100F002000590002240F24721404620
:103A5000FDF710FF4FF0904A002241F2021150464C
:103A6000FDF708FFDFF8E890002240F207314846F2
:103A7000FDF700FF01224FF481514846FDF7FAFEA1
:103A800001224FF408415046FDF7F4FE01221103D4
:103A90004046FDF7EFFE032001250024CDE9000597
:103AA000CDE9024069464046FDF718FE41F2442048
:103AB0000090CDE90154694640460394FDF70EFE9F
:103AC000244F0226CDE90057694650460296FDF77D
:103AD00005FE49F202100090CDE9015469465046B6
:103AE0000394FDF7FBFD4FF49070CDE900076946A4
:103AF00002964046FDF7F2FD41F227300090CDE9F5
:103B00000154694648460394FDF7E8FD8020009083
:103B10001148CDE9010569464046FDF7DFFDE802A1
:103B200003948DE8610069465046FDF7D7FD0022F9
:103B300011460620FEF76CF9002211461720FEF709
:103B400067F906B0BDE8F0870010024000080048A1
:103B5000000400480000111000002110164810B5A4
:103B6000144901601549416000210122C0E9021297
:103B7000016141618161C1610162FDF7DBFE18B144
:103B800042210FA000F092FF00210B48FDF77EFEBE
:103B900018B149210AA000F089FF00210648FDF76D
:103BA000A0FE002805D0BDE81040502104A000F080
:103BB0007DBF10BD0054004070510020BB7C7000E0
:103BC0002E2E2F5372632F6932632E630000000084
:103BD00010B5254886B023490024C0E900147F2190
:103BE0008160FF21C0E9031444618461C461FEF770
:103BF0004FFF18B143211DA000F058FF8DF8004081
:103C00008DF801408DF80240039401226946164860
:103C10000494FFF715F818B14F2114A000F046FFE7
:103C200002208DF8140001208DF815008DF8160083
:103C300002468DF8174005A90B48FEF799FF18B109
:103C400059210AA000F032FF002211460648FEF773
:103C50006DFE002803D0602104A000F027FF06B00D
:103C600010BD000000280040BC5100202E2E2F5314
:103C700072632F7274632E6300000000134810B546
:103C8000114901604FF48271416000214FF4E062FC
:103C9000C0E902124FF400720161C0E90512382236
:103CA000C0E9072107224162C0E90A120163082125
:103CB0004163FFF767F8002805D0BDE810404721B1
:103CC00003A000F0F3BE10BD00380040E05100201A
:103CD0002E2E2F5372632F7370692E630000000025
:103CE0000E4810B50C4901604FF4E13141600021EC
:103CF00081600C22C160C0E904128161C16101626E
:103D00004162FFF7C5FA002805D0BDE81040472101
:103D100003A000F0CBBE10BD00380140445200208B
:103D20002E2E2F5372632F75736172742E630000F1
:103D30000E4810B50C4901604FF4E131416000219B
:103D400081600C22C160C0E904128161C16101621D
:103D50004162FFF79DFA002805D0BDE810405C21C4
:103D600003A000F0A3BE10BD00440040BC520020E0
:103D70002E2E2F5372632F75736172742E630000A1
:103D80000E4810B50C4901604FF4E131416000214B
:103D900081600C22C160C0E904128161C1610162CD
:103DA0004162FFF775FA002805D0BDE81040712187
:103DB00003A000F07BBE10BD00480040345300203B
:103DC0002E2E2F5372632F75736172742E63000051
:103DD000FEE770470907090E002806DA00F00F0019
:103DE00000F1E02080F8141D704700F1E02080F819
:103DF00000147047704700002DE9F041444C05461F
:103E00008846E0680026810728680DD0E16801F047
:103E10000301814216D1A8B1E0686968C0F30210BD
:103E2000401C88420ED120E0012804D0022805D091
:103E3000032807D108E02168890701E021684905C6
:103E4000002907DB01265FE02168890302D421688D
:103E50004903F5E7E1686A686FF00F0321F0730129
:103E600003EB021211430143E160206820F08060FF
:103E70002060FDF705FD074605E000BFFDF700FDEA
:103E8000C01B022837D820680001F7D4B8F1000F12
:103E900018D0B8F1010F1DD0287D4FF07E414008A9
:103EA00001EB4060A96840EA01202169194A1140EC
:103EB00008432061206840F080602060FDF7E0FC4E
:103EC00007461AE0A868297B000240EAC160216920
:103ED000114AECE7288A1149400801EB4050A968D3
:103EE00040EA012021690E4AE1E700BFFDF7C8FC66
:103EF000C01B022801D9032606E020680001F5D581
:103F00002069A969084320613046BDE8F0810000BE
:103F100000100240FF80FFF9FF80FF070000E0FF74
:103F2000FF809FFFF8B51C4D06460024A86DC00019
:103F300002D5FDF7FDFF0DE0A86D40F08050A865AB
:103F4000A86D00F080500090FDF7F2FFA96D21F000
:103F50008051A965B0F5007F04D0802E07D94FF0BD
:103F600003040AE0802E08D9A02E01D804E001D174
:103F7000022402E0702E00D101240848016821F0DB
:103F8000070121430160006800F00700A04201D052
:103F90000120F8BD0020F8BD0010024000200240C2
:103FA000010901EB810100F00F0000EB4100C0B2FC
:103FB00070470022014602E00A39C9B2521C0A29A0
:103FC000FAD2100741EA10607047000070B504464D
:103FD0000068C168490614D44FF0FF31C160FDF795
:103FE0004FFC05464FF47A7607E000BFFDF748FC2A
:103FF000401BB04201D9032070BD2068C068400654
:10400000F4D5002070BD0000F8B50C4E0C468DF8BC
:1040100000004FF48055002229463046FDF72AFC67
:10402000684600F045FD9DF80100607001222946B8
:104030003046FDF71FFC0020F8BD000000040048DA
:104040007047000038B50B4D8DF800008DF8011059
:104050004FF48054002221462846FDF70BFC6846A9
:1040600000F044FD012221462846FDF703FC002014
:1040700038BD00000004004810B53220FDF77FF97C
:10408000094C002204212046FDF7F4FB3220FDF705
:1040900076F9012204212046FDF7ECFBBDE8104033
:1040A0006420FDF76CB900000008004870B50E4CA4
:1040B000002280212046FDF7DDFB40F2DC5528463A
:1040C0000AF03CF8012280212046FDF7D3FB284668
:1040D0000AF034F8002280212046FDF7CBFB284669
:1040E000BDE870400AF02AB80008004800B585B065
:1040F0000220009001200190029003200390694665
:104100000248FDF7EBFA05B000BD000000080048CA
:1041100011B583B0FF208DF80400642000900123C6
:1041200001AA03A90948FEF7A9FE040009D05123FA
:10413000074A08A112A000F0F5FC214614A000F0E7
:10414000F1FC9DF8040004B010BD0000E051002017
:10415000045D01082E2E5C557365725C7263363601
:10416000335C706853756242616C5C7372635C525D
:10417000656743746C5F53706948772E6300000075
:104180005B25733A202025733A2025645D200000CA
:10419000737069322073656E64206661696C2025D6
:1041A00064200D0A00000000F8B515460E460B46C7
:1041B0000092044600224FF4C05100F019F888B96B
:1041C0003346002280212046009500F05CF848B973
:1041D000334600224FF4C0612046009500F008F8F5
:1041E000002804D0206E40F0200020660320F8BD97
:1041F0002DE9F0471D4617460E4604464FF4C068A9
:10420000DDF820900CE0464501D107B9007B681C21
:1042100006D0FDF735FBA0EB0900A84208D23DB15E
:10422000206881683140B942EDD10020BDE8F087B7
:104230002068416821F0E00141606068B0F5827F4C
:104240000BD1A068B0F5004F02D0B0F5806F04D15B
:104250002068016821F040010160A06AB0F5005FAC
:1042600009D12068016821F40051016020680168CB
:1042700041F400510160012084F85D00002084F8C1
:104280005C000320D2E72DE9F0411D4617460E469B
:104290000446DDF8188008E0681C06D0FDF7F0FA47
:1042A000A0EB0800A8420BD255B12068806836EA1E
:1042B000000030D00020B842EED10020BDE8F081EF
:1042C0002068416821F0E00141606068B0F5827FBC
:1042D0000BD1A068B0F5004F02D0B0F5806F04D1CB
:1042E0002068016821F040010160A06AB0F5005F1C
:1042F00009D12068016821F400510160206801683B
:1043000041F400510160012084F85D00002084F830
:104310005C000320D2E70120CDE7704710B5FDF720
:10432000F1FCBDE81040FEF7FEBE000070B5AEB077
:10433000FDF706FE2C4850F8901F21F0180101608F
:1043400016201790102001251B902E02CDE919563A
:104350000024A020CDE91E401D9517A82194FEF74A
:1043600089F800B1FEE70F20CDE928042A942B94A8
:10437000012128A82C94FDF775FF00B1FEE71B482A
:104380000A9400904FF080500C9414900894099473
:1043900016960220CDE9010508210722CDE9031276
:1043A000CDE90501C00507906846FDF7FDFD00B1A8
:1043B000FEE74FF40070FDF75DFD00B1FEE7FDF78D
:1043C000DDFF4FF47A71B0FBF1F0FEF798FE0420A8
:1043D000FEF788FEFDF7E0FD00221146501EFDF7B6
:1043E00017FD2EB070BD00000010024047400200D3
:1043F0000D48016841F4700101600C48016841F00A
:1044000001010160002181600268094B1A400260CD
:104410008214C260026822F4802202608161024933
:10442000C00380390860704788ED00E0001002404A
:10443000FFFFF6EA90F82410C90706D001684A6821
:10444000836A22F400321A434A6090F824108907E4
:1044500006D501684A68C36A22F480321A434A606A
:1044600090F82410490706D501684A68036B22F4C6
:1044700080221A434A6090F82410090706D5016883
:104480004A68436B22F400421A434A6090F82410B1
:10449000C90606D501688A68836B22F480521A43E4
:1044A0008A6090F82410890606D501688A68C36B73
:1044B00022F400521A438A6090F82410490611D55C
:1044C00001684A68036C22F480121A434A60016C46
:1044D000B1F5801F06D101684A68436C22F4C0021E
:1044E0001A434A6090F82410090606D501684A6804
:1044F000806C22F4002202434A607047F8B500261F
:1045000004464667FDF7BCF90546206800686FF071
:104510007E47000708D52B4600224FF400112046A5
:10452000009700F0B9F960B92068006840070AD523
:104530002B4600224FF480012046009700F0ACF992
:1045400008B10320F8BD202084F8710084F87200BF
:1045500084F870600020F8BD10B5806A0021A0F8D2
:104560005A10A0F85210FEF7EAFD10BD01680A6863
:1045700022F490720A6001688A6822F001028A605F
:10458000202180F8721000210166704710B5B0F844
:104590005C2090F872300168222B04D0088B40F028
:1045A0000800088310BD898C436D11401980416D4E
:1045B000891C4165B0F85A10491E0904090CA0F87D
:1045C0005A10EFD101680A6822F490720A600168FB
:1045D0008A6822F001028A60202180F8721000218E
:1045E0000166FEF747FF10BD10B5B0F85C2090F8EB
:1045F00072300168222B04D0088B40F00800088339
:1046000010BD898C1140426D531C43651170B0F888
:104610005A10491E0904090CA0F85A10F0D101687B
:104620000A6822F490720A6001688A6822F0010226
:104630008A60202180F8721000210166FEF71AFFBF
:1046400010BD00002DE9F04104460168806823692F
:10465000E669184363691025002733431843844AE9
:104660000B68844E334003430B6020684168E36865
:1046700021F44051194341602168A069914201D061
:10468000236A18438B6823F4306303438B607A4BAF
:1046900021687A4899420DD1D0F8880010F00300C3
:1046A00006D0012839D0022835D0032838D136E089
:1046B000012535E0724B99420BD1D0F8880010F0FB
:1046C0000C0026D0042828D0082824D00C2827D174
:1046D00025E06C4B99420BD1D0F8880010F03000E7
:1046E00017D0102819D0202815D0302818D116E05E
:1046F000914215D1D0F8880010F4406009D0B0F58F
:10470000806F0AD0B0F5006F05D0B0F5406F07D1CB
:1047100005E0002504E0022502E0042500E008256C
:10472000594B00264FF4004091423DD135B1022D46
:1047300007D0042D07D0082D10D107E0FDF724FE87
:1047400003E0184602E0FDF743FEA8B3626802EBFF
:104750004201814202D8B0EB023F01D9012774E047
:10476000DFF828815DB1022D0CD0042D13D0082D67
:10477000F4D150082905401846F1000105E0FDF785
:1047800003FE0AE050084249F5E70023FBF71AFD53
:10479000A0F5407155E0FDF71BFE6268010E0302B3
:1047A000500818187141F0E7E1694FF6EF7881423F
:1047B0002ED1092DD2D200E047E0DFE805F006094E
:1047C0001F05220505052500C8E7FDF7DDFD01E011
:1047D000FDF7ECFD4100606801EB5001B1FBF0F02A
:1047E00080B2A0F110014145B8D84FF6F0710140F8
:1047F000C0F3420001432068C16026E0254960689B
:10480000EAE7FDF7E5FDE5E74FF480316068E3E7AF
:10481000092DA3D2DFE805F006091E0522050505CE
:1048200025009BE7FDF7B0FD01E0FDF7BFFD014668
:10483000606801EB500100BFB1FBF0F080B2A0F165
:10484000100141458AD82168C860266638466666E8
:10485000BDE8F081606803EB5001EDE7FDF7B8FDBE
:10486000E5E7616800EB5100B0FBF1F0E6E700001E
:1048700000800040F369FFEF003801400010024063
:1048800000440040004800400024F400FFFC0F00FA
:10489000000024F40048E8012DE9F041984617464D
:1048A0000E460446069D1DE0681C1BD02DB1FCF78A
:1048B000E7FFA0EB0800A84214D92068016821F4A2
:1048C000D07101602068816821F0010181602020A1
:1048D00084F8710084F87200002084F870000320CE
:1048E000BDE8F0812068C06936EA000004D00020ED
:1048F000B842D9D00020F3E70120F9E770B54FF4B2
:1049000080544FF09045002221462846FCF7B2FF24
:104910000A4E012211463046FCF7ACFF084809F068
:104920000DFC002221462846FCF7A4FF3046BDE8D6
:10493000704000220121FCF79DBF000000040048E8
:10494000F049020070B50D48FEF700FC00240C4D44
:1049500002E0641CAC4204D80848FEF7F1FB2028B2
:10496000F7D1002402E0641CAC4206D801220549BC
:104970000248FEF729FD0028F5D170BDBC52002089
:10498000FFFF01000300002070B50D48FEF7DEFBBD
:1049900000240C4D02E0641CAC4204D80848FEF729
:1049A000CFFB2028F7D1002402E0641CAC4206D8DB
:1049B000012205490248FEF707FD0028F5D170BD28
:1049C00034530020FFFF010002000020FEE710B575
:1049D0000446FEF74DFF782000F01CF8002000F0A0
:1049E00019F8204600F016F8BDE81040FEF760BF49
:1049F00010B50446FEF73CFF782000F00BF840208D
:104A000000F008F8204600F005F8BDE81040FEF779
:104A10004FBF000070B586B00546FFF767FB224E1A
:104A20000024280601D5012200E0002202213046A0
:104A3000FCF720FF6806050E00BF01221146304634
:104A4000FCF718FF00BF00BF002201213046FCF731
:104A500011FF641CE4B2082CE3D30122022130468A
:104A6000FCF708FF00BF00BF02200090002001906B
:104A7000012002900320039069463046FCF72EFE89
:104A8000012211463046FCF7F5FE00BF00BF0221AF
:104A90003046FCF7EAFE0446002201213046FCF7CE
:104AA000E9FE06B0204670BD00080048FEE70000A1
:104AB0002DE9F0410C4F0578441C4FF4805600223C
:104AC00031463846FCF7D6FE2846FFF721FB00208A
:104AD000FFF71EFB0546012231463846FCF7CAFEA9
:104AE0002570BDE8F0810000000400482DE9F04188
:104AF0000B4F047845784FF48056002231463846F3
:104B0000FCF7B8FE2046FFF703FB2846FFF700FB43
:104B100031463846BDE8F0410122FCF7ABBE00004B
:104B2000000400480FB4054B10B503A9044A0298CD
:104B300000F02CF810BC5DF814FB00005592000842
:104B4000880000200FB4084B10B504A902AA0398EE
:104B500000F01CF8044602A9002000F04BFA2046A1
:104B600010BC5DF814FB0000F54F000802E008C817
:104B7000121F08C1002AFAD170477047002001E0D7
:104B800001C1121F002AFBD1704700002DE9FF4F21
:104B90008DB00F460546002606E025280BD0DDE93E
:104BA0000F1290476D1C761C28780028F5D111B0A3
:104BB000304600F0F3B90024A246A1460122EC4998
:104BC00000E0044315F8013F203B02FA03F00842DD
:104BD000F7D128782A2810D06FF02F022878A0F17A
:104BE0003001092914D80AEB8A0102EB410144F093
:104BF000020400EB010A6D1CF0E701CF5FEA000A36
:104C000003D544F40054CAF1000A44F002046D1CB8
:104C100028782E2817D115F8010F44F004042A280B
:104C20000ED06FF02F022878A0F1300109290AD8A0
:104C300009EB890102EB410100EB01096D1CF2E770
:104C400057F8049B6D1C28786C280FD006DC4C2884
:104C500017D068280DD06A2814D104E0742810D029
:104C60007A280FD10DE044F400140AE044F48014D3
:104C700001E044F440146978814202D104F58014C3
:104C80006D1C6D1C2A786E2A1FD00CDC632A31D073
:104C900004DC002A8BD0582A11D1A3E0642A68D002
:104CA000692A0CD165E0732A2ED004DC6F2A73D0F8
:104CB000702A04D19BE0752A6FD0782A6ED01046F6
:104CC000DDE90F129047761C50E1C4F30250022830
:104CD00006D0032809D0042801CF09D0066045E199
:104CE00001CFF117C0E9006140E101CF06803DE14D
:104CF00006703BE117F8040B8DF8000000208DF8DA
:104D00000100EB46012003E057F804BB4FF0FF30F1
:104D100061074FF0000102D40DE008F1010188465F
:104D200049450FDA8045F8DB1BF808100029F4D15B
:104D300008E008F1010188468142FADB1BF80810FF
:104D40000029F6D1DDE90F23AAEB080081462146B0
:104D500000F039F9304400EB080604E0DDE90F12F9
:104D60001BF8010B9047B8F10108F7D221464846DD
:104D7000F7E00A21C4F302534FF0000B0891022B15
:104D800004D001CFC117032B09D00AE0FF1D27F083
:104D90000707F7E8020108E032E01FE020E000B278
:104DA000C117042B01D140B2C117031E71F10003DA
:104DB00007DA4FF0000CD0EB0C006CEB01012D2357
:104DC00002E0230504D52B238DF82430012303E0D2
:104DD000E30701D02023F7E7984658E00A2110E0C6
:104DE00010210EE010204FF0000B08900CE0102175
:104DF0004FF0000B44F004044FF00809089103E061
:104E000008214FF0000B0891C4F30253022B04D089
:104E100001CF0021032B06D006E0FF1D27F0070776
:104E2000F7E8020103E080B2042B00D1C0B24FF0DA
:104E3000000823072BD5702A07D0DDF820C08CF09E
:104E4000100C5CEA0B0C05D00EE040238DF82430EA
:104E5000012308E050EA010306D030238DF8243006
:104E60008DF8252002239846DDF820C08CF0080C30
:104E70005CEA0B0C0BD150EA010301D1630706D5A4
:104E800030238DF824304FF00108A9F10109582A88
:104E900004D038A20B9208AA0A920BE03AA2F9E7D2
:104EA0005B46089AFBF78EF90B9B9B5C0A9A521E95
:104EB0000A92137050EA0102F2D10A98ADEB000099
:104EC00000F1200B600702D524F4803401E04FF09C
:104ED0000109D94502DDA9EB0B0000E0002000EB41
:104EE0000B0141440890AAEB010AE00306D4DDE976
:104EF0000F232146504600F066F806444FF00009A3
:104F000008E009A911F80900DDE90F12904709F13D
:104F10000109761CC145F4DBE0030CD5DDE90F2364
:104F20002146504600F04FF8064404E0DDE90F1238
:104F300030209047761C0899481E08900029F5DC1F
:104F400008E00A980A990078491C0A91DDE90F12D5
:104F50009047761CBBF10001ABF1010BF1DC21465F
:104F60005046DDE90F2300F01CF806446D1C1BE6DB
:104F7000092801003031323334353637383961622F
:104F800063646566000000003031323334353637F3
:104F900038394142434445460000000030BCBDE87A
:104FA000C08F2DE9F041044600251E4617468804AF
:104FB00004D405E039462020B0476D1C641EF9D5A5
:104FC0002846BDE8F0812DE9F041044600251E4643
:104FD0009046C80301D5302700E02027880404D577
:104FE00005E041463846B0476D1C641EF9D5284699
:104FF000BDE8F0810A68531C0B6010707047000018
:105000002DE9F84F404D06466878012879D14FF0D8
:10501000000B85F801B0F9233C4A3DA144A0FFF7FD
:1050200081FD297846A0FFF77DFD484F40F6340208
:105030004748396809F014F8DFF818A10C224648EF
:10504000DAF8001009F00CF829783A680020B9461F
:10505000C0EBC00303EB4307BB1893F804C0BCF1DB
:10506000000F42D193F803C08C450FD100240BE010
:1050700003EB040C05EB04089CF805C098F80280CB
:10508000C44503D1641CE4B2A142F1D8A1422CD1A1
:10509000C0EBC00000EB400010444C4681783170FA
:1050A000D9F80000C25D032000F07AFBDAF80000B6
:1050B0004189642902D15946A0F80AB089B2491C35
:1050C0004181C8B20090206832780323C05D01217D
:1050D00009F0B8F8FFF712FC204809F02FF82E204D
:1050E00008F01CFE002000F03BB8401CC0B2642851
:1050F000AED3292008F012FE00F0F0F9174809F0AD
:105100001DF80120EFE7000048590020565701081C
:105110002E2E5C557365725C4170706C69636174AE
:10512000696F6E5C7372635C6D656E752E630000F3
:105130005B25733A202025733A2025645D2000000A
:10514000206C656E3A2564200D0A00008000002066
:1051500000E001087C0000200020030820A10700D7
:1051600018BCBDE8E08F0000054900EB4002087064
:10517000C2EBC0104FF6FF7202EAC00048807047D1
:105180004C0000202DE9FE431720FCF72BFE6F4A50
:105190007F21A2F2111008F012FA6D4C0028208134
:1051A00076D16A4A0621A2F2111008F008FA20818D
:1051B00000286DD1654A0721A2F2111008F0FFF90D
:1051C0002081002864D100221146E06808F01BFA13
:1051D0002081C0B20128F6D080220821E06808F0C2
:1051E00012FA2081002853D100220921E06808F03A
:1051F0000AFA208100284BD10121E06805F0F1FC7A
:105200002081002844D15249504BC91C01F10108AA
:105210004A1ECDF80080CDE901214D3B0022114608
:10522000A3F1680008F001FA484E0027494D20819B
:105230004FF001094D3E90B10221E06805F0D1FC2C
:105240002081002824D10023CDE900681A461946A0
:10525000A6F1540008F06AFC2081D0B134E06771F7
:1052600011E0315C2844752381703B4A3BA143A087
:10527000FFF758FC60792844817844A0FFF752FC7E
:105280006079401C6071607921798842E9D318E027
:105290005AE0677111E0315C2844812381702E4A05
:1052A0002EA136A0FFF73EFC60792844817837A014
:1052B000FFF738FC6079401C607160792179884281
:1052C000E9D3297085F8019000220621314808F0C1
:1052D0009AF92081002837D1002207212D4808F0B3
:1052E00092F9208100282FD1194A2A48521C511EB8
:1052F00005F057FF20818E23174A18A11FA0FFF742
:1053000011FC63782278218923A0FFF70BFC0A2186
:105310004FF4C870CDE900016378227801211D485F
:1053200005F0AAFF208191230B4A0CA113A0FFF7DF
:10533000F9FB218924A0FFF7F5FB2B492020086009
:105340001720FCF75AFD208900F050B8BD58002006
:1053500050000020485900201E5701082E2E5C5591
:105360007365725C447269766572735C7372635CB8
:105370006E6663393838332E630000005B25733A5C
:10538000202025733A2025645D20000025303278E6
:10539000200D0A00AC570020202626262626262689
:1053A000262626262626262626262626262626269D
:1053B000262626262073743A257820205B2578201F
:1053C00025785D0D0A00000020656E746572204C22
:1053D000504344206D6F64652E2E2E2073743A2541
:1053E0007820200D0A0000001404014006BCBDE82E
:1053F000F883000008B56C2100910449002301EBFB
:1054000000100822102101F0F1FA08BD995101089D
:10541000F8B5FBF70DFB0024134D282606EB04100E
:10542000C0B20090102205EB44100123114601F098
:10543000DDFA641CE4B2032CF0D300245FF008060C
:1054400006EB0410C0B2009005EB441010220423B8
:105450001146603001F0CAFA641CE4B2072CEFD3A5
:10546000BDE8F84005F0F6BA79520108F8B5FBF747
:10547000DFFA00240A4E182505EB0410C0B2009094
:10548000102206EB44100323114601F0AFFA641C0E
:10549000E4B2052CF0D3BDE8F84005F0DBBA00001B
:1054A000E94C0108F8B5FBF7C3FA00240A4E2025A1
:1054B00005EB0410C0B20090102206EB4410032349
:1054C000114601F093FA641CE4B2042CF0D3BDE859
:1054D000F84005F0BFBA0000C94B0108F8B5FBF76A
:1054E000A7FA00240A4E182505EB0410C0B200905C
:1054F000102206EB44100323114601F077FA641CD6
:10550000E4B2052CF0D3BDE8F84005F0A3BA0000E2
:10551000294B0108F8B5FBF78BFA00240A4E202529
:1055200005EB0410C0B20090102206EB44100323D8
:10553000114601F05BFA641CE4B2042CF0D3BDE820
:10554000F84005F087BA0000094E0108F8B5FBF7EE
:105550006FFA00240A4E182505EB0410C0B2009023
:10556000102206EB44100323114601F03FFA641C9D
:10557000E4B2052CF0D3BDE8F84005F06BBA0000AA
:10558000494C0108F8B5FBF753FA0024094E2025D1
:1055900005EB0410C0B20090102206EB4410032368
:1055A000114601F023FA641C042CF1DBBDE8F8403D
:1055B00005F050BA292801082DE9F84F17460C4686
:1055C0000646FBF735FADFF85C9100254FF020081E
:1055D00008EB0510C0B20090102209EB4510002323
:1055E000114601F003FA6D1C042DF1DB4E4D4FF016
:1055F00010094FF0180A0A2E04D205EB0610CDF858
:10560000009013E04FF00A08B6FBF8F0082105EB14
:10561000001003231022009101F0E8F9B6FBF8F125
:1056200008FB116005EB0010CDF800900323102259
:10563000082101F0DBF91022032311463B48CDF885
:1056400000A001F0D3F92825012C31D0384E022CCE
:105650004FF000043DD000BF05EB0410C0B2009035
:1056600006EB4410102203231146803001F0BEF9EE
:10567000641C022CF0DB48205824012F39D0009004
:105680002B484FF01002032F4FF00303114600F197
:10569000C0003DD0803001F0A9F91022032311464B
:1056A0002448009401F0A2F900F046B805F0D2B900
:1056B0001022032311461E48009501F097F9382067
:1056C00000901B48102203231146203001F08EF970
:1056D000D1E705EB0410C0B2009006EB4410102295
:1056E00003231146403001F081F9641C022CF0DBE9
:1056F000C1E700900F48102203231146A03801F0A3
:1057000075F910220B480323114680380094C9E72D
:10571000403001F06BF9102206480323114640384F
:105720000094BFE7A928010895140108692C010815
:10573000E9480108494A010818BCBDE8E04FFFF7F5
:10574000B5BF0000F8B5FBF773F90024134D0A2626
:1057500006EB0410C0B2009004EBC40005EB80001F
:10576000022318220C2101F041F9641C052CEFDB07
:1057700000244B2604EB440006EBC000C0B20090AE
:1057800004EBC40005EBC000182202231146B4301C
:1057900001F02CF9641C022CECDBF8BDE5260108B5
:1057A0002DE9F84F1646894607464FF0000AFBF7E9
:1057B0003FF9774C00254FF0200800BF08EB05109B
:1057C000C0B20090102204EB45100023114601F0F6
:1057D0000DF96D1C042DF1DB00254FF0020800BF10
:1057E00008EB0510C0B2009004EB45101022022314
:1057F0001146803001F0FAF86D1C032DF0DB2A25EC
:10580000012F04D0032F13D0022F24D034E000271F
:1058100005EB0710C0B2009004EB471010220223E2
:105820001146E03001F0E2F87F1C022FF0DB23E0AC
:105830005FF0000705EB0710C0B2009004EB4710C3
:1058400010220223114600F5907001F0CFF87F1C62
:10585000022FEFDB10E0002705EB0710C0B200902D
:1058600004EB471010220223114600F5B07001F03E
:10587000BDF87F1C022FEFDB5FF0000708EB07107D
:10588000C0B2009004EB471010220423114600F52B
:10589000D07001F0ABF87F1C032FEFDBB9F1010FE3
:1058A00033D0B9F1020F4FF0000740D0DFF8E0909D
:1058B000A9F1A00905EB0710C0B20090102209EB76
:1058C00047100423114601F091F87F1C052FF1DBEE
:1058D000A14600274FEA080404EB0710C0B200906D
:1058E00009EB471010220623114600F5387001F02D
:1058F0007DF87F1C032FEFDB264C564528D3092E5D
:1059000026D804EB0610009539E0002705EB0710B8
:10591000C0B2009004EB471010220423114600F59A
:10592000007001F063F87F1C032FEFDBD0E705EB7D
:105930000710C0B2009004EB471010220423114658
:1059400000F5187001F052F87F1C042FEFDBBFE761
:10595000A6F10A00592817D80A27B6FBF7F004EB7E
:105960000010062310220821009501F03FF8B6FB35
:10597000F7F007FB1060322104EB001000910623C2
:105980001022082101F032F800F006B805F062B8E4
:10599000C93601089514010818BCBDE8E04FFFF7AF
:1059A000F5BF0000F8B5FBF743F800251A4C202698
:1059B00006EB0510C0B20090102204EB4510002346
:1059C000114601F013F86D1C042DF1DB002518279A
:1059D00007EBC500C0B2009004EB051003231022B2
:1059E0000821803001F002F86D1C0A2DF0DB002543
:1059F00006EBC500C0B2009004EB05100523102291
:105A0000082100F5907000F0F1FF6D1C082DEFDB10
:105A1000BDE8F84005F01EB8493B01082DE9FF5FDD
:105A20000026924688460446DFF85C90471C27E033
:105A300004F1B000C0B2FEF7CAFF1020FEF7C7FFA6
:105A40000020FEF7C4FFDFF844B0002545450CD325
:105A500055450AD2039806EB0011761C1BF801008D
:105A600009EBC501F6B2085502E009EBC500005D7F
:105A7000FEF7BEFF6D1CEDB2802DE7D3641CE4B2CF
:105A8000BC42D5D900F004B8AC53002095140108ED
:105A90003FBCBDE8C09F00002DE9F84307460E4615
:105AA0000120154601460A2E00D302200A2D00D3FC
:105AB0000221001D0844801C4042802101EBC000EF
:105AC00000EBD070C0F347040623102208215F4882
:105AD000009400F08BFF04F10800C0B200905B4816
