:020000040800F2
:10000000A8BE0020A1010008FB4E0008FB44000828
:10001000F94E0008B50E0008515F0008000000000E
:10002000000000000000000000000000C3540008B1
:10003000EB0E0008000000001D4F00087D5700086F
:10004000BB010008BB010008BB010008BB010008A0
:10005000BB010008BB010008BB010008BB01000890
:100060000B0F0008110F0008BB010008BB010008BE
:10007000BB010008BB010008BB010008BB01000870
:10008000BB010008BB010008BB010008BB01000860
:10009000BB010008BB010008BB010008170F0008E6
:1000A000BB010008BB010008BB010008BB01000840
:1000B0008D5800080000000000000000BB0100088F
:1000C000BB010008BB010008BB010008BB01000820
:1000D000BB010008BB010008C95E00080D5F0008F5
:1000E000ED0E0008BB010008000000000000000049
:1000F0000000000000000000000000000000000000
:1001000000000000BB01000800000000BB01000867
:10011000000000000000000099580008A5580008E1
:10012000BB010008BB010008BB010008BB010008BF
:10013000BB010008000000000000000000000000FB
:10014000BB010008BB010008BB0100080000000063
:10015000BB010008BB010008BB010008BB0100088F
:10016000BB010008BB010008BB0100080000000043
:10017000BB010008BB0100080000000000000000F7
:10018000BB010008BB010008BB010008DFF80CD070
:1001900000F018FB004800475DCF0008A8BE002013
:1001A0000648804706480047FEE7FEE7FEE7FEE711
:1001B000FEE7FEE7FEE7FEE7FEE7FEE74958000838
:1001C0008D0100082DE9F05F0546002092469B4610
:1001D00088460646814640241BE02846414647465D
:1001E000224600F000FA53465A46C01A914110D3F5
:1001F00011461846224600F0E7F92D1A67EB010870
:100200004F4622460120002100F0DEF917EB0009DD
:100210004E41201EA4F10104DFDC484631462A4647
:10022000434600F000B830BCBDE8C09F40EA01037F
:100230009B0703D009E008C9121F08C0042AFAD29C
:1002400003E011F8013B00F8013B521EF9D2704760
:10025000D2B201E000F8012B491EFBD27047002208
:10026000F6E710B513460A4604461946FFF7F0FFB5
:10027000204610BD421E12F8013F002BFBD111F8A1
:10028000013B02F8013B002BF9D1704730B5054620
:100290002A460B4612F8010B13F8014B08B1A04295
:1002A000F8D01CB1002802D06D1CF1E7284630BD03
:1002B000421C10F8011B0029FBD1801A704710B5B1
:1002C000002200E0521C835C8C5CA34201D1002B15
:1002D000F8D1D8B2E1B2401A10BD30B505460020C1
:1002E000034600E05B1C934205D2EC5CC85C201A1C
:1002F00001D1002CF6D130BD10B5484304460CF0B6
:100300009DFF002805D00021002C02D0641E01555D
:10031000FAE710BD70B5064605F0E6FE046805462E
:100320000A220021304600F080F92C6070BD2DE9D2
:10033000FE4F804681EA0300C00F0C46009021F07A
:10034000004123F00045B8EB0200A94105D2404628
:10035000214690461C460B46024623F000401043BF
:1003600047D0270DC7F30A00C3F30A510290401A81
:10037000019040286BDAC3F3130040F4801B00980F
:10038000924620B10023D2EB030A63EB0B0B0198DA
:100390005946C0F14002504600F016F906460D4697
:1003A00050465946019A00F02EF910EB08006141C1
:1003B000002487EA115284EAE7731A4340D0009A76
:1003C00062B3019A012A4FEA075215DC001B61EB68
:1003D00002014FF0004202EA0752CDE90042001C40
:1003E00041F5801132462B4600F09DF903B000F034
:1003F00045B840462146F9E7001B61EB0201001CAD
:1004000041F5801300185B412018A2F5001747EB57
:10041000030140EAD570B6196D4111E06D084FEA4D
:10042000360645EAC0754FEA0752001B61EB020130
:10043000001C41F5801149084FEA30000019514174
:1004400032462B4603B000F01CB800F05DB90098AE
:10045000012240000023D0EB020263EBE07300981E
:1004600021464FEAE074B8EB000061EB0401E9E7D4
:1004700083F000435BE781F0004158E730BCBDE802
:10048000C08F30BCBDE8C04FFFF7DFBF2DE9FE4F86
:1004900081EA030404F0004421F0004100944FF08D
:1004A000000B23F0004350EA01045ED052EA03043B
:1004B0005BD0C3F30A54C1F30A552C44A4F2F334BD
:1004C0000194A0FB0254C1F3130141F48011C3F362
:1004D000130343F4801301FB024400FB034E840A20
:1004E000970A44EA815447EA8357A4FB07680295B8
:1004F0008D0A05FB07854FEA932C04FB0C54270556
:10050000029D4FEA065847EA1637B5EB08056EEB31
:10051000070C870E920E47EA811742EA8312A7FB67
:100520000201B6EB0B0164EB00042B0D43EA0C3324
:100530005E1844EB1C50DA465146E7FB0201C5F356
:1005400013044FEA0B3343EA14534FEA0432019C7D
:1005500043EA0603A4F10C040294009CCDE900B424
:1005600000F0E1F803B000F003B800200146F9E71D
:1005700030BCBDE8C08F0EB540F23341029100217E
:10058000CDE900110A460B4600F0CDF803B000BDDE
:1005900001F0004330B421F0004150EA010206D0DE
:1005A0000A0DA2F56072C1F31301002A02DC30BC0F
:1005B00000207047440F44EAC104C100E01830BC79
:1005C00000EBC25000F069B8202A04DB203A00FAA0
:1005D00002F1002070479140C2F1200320FA03F39A
:1005E000194390407047202A04DB203A21FA02F098
:1005F0000021704721FA02F3D040C2F1200291405D
:10060000084319467047202A06DBCB17203A41FAE7
:1006100002F043EAE07306E041FA02F3D040C2F18F
:10062000200291400843194670472DE9F047914652
:100630000F4680460446002614F8015B2DB100F0F9
:10064000D3F80068405DC007F6D12B2D02D02D2DC8
:1006500018D0641E4A463946204600F0C9F827B132
:100660003968A14201D1C7F8008071054FF002043A
:100670000BD54042002803DD05F036FD0460A007DD
:10068000BDE8F08746F48066E4E70028F8DA05F074
:100690002BFD04606FF00040F2E70029A8BF70470F
:1006A000401C490008BF20F00100704710B4B0FAA8
:1006B00080FC00FA0CF050EA010404BF10BC704743
:1006C00049B1CCF1200421FA04F411FA0CF118BF5D
:1006D000012121430843A3EB0C01CB1D4FEA00612C
:1006E0004FEA102042BF002010BC704700EBC350FF
:1006F00010440029A4BF10BC7047401C490008BF2B
:1007000020F0010010BC704710B5141E73F10004F6
:1007100008DA401C41F1000192185B411A4301D1F3
:1007200020F0010010BD2DE9F04D92469B4611B11D
:10073000B1FA81F202E0B0FA80F220329046FFF77F
:1007400043FF04460F4640EA0A0041EA0B015346C4
:100750005A46084313D0114653EA010019D0C8F194
:1007600040025046FFF73FFF05460E4650465946A9
:100770004246FFF729FF084305D0012004E0204648
:100780003946BDE8F08D0020054346EAE0762C436B
:1007900037430A986305E40AA0EB08000022FD0A2B
:1007A00044EA47540A3002D500200146E9E7010532
:1007B00010196941DDE9084500196941BDE8F04DAE
:1007C000A2E70000064C074D06E0E06840F0010398
:1007D00094E8070098471034AC42F6D3FFF7DAFCF0
:1007E00030B5010850B501080048704754B40108FD
:1007F0002DE9F05F82460078002715468B460AF106
:100800000104B946302801D09DB113E014F8010B62
:100810000127782803D0582801D045B10AE00DB14E
:10082000102D07D10027102514F8010B02E0082530
:1008300000E00A250026B0460EE005FB080005FB97
:1008400006F1012701EB10461FFA80F8B6F5803F4C
:1008500000D3B94614F8010B294600F01BF8002814
:10086000EBDABBF1000F05D00FB1641E00E0544677
:10087000CBF80040B9F1000F06D005F035FC02219D
:100880000160C81E00F003B848EA0640FAE730BC31
:10089000BDE8C09F3A2800D2303820F02002412A1B
:1008A00001D3A2F13700884201D34FF0FF307047E7
:1008B0002DE9F04104460E460025006803F078FF5C
:1008C0000746206803F06CFF074357D02068C168D3
:1008D000890111D5617E01290ED1217E01290BD11B
:1008E0000126274902E08D4239D26D1C0268D243AD
:1008F0005206F8D440210160224D022E0FD020680C
:1009000003F056FF48B120688168C1F3400121B966
:100910008168294041F010018160012E0DD02068CE
:1009200003F03EFF48B120688168C1F3400121B95E
:100930008168294041F020018160022E08D0032EF9
:1009400004D0042501F0DAFA064613E00C25F9E795
:100950000825F7E701F0D2FA801B05280AD9606D57
:1009600040F010006065A06D40F00100A06501201E
:10097000BDE8F081206880682842EBD10020F7E7CD
:10098000000040A3C0FFFF7F70B504460068816887
:10099000C1F3400503F008FF28B325BB2068816838
:1009A00001F00D01012910D18168104A1140891C04
:1009B000816021680320086001F0A0FA05460EE07E
:1009C00001F09CFA401B022809D9606D40F010002C
:1009D0006065A06D40F00100A065012070BD206839
:1009E0008068C007ECD1002070BD0000C0FFFF7F11
:1009F00070B50446006803F0D7FE48BB20688168E4
:100A0000144A114215D18168D6433140491C816096
:100A100001F074FA054616E003F0C6FE20B920681E
:100A200081683140491C816001F068FA401B02284E
:100A300009D9606D40F010006065A06D40F00100C4
:100A4000A065012070BD20680168C943C907E3D1D2
:100A5000002070BD3F00008010B55A213A2000F000
:100A6000D9F90021232000F0D5F9E021242000F05D
:100A7000D1F90021252000F0CDF90821262000F031
:100A8000C9F90221272000F0C5F90221282000F031
:100A9000C1F91021292000F0BDF910212A2000F011
:100AA000B9F904212B2000F0B5F900212D2000F028
:100AB000B1F90021BDE810403A2000F0ABB910B503
:100AC000FFF7CAFF41F2883010F05EFD5A213A204C
:100AD00000F0A0F90021212000F09CF90021222043
:100AE00000F098F900212C2000F094F9E021242056
:100AF00000F090F90321202000F08CF9052100205E
:100B000000F088F90421012000F084F9042102207A
:100B100000F080F90321084600F07CF9032104204D
:100B200000F078F90421052000F074F90221062074
:100B300000F070F90321072000F06CF90321082070
:100B400000F068F90521092000F064F906210A2067
:100B500000F060F907210B2000F05CF904210C2063
:100B600000F058F9FF210D2000F054F9FF210E206C
:100B700000F050F9FF210F2000F04CF90021BDE8F2
:100B800010403A2000F046B9FFF799BF70B50D4606
:100B900004465A213A2000F03DF92146232000F076
:100BA00039F92946242000F035F9BDE870400021CC
:100BB0003A2000F02FB900001FB54FF47A740123DA
:100BC00003A98DE81A000246AF21034801F0F6FAA6
:100BD0009DF80C0004B010BD500D00202DE9F0412F
:100BE0003420FFF7E9FF05463520FFF7E5FF04460F
:100BF000B1232E4A2EA136A005F052FA22462946EC
:100C000037A005F04DFA424E012706F10208DDB18A
:100C1000002425FA04F0C00710D0002010F06AF973
:100C200008EB0400377040787070BC231F4A20A185
:100C300027A005F035FA717836A01DE0641CE4B2F7
:100C4000082CE6D3BDE8F08124B3002524FA05F092
:100C5000C0071AD0102C13D0002010F04BF908EB6D
:100C600005003770407A7070D023104A10A118A088
:100C700005F016FA71782EA0BDE8F04105F010BA23
:100C8000BDE8F04101200AF035BE6D1CEDB2082D23
:100C9000DCD3D7E7D723054A05A10DA005F000FA5C
:100CA000BDE8F04129A005F0FBB900000558010896
:100CB0002E2E5C557365725C447269766572735C46
:100CC0007372635C617074386C31362E630000009F
:100CD0005B25733A202025733A2025645D200000AF
:100CE000415054546F7563684B657956616C7565F6
:100CF000303A25782020415054546F7563684B6515
:100D00007956616C7565313A25780D0A000000004E
:100D1000440000206765745F6375725F6E756D6275
:100D200065722E6E756D6265723A25640D0A00005B
:100D30006765745F6375725F6E756D6265722E6E46
:100D4000756D6265723A2564200D0A006B65792025
:100D5000756E7072657373200D0A000010B55A210C
:100D60003A2000F057F80621212000F053F8002126
:100D7000232000F04FF8E021242000F04BF803215D
:100D8000202000F047F80421002000F043F804215F
:100D9000012000F03FF80421022000F03BF804217C
:100DA000032000F037F80321042000F033F8042179
:100DB000052000F02FF80321062000F02BF8042175
:100DC000072000F027F80321082000F023F8042171
:100DD000092000F01FF804210A2000F01BF804216C
:100DE0000B2000F017F804210C2000F013F8FF216D
:100DF0000D2000F00FF8FF210E2000F00BF8FF216E
:100E00000F2000F007F80021BDE810403A2000F064
:100E100001B80000F3B583B00746012504AE642095
:100E20000096CDE901502B463A46AE210D4801F01F
:100E30007BFA040013D00A200096CDE9015001236B
:100E40003A46AE21074801F06FFA1B23064A07A174
:100E50000EA005F025F9214610A005F021F905B0F6
:100E6000F0BD0000500D0020F45701082E2E5C55F7
:100E70007365725C447269766572735C7372635CED
:100E8000617074386C31362E630000005B25733A54
:100E9000202025733A2025645D2000007772697454
:100EA00065206661696C65642025640D0A00000098
:100EB0000CF064BEFEE770B5002505F1B000C0B2CD
:100EC00005F08EF8102005F08BF8022005F088F868
:100ED0000024002005F096F8641CE4B2802CF8D3BE
:100EE0006D1CEDB2082DE8D370BD704710B54FF4FE
:100EF000806000F021FF4FF4006000F01DFFBDE8AE
:100F000010404FF4805000F017BF042000F014BFD1
:100F1000082000F011BF4FF4007000F00DBF00007A
:100F2000124A107F1249012801D003280BD10B6807
:100F300043F400630B600B6823F400630B600B68E1
:100F400043F400730B60022801D003280BD108681A
:100F500040F480500860086820F4805008600868F9
:100F600040F4806008600020107770472000002067
:100F700000200240C107054803D0416941F0040147
:100F80004161416941F48031416170470020024074
:100F900006494A6960F3CA024A61486940F00200A2
:100FA0004861486940F48030486170470020024041
:100FB000044910B54C6944F001044C61026043607F
:100FC00010BD000000200240074B10B55C694022B4
:100FD00044F480245C6172B608C908C0521E12F045
:100FE000FF02F9D162B610BD0020024070B5044680
:100FF00000F084FF0646174D08E0601C06D000F0A4
:101000007DFF801BA04201D3032070BD2869C0036F
:10101000F3D4296910480140A86900F00040084352
:1010200011D00E494A6802434A60810F04D0A96971
:1010300000F040421143A961810002D020F04040FD
:101040002861012070BD2869C00701D001202861F6
:10105000002070BD00200240FAC3020020000020E2
:101060000D4910B509684FF6FF744FF48012A14284
:1010700001D1134601E00B059B0A03F10063834293
:1010800003D9A0F10060C00A10BDA14201D009053A
:101090008A0A801AF5E70000E075FF1F2DE9F84F76
:1010A00000270446009790F85000DFF8A8930D46FB
:1010B000B846012810D0012684F85060206803F05B
:1010C00077FB58B1606D40F020006065012784F81F
:1010D0005080384600F0D4B90220FBE768680C2342
:1010E000052812D8022807D0032807D0042807D0E3
:1010F000052807D0062007E06B6006E0122003E019
:10110000182001E04FF480706860D5E9002103EAFF
:101110009113206801F01F0118444FF01F0C0CFAC6
:1011200001FC036BC2F3846223EA0C038A4013437D
:101130000363206803F03CFB8246206803F030FB29
:101140005AEA00011DD1AA682968206803F03CFB17
:1011500020686A69C168C1F3C10149008A402969F0
:1011600004290FD000EB81002B68DFF8ECC2016E80
:1011700003F0F84301EA0C011343194341F0004125
:10118000016672E0002103F005FB400320684FF088
:10119000000171D003F0FEFA90FAA0F0B0FA80F1ED
:1011A000286842036DD090FAA0F0B0FA80F0814236
:1011B00004D100221146206803F015FB01212068AC
:1011C00003F0E8FA400320684FF001015CD003F01F
:1011D000E1FA90FAA0F0B0FA80F12868420358D002
:1011E00090FAA0F0B0FA80F0814204D100220121EF
:1011F000206803F0F8FA0221206803F0CBFA4003DC
:1012000020684FF0020147D003F0C4FA90FAA0F032
:10121000B0FA80F12868420343D090FAA0F0B0FA07
:1012200080F0814204D100220221206803F0DBFA21
:101230000321206803F0AEFA400320684FF0030159
:1012400032D003F0A7FA90FAA0F0B0FA80F1286843
:1012500042032ED090FAA0F0B0FA80F0814204D17F
:1012600000220321206803F0BEFA206803F09CFAF4
:1012700010B3AAE000E004E003F08CFAC0F384614C
:101280008EE7C0F3846092E703F084FAC0F38461D0
:10129000A3E7C0F38460A7E703F07CFAC0F384619E
:1012A000B8E7C0F38460BCE703F074FAC0F384616C
:1012B000CDE7C0F38460D1E721682A7B286851F824
:1012C000B03FC0F3120C23EA0C0302F0180C634A7F
:1012D00022FA0CF2024013430B60E968494574D1CD
:1012E000286841031AD090FAA0F1B1FA81F1491CA3
:1012F00001F01F0109294FEA403130D8002910D0F0
:1013000090FAA0F1B1FA81F101F1010101F01F01A0
:1013100006FA01F608D1C0F3846109E0C0F38461E4
:10132000E5E7C0F38461EFE790FAA0F1B1FA81F14B
:1013300001F1010101F01F0146EA816102D1C0F310
:10134000846003E090FAA0F0B0FA80F000F10100B0
:1013500000F01F0000EB400041EA005131E000299D
:101360000DD090FAA0F1B1FA81F101F1010101F083
:101370001F0106FA01F605D1C0F3846106E0C0F34F
:101380008461F2E790FAA0F1B1FA81F101F1010173
:1013900001F01F0146EA816102D1C0F3846003E0DD
:1013A00090FAA0F0B0FA80F000F1010000F01F0008
:1013B0002B4A00EB400002EB005041EA000141F0F3
:1013C0000071AA68206803F0FFF9264829680142E5
:1013D0003FF47DAE244A9068244D254B00F0E07028
:1013E000A9421AD1050218D4216899427FF46FAE40
:1013F000916840F4000021F0E071014391601D48C4
:101400001D490068B0FBF1F000EB4000800000E0F7
:10141000401E00900028FBD159E6184DA94207D183
:10142000C50105D421689942F6D140F080700AE0E8
:101430006FF00045E942EFD14102EDD421689942B5
:10144000EAD140F48000916821F0E071014391609D
:101450003DE6000000007F4000F0FF03FFFF0700B3
:10146000000020FE0000088000030450000052C766
:101470000000045040000020400D0300000084CB19
:1014800018BCBDE8E08F406D70470068006C704785
:10149000F8B54FF0000504002E46009502D0606DAF
:1014A00010B107E00120F8BD204600F0C5F8A665A0
:1014B00084F8506020688168C1F3407119B1816877
:1014C000554A1140816020688168C1F3007179B983
:1014D0008168524A114041F0805181605048514921
:1014E0000068B0FBF1F000E0401E00900028FBD146
:1014F00020688168C1F3007141B9616D41F010014C
:101500006165A16D41F00101A165012503F050F96C
:10151000616DC90600D430B1606D40F010006065A7
:1015200001252846F8BD606D20F4807040F002006F
:101530006065206803F038F958B93B488068C0F30B
:10154000000030B9394960688A6822F47C1202438D
:101550008A60E168606B627E0843A16841EA4231BB
:10156000084394F8201040EA0140012904D1A18CDD
:101570002F4A02EB41410843A16A29B101F470717D
:10158000E26A014342EA01002168CA68294B1A4015
:101590000243CA60206803F00BF90646206803F096
:1015A000FFF8064315D1207E94F83010800340EAFE
:1015B00041012068C26844F202039A430A43C260B0
:1015C00094F8380001280CD02068016921F001014D
:1015D0000161206901282068016B21F00F0110D002
:1015E00012E0D4E90F100143D4E911021043014382
:1015F0002068026940F2FC739A43114341F00101F3
:10160000E6E7E269521E11430163606D20F00200BB
:1016100040F00100606584E7C0FFFF5FC0FFFF7F0F
:1016200040000020400D030000000450000304505F
:101630000000FEFF07C0F0FF00B500680C4987B04E
:10164000884212D10B48C16C41F40051C164C06C96
:10165000694600F400500590082000900B2001908E
:1016600000200290044800F073FB07B000BD0000AA
:101670000000045000100240000800482DE9F0412D
:10168000044640690D4608280AD02068C068C00793
:1016900008D0606D40F0200060650120BDE8F08159
:1016A000082600E0042600F029FC074607E0681C35
:1016B00005D000F023FCC01BA8420FD875B12068EC
:1016C00000683042F3D0606D40F4007060652068BF
:1016D00003F072F8D0B1607E48B117E0606D40F061
:1016E00004006065002084F850000320D6E72068DD
:1016F000006800070AD5606D20F480706065606D39
:10170000C00403D4606D40F0010060652068C168CA
:10171000082E05D0490401D40C2101600020BDE74A
:101720000821FAE710B50446006803F041F898BBB9
:1017300094F85000012830D0012084F85000204651
:10174000FFF756F9002110B184F8501010BD626DFA
:1017500040F601639A4342F480726265626DD2047E
:1017600004D5A26D22F00602A26500E0A1652368FF
:101770001C221A6084F850102168CA68920105D5AD
:10178000626D22F4005242F4805262658A68044B12
:101790001A40121D8A6010BDFFE70220FBE700001F
:1017A000C0FFFF7F10B5044690F85000012808D014
:1017B000012084F8500003212046FFF779F810B18A
:1017C0000BE0022010BD2046FFF7DEF828B9616D5E
:1017D00021F4885141F001016165002184F8501025
:1017E00010BD10B590F825100024022903D0042163
:1017F000C16301241AE001680A6822F00E020A603F
:1018000001680A6822F001020A6090F8441001237E
:1018100001F01C0203FA02F1026C516080F82530DD
:10182000002180F82410816B01B18847204610BD4B
:101830002DE9F05F044634488946017801290CD02F
:101840000125804605704CF2503B5846FFF7CEFB11
:1018500006004FF0000A03D052E0022000F058B812
:1018600051464046C8F804A0284F3A6892050ED564
:10187000396821F4007139603968490505D539683E
:1018800021F480613960032109E0057708E03A68B6
:10189000520504D5396821F480613960022101774D
:1018A0002068012807D04FF0FF31C9F8001040F23E
:1018B000FA7BA5681DE06068FFF75CFB5846FFF700
:1018C00095FB0646786920F00400786116E028460A
:1018D0006168FFF75DFB4CF25030FFF787FB0600B5
:1018E000786920EA0B00786102D0C9F8005005E061
:1018F0006D1CD4E902010844A842E8D8FFF710FBA8
:1019000088F800A03046A9E720000020002002400F
:1019100030BCBDE8C09F00000348416941F0004170
:101920004161002070470000002002402DE9FF5F68
:10193000254F05460024387891469B46012809D05A
:10194000012038704CF25030FFF750FB0600A246E1
:1019500004D035E0022004B000F03AB85046C7F891
:1019600004A0DFF86880D8F80010490506D5D8F83B
:10197000001021F48061C8F800100220387725B1EA
:10198000012D09D0022D07D00DE04A465B46019893
:10199000FFF70EFB012406E049460198FFF714FB10
:1019A000022D00D16C044CF25030FFF71FFB0646AD
:1019B00024B1D8F81410A143C8F81410FFF7B0FAF6
:1019C00087F800A03046C6E7200000200020024033
:1019D00030BCBDE8C09F0000064900204A69002ACB
:1019E00007DA054A8A60054A8A604969002900DAEF
:1019F000012070470020024023016745AB89EFCDED
:101A00002DE9F04F00224FF0010A4FF00F08DFF8E8
:101A1000C8B05CE00AFA02F515EA010356D0066880
:101A200057000324BC4026430660D60800EB860618
:101A3000D6F820C057074FEAD76908FA09F72CEA09
:101A4000070CC6F820C08668A64386604668AE4389
:101A50004660C568A543C56022F003055D44AC68D7
:101A60009607370F08FA07F606EA040CB0F1904F14
:101A700004D01A4CA04203D1012411E000240FE04D
:101A8000174CA04201D102240AE0164CA04201D119
:101A9000032405E0144CA04201D1042400E00724F3
:101AA000BC40644512D1AC68B443AC600F4C2568AF
:101AB0009D432560241D25689D432560241D2568C0
:101AC0009D432560241D25689D432560521C31FAE5
:101AD00002F39FD100F00CB8000001400004004860
:101AE00000080048000C00480010004800040140B5
:101AF00030BCBDE8C08F000070B5494E05460524D6
:101B0000307920B100203071284603F0DBFC042D31
:101B100026D0082D4AD0102D4CD0B5F5007F52D0DC
:101B20004FF48064A54260D0B5F5006F5DD0B5F587
:101B3000805F59D17078002856D13A480068007A01
:101B40000FF0D8F94FF4E873374A38A13BA004F0FE
:101B5000A7FA3EA004F0A4FABDE8704004F096BFD6
:101B600040F28D13304A31A134A004F099FA42A01A
:101B700004F096FA4B4D4C4E28460FF005FD641EBE
:101B8000E4B20421304600F0AEF960B1002C2BD154
:101B900008F04CFD40F29513234A24A127A004F03D
:101BA0007FFA42A038E0002CE6D1F1E7BDE87040B2
:101BB000FFF714B840F29F131B4A1CA11FA004F0AA
:101BC0006FFA45A028E040F2BD13174A17A11BA0E9
:101BD00004F066FA4BA004F063FA012030700AF0BA
:101BE000F5F805200FF086F970BD4FF4E4730E4A46
:101BF0000EA112A004F054FA2146494800F073F9EE
:101C0000014648A004F04CFA40F2C913064A07A165
:101C10000AA004F045FA45A0BDE8704004F040BABF
:101C20000000002090000020775701082E2E2F532F
:101C300072632F6D61696E2E630000005B25733A3D
:101C4000202025733A2025645D20000020232323D3
:101C50002323232323232323232323232323232057
:101C6000646574656374204E464320697320636F16
:101C70006D696E67200D0A0020232323232323236D
:101C80002323232323232323232020524553544F4C
:101C9000524520696E746572727570742E2E2E20F6
:101CA0000D0A000040420F00000C004820232323AF
:101CB00023232323232323232323232323202072AB
:101CC0006573746F726520666163746F72792E2E0E
:101CD0002E200D0A0000000020232323232323238A
:101CE000232323232323232323232320707279698F
:101CF0006E6720746865206C6F636B2E2E2E200D2E
:101D00000A0000006465746563742066696E676527
:101D100072206973207072657373200D0A000000D1
:101D2000000400482564200D0A0000002065787436
:101D3000692E2E2E200D0A00044910B50A680242B1
:101D400002D00860FFF7D8FE10BD00001404014067
:101D50002DE9F84FDFF86C91002209F1040A0AF12D
:101D6000040B4FF00F080BF1040EA3E00126964080
:101D7000334070D04C68022C01D0122C11D1D40801
:101D800000EB84073D6A5407E40E08FA04FC25EAD8
:101D90000C05D1F810C00CFA04FC4CEA050CC7F88D
:101DA00020C007685400032591F804C0A5400CF03A
:101DB000030CAF430CFA04FC4CEA070CC0F800C05B
:101DC0004F68012F05D0022F03D0112F01D0122F01
:101DD00011D18768D1F80CC0AF430CFA04FC4CEA6F
:101DE000070CC0F808C04768B7430E79C6F3001661
:101DF00096403E434660C668AE438D68A540354375
:101E0000C5604C68E40054D52F4C256E45F00105A3
:101E10002566246E22F0030504F0010400942B4C87
:101E20002E19B7689407250F08FA05F4A743B0F1F7
:101E3000904F04D0264CA04203D1012412E000248C
:101E400010E0244CA04201D102240BE0224CA0421D
:101E500002D1032406E02CE0204CA04201D104244E
:101E600000E00724AC403C43B460D9F800404D4644
:101E70004E689C43F60300D51C432C60DAF8004002
:101E800055464E689C43B60300D51C432C60DBF8D6
:101E900000405D464E689C43F60200D51C432C6012
:101EA000DEF8004075464E689C43B60200D51C43E0
:101EB0002C60521C0B6833FA02F47FF457AF00F029
:101EC0000FB8000000040140001002400000014073
:101ED0000004004800080048000C004800100048BA
:101EE00018BCBDE8E08F0069084000D001207047B1
:101EF0000AB1816170478162704700000148006843
:101F0000704700001C00002090F84120202A24D1B6
:101F100090F84020012A20D0012280F8402024227D
:101F200080F841200268136823F0010313600268FF
:101F3000136823F480531360026813680B43136023
:101F400001680A6842F001020A60202180F841100D
:101F5000002180F84010084670470220704790F832
:101F60004120202A22D190F84020012A1ED00122AF
:101F700080F84020242280F841200268136823F072
:101F8000010313600268136823F4706343EA0121BC
:101F9000116001680A6842F001020A60202180F89D
:101FA0004110002180F84010084670470220704719
:101FB000074908B50A6E42F001020A66096E01F08F
:101FC0000101009103494A6802434A6008BD0000CC
:101FD000001002400000014070B5040004D094F8E5
:101FE0004100002510B106E0012070BD84F840508A
:101FF000204600F06BFA242084F841002068016834
:1020000021F0010101606068216820F070600861C2
:102010002068816821F400418160E0680128A0689F
:1020200007D040F4044021688860E068022803D0AB
:1020300006E040F40040F6E721684FF40060486095
:1020400020684168114A114341602068C16821F449
:102050000041C160D4E904010843A16940EA0120BC
:102060002168C860D4E90701084321680860206836
:10207000016841F0010101606564202084F841009D
:10208000256384F84250002070BD000000800002EB
:102090002DE9F84F044690F84100DDF828A01F46CE
:1020A00090468B4620287ED194F8400001287AD0B3
:1020B000012084F84000FFF721FF0646012200902E
:1020C0001923D103204602F0EBFAE0BB212084F86B
:1020D0004100102084F8420000256564C4F8248083
:1020E00067856563618D3148FF274FF080784FF039
:1020F0000079FF2903D927853A46009039E0618DA0
:10210000218500903AE05946204602F0B3FA13E0E8
:1021100002F018FBB8B9606A216800788862606ACA
:10212000401C6062608D401E6085208D401E80B224
:102130002085618D01B168B1608D3246002851461D
:102140002046E5D100E002E002F0D6FAD0B101204D
:1021500000F030B85346002280212046009602F05D
:102160009FFA0028F3D1608DFF2804D927853A46CD
:1021700000954346C7E7608D2085009594F8282098
:102180004B46C0E720682021C16120684268084BA7
:102190001A40426084F8411084F8425084F840505C
:1021A0000020D5E7FFE70220D2E7000000200080F2
:1021B00000E800FE18BCBDE8E08F00002DE9FF4FED
:1021C00083B00446DDE9108790F84100DDF84890BF
:1021D0009A469346202874D15FEA080014D09FB134
:1021E00094F8400001286CD0012084F84000FFF7EB
:1021F00085FE0546012200901923D103204602F0F6
:102200004FFA002871D103E04FF4007060646CE075
:10221000222084F84100402084F8420000266664B1
:10222000C4F8248067856663CDE9009553465A4615
:102230002046049902F0BAF910B184F8406054E0E5
:10224000618D3548FF274FF080784FF0007AFF29E5
:1022500004D927853A464346009005E0618D2185E3
:10226000009094F8282053462046049902F002FA80
:102270004B46002204212046009502F011FAA0BB33
:102280002068406A616A0870606A401C6062208D44
:10229000401E80B22085618D491E6185618DD9B156
:1022A000D0B94B46002280212046009502F0F8F973
:1022B000D8B9608DFF2805D927853A464346009650
:1022C00006E026E0608D2085009694F8282053468D
:1022D0002046049902F0CEF9608D0028C8D12A4624
:1022E0004946204602F008FA18B1012007B000F074
:1022F00017B820682021C16120684268074B1A4046
:10230000426084F8411084F8426084F84060002004
:10231000ECE70220EAE700000024008000E800FE6D
:1023200030BCBDE8C08F00002DE9FF4F83B00446EC
:10233000DDE9108790F84100DDF848909A46934611
:10234000202871D15FEA080014D09FB194F84000B2
:10235000012869D0012084F84000FFF7CFFD064630
:10236000012200901923D103204602F099F9002898
:102370006ED103E04FF40070606469E0212084F8BE
:102380004100402084F8420000256564C4F82480A0
:1023900067856563CDE9009653465A462046049901
:1023A00002F036F910B184F8405051E0608DFF27FB
:1023B0004FF080784FF0007AFF2804D927853A46FD
:1023C0004346009505E0608D2085009594F828200F
:1023D00053462046049902F04DF9324649462046BC
:1023E00002F0B0F9A0BB606A216800788862606A78
:1023F000401C6062608D401E6085208D401E80B252
:102400002085618DD9B1D0B94B460022802120466C
:10241000009602F045F9D8B9608DFF2805D92785C7
:102420003A464346009506E026E0608D20850095FB
:1024300094F8282053462046049902F01BF9608D39
:102440000028CAD132464946204602F055F918B153
:10245000012007B000F014B820682021C161206875
:102460004268064B1A40426084F8411084F842509A
:1024700084F840500020ECE70220EAE700E800FE84
:1024800030BCBDE8C08F000000680C4A0C49904287
:1024900008D1886D20F4001088654FF4C0614FF0BA
:1024A000904008E0074A904207D1886D20F4000070
:1024B000886503210448FFF7A3BA70470054004021
:1024C00000100240005C00400008004870B5006841
:1024D000174E1222012303210425164C86B0B04268
:1024E00011D14802CDE90231CDE9000204956946D7
:1024F0009006FFF72DFCA06D40F40010A065A06DC4
:1025000000F4001011E00C4EB0420FD18DE80E0027
:10251000CDE9031569460948FFF71AFCA06D40F4A0
:102520000000A065A06D00F40000059006B070BD2D
:102530000054004000100240005C004000080048C9
:1025400070B5040011D021684CF6CC4008602168B9
:1025500045F255500860D4E9000141602168A06847
:102560008860FFF7CBFC054608E0012070BDFFF74F
:10257000C5FC401B302801D9032070BD2068C0680D
:102580000028F4D120680269E1688A4201D0016123
:1025900002E04AF6AA210160002070BD00684AF6F8
:1025A000AA2101600020704702480168491C0160AF
:1025B000704700001C00002010B50024032000F02C
:1025C00099F8002000F008F808B1012401E000F0BB
:1025D0001BF8204610BD000070B5054609484FF4B1
:1025E0007A7100240068B0FBF1F001F0ACFA08B198
:1025F000012404E000222946501E00F05BF820462A
:1026000070BD0000400000201E4808B5016E41F07A
:1026100001010166016E01F001010091816D41F03F
:1026200080518165806D00F080500090032000F0A3
:1026300061F8002211466FF00B0000F03BF8002219
:1026400011466FF00A0000F035F8002211466FF0D5
:10265000090000F02FF800221146501F00F02AF860
:1026600000221146101F00F025F800221146901E8E
:1026700000F020F80022BDE808401146501E00F08E
:1026800019B800000010024000F01F020121914023
:102690004009800000F1E020C0F88011704700F090
:1026A0001F02012191404009800000F1E020C0F8A4
:1026B00000117047F0B40E4B1B68C3F30223C3F143
:1026C0000704042C00D904241D1D072D01D200236A
:1026D00000E0DB1E012606FA04F56D1E0D409D404C
:1026E0009E40761E164045EA0601F0BC02F006BC8C
:1026F0000CED00E0064A00F0070110684FF6FF03FA
:10270000184040EA01200349084310607047000068
:102710000CED00E00000FA051649B0F5007F0868EE
:10272000C0F3412009D0022805D0086820F4C06019
:1027300040F480600860002070470128FBD00868E2
:1027400020F4C06040F4007008600B48322200683A
:1027500050430A4AB0FBF2F0401C00E0401E4A69B8
:10276000520501D50028F9D148694005E3D5032079
:1027700070470000007000404000002040420F0001
:102780000B490A6822F00702921C0A6009490A688C
:1027900042F004020A60012807D040BF20BF20BFDA
:1027A000086820F004000860704730BFF8E70000B8
:1027B0000070004010ED00E00248006800F4C060C6
:1027C00070470000007000400248016841F48071C9
:1027D00001607047007000400248016841F0040148
:1027E00001607047001002402DE9F84F04460025B3
:1027F0000088A64E2F46000515D5606C60B1B0F577
:10280000000F04D0B0F5400F2BD001250AE0F0688E
:1028100040F48030F06024E00021201D02F080FBB5
:1028200005001ED02F462068800365D5B06D4FF09F
:102830000009C00009D4B06D40F08050B065B06DA3
:102840004FF0010900F080500090DFF844A2DAF860
:10285000001041F48071CAF80010FFF74FFB80466A
:1028600010E0D6F88800616C20F440000843C6F8F8
:102870008800D8E7FFF742FBA0EB0800022801D947
:10288000032531E0DAF80000C005F3D565BBD6F8C2
:10289000900010F4407014D0A16D814211D0D6F890
:1028A0009000D6F8901020F4407041F48031C6F8C2
:1028B0009010D6F8901021F48031C6F89010C6F828
:1028C0009000C0074ED0FFF719FB804641F2883ACE
:1028D00005E0FFF713FBA0EB08015145D0D8D6F86F
:1028E00090008007F5D5EDB32F46B9F1000F03D066
:1028F000B06D20F08050B0652078C00707D0D6F8C2
:102900008800216A20F003000843C6F88800207878
:10291000800707D5D6F88800616A20F00C000843CC
:10292000C6F888002078400707D5D6F88800A16A45
:1029300020F030000843C6F888002078800607D5CC
:10294000D6F88800E16A20F440600843C6F88800A1
:102950002088800509D5D6F88800E16B20F4402056
:10296000084300E044E0C6F888002088400507D509
:10297000D6F88800216C20F440100843C6F888007F
:102980002078400607D5D6F88800216B20F4405007
:102990000843C6F888002078000607D5D6F88800D6
:1029A000616B20F440400843C6F888002088C005C9
:1029B00007D5D6F88800A16B20F440300843C6F84C
:1029C000880020684FF0006500034FF0806820D534
:1029D000D6F88800A16C20F040600843C6F8880053
:1029E000A06CA8420DD1F06840F48010F06010E0B7
:1029F000D6F89000A16D20F440700843C6F890000E
:102A000073E7404505D10121201D02F089FA00B18C
:102A100007462068400317D5D6F88800E16C20F0FF
:102A200040600843C6F88800E06CA84204D1F06812
:102A300040F48010F06007E0404505D10121201DE1
:102A400002F06EFA00B107462088400411D5D6F88E
:102A50008800216D20F040500843C6F88800206DA2
:102A6000B0F1805F05D10221201D02F059FA00B1BA
:102A700007462088000406D556F8880F616D20F0BF
:102A8000804008433060384600F004B8001002402F
:102A90000070004018BCBDE8E08F00002DE9F04751
:102AA0000D4604005ED0DFF80881D8F8000000F081
:102AB0000700A8420CD2D8F8001021F007012943E2
:102AC000C8F80010D8F8000000F00700A84249D16B
:102AD0002078384EC0072BD06068032811D0022818
:102AE00012D0316898B1490500293BDAB16821F06C
:102AF00003010143B160FFF701FA074641F288394B
:102B00000FE031688901EFE731688903ECE7890755
:102B1000EAE7FFF7F3F9C11B494502D90320BDE8F5
:102B2000F087B068616800F00C00B0EB810FF0D165
:102B30002078800705D5B068A16820F0F000084330
:102B4000B060D8F80010404601F00701A9420BD947
:102B5000016821F0070129430160006800F00700C7
:102B6000A84201D00120DAE72078400705D5B068F7
:102B7000E16820F4E0600843B0602078000706D5E3
:102B8000B068216920F4605040EAC100B06000F0F4
:102B9000D3F8B168084AC1F30311515C01F01F0179
:102BA000C84006490860BDE8F0470020FFF714BDA3
:102BB0000020024000100240AC57010840000020F5
:102BC0000F2202600C4A936803F00303436093688A
:102BD00003F0F0038360936803F4E063C3609268DA
:102BE0004FF4E06303EAD20202610448006800F097
:102BF00007000860704700000010024000200240FB
:102C000001480068704700004000002010B53F21D7
:102C1000016036490A6853034FF0000202D54FF4B1
:102C2000A02304E00B68DB0303D54FF4803343603B
:102C300000E042600B68DC074FF0010301D08361C4
:102C400000E082614C68C4F30724C4610C6804F09E
:102C5000F00404620C68E40503D54FF48074C4608A
:102C600000E0C2604C68C4F304640461D1F8904091
:102C7000640702D50524846006E0D1F89040E4079B
:102C800001D0836000E08260D1F89440E40701D075
:102C9000436100E04261D1F89840E40701D043620B
:102CA00000E042620A68D20102D50222826200E09C
:102CB0008362CA6802F00302C262CA68C2F30212E7
:102CC000521C0263CA68C2F306224263CA68C2F396
:102CD0004152521C5200C263CA68C2F34162521C84
:102CE00052000264C968C90E816310BD0010024021
:102CF0000548064900688968054AC1F30221515C0C
:102D000001F01F01C8407047400000200010024041
:102D1000EC5701080548064900688968054AC1F36F
:102D2000C221515C01F01F01C840704740000020E3
:102D300000100240EC57010870B5264B00221046E7
:102D40009968DC6811F00C0104F00306224C4FEA8C
:102D5000640508D00C2904D0042925D0082925D0E1
:102D600010E0012E10D11A68120704D4D3F8942071
:102D7000C2F3032202E01A68C2F30312174E56F898
:102D8000222079B10C290ED1D86800F00301D8684F
:102D9000C0F30210401C02290AD003290BD0B2FB59
:102DA000F0F00AE0104670BD204670BD284670BDA8
:102DB000B4FBF0F001E0B5FBF0F0D968C1F30621F7
:102DC0004843D968C1F34161491C4900B0FBF1F0A7
:102DD00070BD0000001002400024F400BC57010840
:102DE0002DE9F84304007CD0FB4DA86800F00C06E8
:102DF000E86800F003072078C00662D576B10C2E93
:102E000001D1012F0AD0A0690028286878D040F0AD
:102E100001002860FFF772F8804659E028688007B3
:102E200002D5A0690028DED0216A2868000703D5F2
:102E3000286800F0F00004E0D5F89400F02202EADF
:102E40001010814216D9084602F0FEF8002848D139
:102E5000286840F0080028602868216A20F0F00007
:102E6000084328606868E16920F47F4040EA012057
:102E7000686015E0286840F0080028602868216A2A
:102E800020F0F000084328606868E16920F47F4082
:102E900040EA01206860206A02F0D6F80028D6D106
:102EA000FFF74AFFA968CD4AC1F30311515C01F055
:102EB0001F01C840CA4908600020FFF78DFB0028A9
:102EC0007ED12DE0FFF71AF8A0EB0800022878D891
:102ED00028688007F6D5286840F008002860286830
:102EE00001E0B8E00CE0216A20F0F000084328601F
:102EF0006868E16920F47F4040EA012068600FE0E3
:102F000020F001002860FEF7F9FF804605E0FEF79B
:102F1000F5FFA0EB08000228D9D828688007F6D46E
:102F20002078C00740D0082E18D00C2E01D1032FD6
:102F300014D06068B0F5803F17D0B0F5A02F286896
:102F400017D020F480302860286820F48020286082
:102F50006068E0B1FEF7D2FF804614E02868800385
:102F600022D56068002876D01EE0286840F48030C2
:102F7000EDE740F480202860F7E7FEF7BFFFA0EB05
:102F800008006428A3D828688003F6D50CE0FEF773
:102F9000B5FF804605E0FEF7B1FFA0EB080064280E
:102FA00095D828688003F6D42078800739D5042E78
:102FB00011D00C2E01D1022F0DD0E068002801E0C5
:102FC00057E1B3E028681DD040F480702860FEF718
:102FD00095FF07460BE0286840050BD5E068002800
:102FE000C1D007E0FEF78AFFC01B022894D82868EA
:102FF0004005F7D56868217C20F0F85040EA016070
:1030000068600EE020F480702860FEF777FF0746C6
:1030100004E0FEF773FFC01B0228B3D82868400500
:10302000F7D42078000728D560690028D5F89400E7
:1030300012D040F00100C5F89400FEF75FFF07468C
:1030400004E0FEF75BFFC01B02286FD8D5F89400A0
:103050008007F6D511E013E120F00100C5F89400D7
:10306000FEF74CFF074604E0FEF748FFC01B0228AE
:103070005CD8D5F894008007F6D42078400766D550
:10308000A86D4FF00008C00009D4A86D40F0805032
:10309000A865A86D4FF0010800F0805000905148DD
:1030A0000168C90511D40168814641F4807101604D
:1030B000FEF724FF074604E0FEF720FFC01B0228AE
:1030C00034D8D9F80000C005F6D5A068012815D07D
:1030D0000528D5F8900016D020F00100C5F8900022
:1030E000D5F8900020F00400C5F89000A06841F2E7
:1030F0008839B8B1FEF702FF07460EE0D5F8900018
:1031000040F00100F0E740F00400C5F89000F5E75A
:10311000FEF7F4FEC11B494508D8D5F8900080079A
:10312000F6D50DE0FEF7EAFE074605E082E0FEF781
:10313000E5FEC11B49457DD8D5F890008007F6D43F
:10314000B8F1000F03D0A86D20F08050A86520785A
:10315000800627D5606A0028D5F8980011D040F085
:103160000100C5F89800FEF7C9FE074604E0FEF727
:10317000C5FEC01B02287BD8D5F898008007F6D57D
:1031800010E020F00100C5F89800FEF7B7FE0746F2
:1031900004E0FEF7B3FEC01B022869D8D5F89800FA
:1031A0008007F6D4A06AB0B10C2E69D00228286836
:1031B00020F08070286019D02868000103D4E868E6
:1031C00020F00300E860E86807490840E860FEF77F
:1031D00095FE04464FE051E000100240AC57010854
:1031E0004000002000700040FFFFEEFEFEF786FE6C
:1031F000064604E0FEF782FE801B022838D82868C5
:103200008001F7D4206B54F82C1F000110380843BC
:10321000218A1C4A490802EB4151A26841EA022175
:103220000843217D4FF07E42490802EB416108438B
:10323000217B00E01CE040EAC160E860286840F0C3
:1032400080702860E86840F08070E860FEF756FE05
:10325000044604E0FEF752FE001B022808D8286846
:103260008001F7D50AE0FEF749FE001B022802D9CB
:103270000320BDE8F88328688001F4D40020F8E733
:103280000120F6E70000E0FF10B500680B4641683A
:103290000D480140080CD870C1F304245C7001F0A3
:1032A0003F049C70C1F34231197052B901F05EFFC6
:1032B000D870587801F05AFF5870987801F056FF8E
:1032C0009870002010BD00003FFFFF0010B50B46B6
:1032D0000168896A596001680969C1F30E01996042
:1032E000006801680D480140C1F305401870C1F342
:1032F00006245C7001F07F049C70890DD97052B96E
:1033000001F034FF1870587801F030FF5870987849
:1033100001F02CFF9870002010BD00007F7F7F001F
:103320002DE9F04104004FF0010553D094F821003D
:10333000002528B9002084F82000204600F050F82D
:10334000022084F821002168CA20486221685320A5
:103350004862204601F01EFFFF26042718BB2068A4
:1033600081681E4A11408160206881686268A36993
:10337000114322691A43114381602168E0680861A2
:1033800020680169228941EA024101612068C1681F
:1033900021F08001C16020688068800609D4204641
:1033A00000F0E8F928B12068466284F82170012510
:1033B00010E02068C16C21F00301C164E16960691B
:1033C00001432068C26C1143C16420684662012039
:1033D00084F821002846BDE8F0810000BFFF8FFF80
:1033E00000680549884205D1044850F8901F41F40F
:1033F00000410160704700000028004000100240BA
:103400002DE9F05F044690F820000B46012849D0D2
:103410004FF0010A84F820A0022084F821002068DF
:10342000002680684FEA4060DAB3002857DA18783F
:1034300001F09CFE93F8200001F098FE987819782E
:10344000DA7840EA01405978090241EA825108439A
:1034500093F8201040EA0165D8695F680543586910
:103460002168054398690743CA20486221685320B0
:103470004862586A4FF0FF09B0F5807F20684FF42A
:103480007A7B81682DD021F4007181602068C16849
:1034900001F0800161F42071C160FEF72FFD8046CC
:1034A00054E002E0022000F079B8002800DBDE7072
:1034B000187801F064FE0204587801F060FE42EAD8
:1034C0000022987801F05BFE0243D87842EA8052ED
:1034D00093F8200001F053FE42EA0065BCE7DE707D
:1034E000A8E721F4807181602068C16801F0800143
:1034F00061F4C071C160FEF701FD804605E0FEF792
:10350000FDFCA0EB0800584517D82068C068C0072C
:10351000F5D02068C561206847642068816841F45F
:10352000807181602068816841F480511FE0FEF75E
:10353000E5FCA0EB0800584508D92168C1F82490A3
:10354000032084F8210084F82060ACE72068C0687C
:103550008007ECD520680562206887642068816850
:1035600041F4007181602068816841F400518160FC
:103570000948016841F4802101600748083001686A
:1035800041F4802101602168C1F8249084F821A0D1
:1035900084F82060002086E70004014030BCBDE8CC
:1035A000C09F00002DE9F047044690F820000B462C
:1035B000012820D04FF0010984F82090022084F8DF
:1035C0002100DAB19878D97840EA0145587819781D
:1035D000000240EA413005432168CA204862216860
:1035E00053204862204601F0D5FD0026FF274FF00A
:1035F000040860BB1AE00220BDE8F0875878C106D5
:1036000003D500F0EF000A305870D87801F0B7FD0C
:103610000204587801F0B3FD42EA0022987801F0E4
:10362000AEFD0243187842EA4035D5E71048054020
:10363000206845602068C16821F08001C160206871
:10364000806880060BD4204600F094F838B12068DA
:10365000476284F8218084F820600120CCE720684C
:10366000476284F8219084F820600020C4E70000BD
:103670003FFFFF002DE9F047044690F820009246F6
:103680000D46012815D04FF0010884F82080022053
:1036900084F821002168CA204862216853204862CA
:1036A000204601F077FDFF274FF004090026E8BB14
:1036B00002E00220BDE8F0872068BAF1000F8068C0
:1036C0004FEA406005D0002817DA287801F04EFD57
:1036D00014E0002800DBEE70287801F050FD0204B1
:1036E000687801F04CFD42EA0022A87801F047FD1D
:1036F0000243E87842EA80500AE0EE70A878297820
:10370000EA7840EA01406978090241EA82510843B7
:1037100017490840216808602068816821F48021E9
:103720008160D5E903100143206800E00FE0826862
:10373000114381602068C16821F08001C160206868
:10374000806880060BD4204600F014F838B1206859
:10375000476284F8219084F820600120AAE720685D
:10376000476284F8218084F820600020A2E70000EE
:103770007F7F7F0070B505460068C16821F0A00119
:10378000C160FEF7BBFB04464FF47A7606E0FEF715
:10379000B5FB001BB04201D9032070BD2868C0688A
:1037A0008006F4D5002070BD2DE9F041040005D05D
:1037B0000025A56294F85D0018B107E00120BDE87E
:1037C000F08184F85C50204600F05AF8022684F814
:1037D0005D602068016821F040010160E0684FF4FD
:1037E000E062904201D9002101E04FF48051B0F530
:1037F000706F02D0904200D0A562276B012327B9D9
:10380000904201D9266300E02363D4E9010210430A
:10381000D4E9042632431043228B02F40072104391
:10382000E2691043226A1043A26A104322681060C2
:10383000626B606AA66910430427E26807EA1646CD
:1038400032431043084321684860256684F85D30A0
:103850000020B4E700680749884209D10648816D15
:1038600021F4804181654FF460410448FEF7C8B8F7
:10387000704700000038004000100240000400487B
:1038800000B500680E4987B0884217D10D48816D98
:1038900041F480418165806D694600F48040059067
:1038A0004FF460400090022001900020029003201D
:1038B0000390052004900448FEF74AFA07B000BDC3
:1038C0000038004000100240000400482DE9F05F7D
:1038D000044690F85C0001250A9E1F4692468B46DE
:1038E0004FF0000801280ED0012084F85C00FEF79C
:1038F00005FB814694F85D00616801280CD0B1F5A4
:10390000827F07D102E0022000F00DB9A16809B959
:10391000042801D0022004E1BBF1000F24D0BAF149
:10392000000F21D007B394F85D00042802D00520D1
:1039300084F85D0000202066C4F840A0A4F846701A
:10394000A4F84470C4F838B0E787A787E06420651E
:10395000E0684FF4E061884201D8012F06D9206861
:10396000426822F4805205E00120DAE020684268D3
:1039700042F48052426020680268520603D4026812
:1039800042F040020260E0688842606842D908B1B3
:10399000012F37D1A06B21680088C860A06B801C04
:1039A000A063E08F401EE0872CE0206881688907D3
:1039B0000DD5E18F59B1012D09D1A16B0988C160E5
:1039C000A06B801CA063E08F401EE087002520686C
:1039D0008168C9070ED0B4F8461059B1C068216C8F
:1039E0000880206C801C2064B4F84600401EA4F8B7
:1039F00046000125FEF782FAA0EB0900B04201D390
:103A0000701C72D1E08F0028CFD1B4F84600002896
:103A1000CBD173E008B1012F69D1E08F0128A06BF1
:103A200008D921680088C860A06B801CA063E08F63
:103A3000801E07E0216800780873A06B401CA0631B
:103A4000E08F401EE08752E020688168890718D522
:103A5000E18FB1B1012D14D1E18F0129A16B07D9FB
:103A60000988C160A06B801CA063E08F801E06E007
:103A700009780173A06B401CA063E08F401EE087B3
:103A8000002520688168C90727D0B4F8461021B303
:103A9000B4F84610012914D9C068216C0880206C44
:103AA000801C2064B4F84600801EA4F84600B4F8D8
:103AB0004600012810D82068416841F480514160D7
:103AC0000AE0007B216C0870206C401C2064B4F874
:103AD0004600401EA4F846000125FEF70FFAA0EBB1
:103AE0000900B04202D3701C01D019E0C6B1E08FCA
:103AF0000028A9D1B4F846000028A5D14A4631468D
:103B0000204601F025FC18B120204FF00108206666
:103B1000012084F85D00002084F85C004046F3E654
:103B200003208046F4E730BCBDE8C09F4FF0E021A1
:103B30000428086903D020F004000861704740F0B1
:103B40000400FAE7704710B5401EB0F1807F01D342
:103B5000012010BD4FF0E02460610F21601701F0DB
:103B6000CDF90020A06107202061002010BD10B514
:103B7000FFF7E8FF10BD70477047704770B590F8C9
:103B80003C20012A21D0012580F83C50022280F8F7
:103B90003D2003685A689C680D4EB34203D122F45D
:103BA00070064A68324322F070060A688968324318
:103BB00024F0800421435A600268916080F83D50EF
:103BC000002180F83C10084670BD022070BD000046
:103BD000002C014010B5040003D094F83D0010B152
:103BE00007E0012010BD002084F83C00204600F0D2
:103BF0000DF8022084F83D00211D206801F058FED8
:103C0000012084F83D00002010BD000008B50068C8
:103C10001D49B0F1804F11D01C4A90421DD1886DD2
:103C200040F010008865886D002200F010000090C0
:103C300011463620FEF73EFD36201FE0886D40F02D
:103C400001008865886D002200F0010000900121CC
:103C50001C20FEF72FFD1C2010E00D4A904211D1D0
:103C6000886D40F020008865886D002200F02000FB
:103C7000009011463720FEF71DFD3720BDE80840B3
:103C8000FEF70DBD08BD000000100240001000400E
:103C9000001400400168CA6842F00102CA6000686E
:103CA000826807490A40062A08D082680A40B2F5AD
:103CB000803F03D0016841F001010160002070479E
:103CC000070001000168CA6822F00102CA600068AA
:103CD000016A41F21112114207D1016A9210114298
:103CE00003D1016821F0010101600020704700004C
:103CF00070B5044690F83C00012817D0012584F8DF
:103D00003C50022084F83D0020688268314E3240E9
:103D100022F47F4282600868502838D00DDC2028C9
:103D200054D005DC90B3102842D14FE0022070BD82
:103D300030284BD040283BD140E060282FD070285D
:103D40000CD0B0F5805F03D0B0F5005F30D112E049
:103D5000206881681F4A703211400AE0CB68D1E9BF
:103D60000121206801F0DAFD20688168314041F0CE
:103D7000770181601CE0CB68D1E90121206801F066
:103D8000CDFD2068816841F48041F2E71EE0CA68F9
:103D90004968206801F0D4FD5021206806E0CA6817
:103DA0004968206801F0DDFD6021206801F0C0FD58
:103DB00084F83D50002084F83C0070BDCA68496812
:103DC000206801F0BDFD40212068EFE72268014630
:103DD0001046EBE788FFFEFF704770B504460068A9
:103DE00001694FF00005C943890715D4C168C9436B
:103DF000890711D4E91E01610120207720688069BC
:103E00008007204602D0FFF7E7FF04E000F0A7F8A4
:103E1000204600F0A5F8257720680169C9434907C5
:103E200017D4C168C943490713D46FF00401016175
:103E3000022020772068806910F4407F204602D05D
:103E4000FFF7CAFF04E000F08AF8204600F088F887
:103E5000257720680169C943090716D4C168C94399
:103E6000090712D46FF0080101610420207720684F
:103E7000C0698007204602D0FFF7AEFF04E000F0E3
:103E80006EF8204600F06CF8257720680169C94378
:103E9000C90617D4C168C943C90613D46FF010010D
:103EA0000161082020772068C06910F4407F204617
:103EB00002D0FFF791FF04E000F051F8204600F037
:103EC0004FF8257720680169C943C90708D1C1683F
:103ED000C943C90704D1891E0161204600F042F898
:103EE00020680169C943090609D4C168C9430906A4
:103EF00005D46FF0800101612046FFF73DFE206888
:103F00000169C943C90509D4C168C943090605D473
:103F10006FF4807101612046FFF72DFE2068016972
:103F2000C943490609D4C168C943490605D46FF09D
:103F300040010161204600F073F820680169C9431F
:103F400089060BD4C168C943890607D46FF02001E4
:103F500001612046BDE87040FFF70FBE70BD70479D
:103F60007047000010B51B4900680968884206D1F7
:103F700000F042FCBDE810401648FFF7A3BE16490A
:103F80000968884204D1BDE810401448FEF706BB1A
:103F90001349096888421CD14FF4F273114A12A1E7
:103FA00015A002F07DF818A002F07AF81B4CE0682A
:103FB000401CE060617909B903F0C8FB207BC007B1
:103FC00003D0BDE8104000F017BCBDE8104001F080
:103FD0005BBF10BD800E0020C00E0020E80D002049
:103FE000000F00208E5701082E2E2F5372632F6D65
:103FF00061696E2E630000005B25733A20202573F3
:104000003A2025645D2000002068736A5F64727640
:1040100020746573742E2E2E200D0A0000000020DF
:1040200070477047704710F8711F40780843704719
:104030002DE9F04102680446D0691168936810F0D8
:104040000F0F4FF000055BD003F0010601F49077ED
:10405000374369D0C70707D0CF0505D501271762B9
:10406000626F42F001026267820708D5DA0706D064
:10407000276802223A62626F42F0040262674207D6
:1040800008D5DA0706D0236804221A62626F42F06C
:104090000202626702070AD501F02002324306D00D
:1040A000236808221A62626F42F008026267626F38
:1040B000002A32D0800605D5880603D5216E09B1C5
:1040C00020468847606F000703D420688068400658
:1040D00025D5204601F000FD20688168490619D5E4
:1040E000816821F040018160E06E98B120498163D0
:1040F000E06EFDF776FB00280FD0E06E816B06E0E6
:10410000860611D58E060FD5216E1EE02046BDE82D
:10411000F04108472046FFF785FFBDE8F0812046C3
:10412000FFF780FF6567F8E7C60209D55B0207D590
:104130004FF4801010622046BDE8F041FFF771BFD8
:10414000030605D50B0603D5616E0029DED1E4E731
:104150004006E2D54806E0D51168204621F040012E
:104160001160202184F87110656600F0C5F9D4E76C
:10417000C55A000810B5040003D094F8710010B1BE
:1041800007E0012010BD002084F87000204600F0F8
:1041900063F8242084F871002068016821F001018F
:1041A0000160204601F004FD0128EBD0606A10B1E7
:1041B000204601F0F5FB2068416821F49041416000
:1041C0002068816821F02A0181602068016841F03F
:1041D000010101602046BDE8104001F045BC00002F
:1041E00010B50068164A1749904209D1086E20F4AC
:1041F00080400866BDE81040C0211348FDF700BCB0
:10420000124A90420AD1886D20F4003088650C2152
:104210004FF09040FDF7F4FB26200CE00C4A904252
:104220000DD1886D20F4802088654FF440610948E5
:10423000FDF7E6FB2720BDE81040FEF725BA10BDCC
:1042400000380140001002400004004800440040D3
:104250000048004000080048F0B50068324A334981
:1042600002240325072687B0904220D1086E40F42F
:1042700080400866086E02AA00F480400590402045
:10428000CDE90004002082E86100294F69463846E4
:10429000FDF75EFD8020CDE9000402AA012082E83E
:1042A000610069463846FDF753FD07B0F0BD214A6D
:1042B000904219D1886D40F400308865886D02AA5B
:1042C00000F4003005900C20CDE9000482E8700075
:1042D00069464FF09040FDF73BFD0022012126206A
:1042E000FEF7E8F926201BE0134A9042DDD1886DE5
:1042F00040F480208865886D02AA00F48020059033
:104300004FF44060CDE9000482E8700069460B4834
:10431000FDF71EFD002201212720FEF7CBF9272003
:10432000FEF7BDF9C1E7000000380140001002406F
:1043300000040048004400400048004000080048D5
:1043400030B590F87230202B4AD1B1B1AAB190F8B3
:104350007030012B44D0012380F870304165A0F803
:104360005820A0F85A20002202661D038168FF230E
:10437000A94207D1016911B10CE0012030BD40F222
:10438000FF110DE07F2419B1B1F1805F05D009E084
:10439000016901BBA0F85C3004E00169D9B13F219B
:1043A000A0F85C104267222180F8721001688B68C7
:1043B00043F001038B608168A94201D1016969B1B1
:1043C0000849016680F870200068016841F4907126
:1043D0000160002030BDA0F85C40E3E70249F0E74F
:1043E000022030BD555B0008F95A0008114B00222D
:1043F000114998420CD14889B0F5806F06D2CA1D88
:104400000E4B12781A54401C488170474A817047FD
:104410000B4B9842FBD10889B0F5006F07D2064AD2
:10442000084B921D12781A54401C088170470A816B
:1044300070470000B80F002000000020EC080020AA
:1044400030100020EC0000202DE9F843044690F8DD
:1044500071001E4617460D4620284BD1C5B1BFB18D
:1044600094F87000012845D0012084F870004FF0C6
:104470000008C4F87480212084F87100FDF73EFD27
:10448000A4F850708146A4F852704FF4805715E09C
:104490000120BDE8F8838021204601F0C3FCD8B993
:1044A000A068B84201D12069C0B115F8010B21689C
:1044B0000885B4F85200401EA4F85200B4F8520027
:1044C0004B464FF0000200960028E4D14FF0400127
:1044D000204601F0A7FC30B10320DAE735F8020BE3
:1044E000C0F30800E3E7202084F8710084F87080AE
:1044F0000020CEE70220CCE77047FEE701688A691A
:10450000D243920701D400228A6200688169C943BC
:10451000C90703D0816941F0010181617047000042
:104520002DE9F0410446006816460D468069C043F7
:10453000C00637D44FF00008202720688069C043A8
:10454000800616D5681CF8D0FDF7D8FC801BA84261
:1045500001D8002DF1D154F8440F40F0200044F868
:104560000409677084F8028084F800800120BDE8A7
:10457000F08121681020C8612068C7612046FFF7DC
:10458000BDFF54F8440B4168074A11404160206860
:1045900040F0040044F82009677784F81E8084F80E
:1045A0001C80E3E70020E2E700E800FE2DE9F84385
:1045B00004461646DDE9089714489846DAB200909A
:1045C0000023204600F056F83A464946204600F0BF
:1045D000B9F8B8B9F5B2B8F1010F08D02168300ABE
:1045E00088623A464946204600F0ACF850B9206847
:1045F00085624B46002240212046009700F050F88B
:10460000002800D00120BDE8F883000000200080D1
:104610002DE9F8430446164615489846DDE9089703
:10462000DAB2C3020090204600F024F83A46494628
:10463000204600F087F8B8B9F5B2B8F1010F08D0FC
:104640002168300A88623A464946204600F07AF8E6
:1046500050B9206885624B46002280212046009791
:1046600000F01EF8002800D00120BDE8F88300000B
:1046700000200080F0B50068059C45684FF4806616
:10468000064FC1F3090106EA545641EA02413E438E
:104690001943B54321430D434560F0BDFF63FF035C
:1046A0002DE9F0411D4617460E460446DDF81880F8
:1046B00008E0681C06D0FDF721FCA0EB0800A8422A
:1046C0000BD855B12068806936EA000012D000206E
:1046D000B842EED00020BDE8F08154F8440F40F01D
:1046E000200044F80409202060700020A070207091
:1046F0000120F0E70120EBE770B516460D460446B1
:104700000DE0324629462046FFF70AFF08B1012096
:1047100070BDFDF7F3FB801BA84207D835B12068B8
:104720008069C0438006ECD4002070BD54F8440F6B
:1047300040F0200044F80409202060700020A070A0
:104740002070E4E770B516460D4604460FE0324689
:1047500029462046FFF7E4FE08B1012070BD681C21
:1047600005D0FDF7CBFB801BA84207D835B12068E8
:104770008069C0438007EAD4002070BD54F8440F1C
:1047800040F0200044F80409202060700020A07050
:104790002070E2E700EB8100006E00F0F840704707
:1047A0008068C0F3C00070478068C0F300007047A5
:1047B0008068C0F380007047C06810F4406F01D07B
:1047C0000020704701207047042310B503EAD1533D
:1047D0001844C1F3045107248C4043698A40A34321
:1047E0001343436110BD00EB8100016E21F00041D5
:1047F000114301667047000010B572B601224FF0F8
:10480000904420212046FDF773FB002240212046E2
:10481000FDF76EFB07480CF0B7FE00222021204672
:10482000FDF766FB002240212046FDF761FB62B6E2
:1048300010BD0000F049020030B51B4887B019498F
:104840000024C0E9001484600425C460C0E9044564
:10485000047644760121C16180F820408462C462FC
:1048600080F83040446380F83840FCF711FE18B1FE
:104870004B210EA001F0D8FB104800900620CDE996
:1048800001047F200594CDE9030569460648FCF73D
:1048900005FC002803D0582104A001F0C5FB07B097
:1048A00030BD000000000450EC0C00202E2E2F53D1
:1048B00072632F6164632E63000000001000C0105B
:1048C0002DE9F04F6D4887B0C16C41F00401C1641F
:1048D000C16C01F004010591C16C41F08001C1641B
:1048E000C16C01F080010591C16C41F00101C1640E
:1048F000C16C01F001010591C16C41F00201C1647C
:10490000C16C01F002010591C16C41F00801C16464
:10491000C06CDFF86CA100F008000590002243F2A3
:10492000E4115046FDF7E4FA40F663084FF0904B6F
:10493000002241465846FDF7DBFA002240F21731CB
:104940005048FDF7D5FA4FF48059012249464D48A9
:10495000FDF7CEFA002443F220000125022603943D
:104960008DE8610069465046FDF7F2F90B200327F8
:10497000CDE90007694602944348FDF7E9F94FF491
:10498000E2700090CDE90154694650460394FDF76A
:10499000DFF9CDE90264CDE9008569465846FDF7A7
:1049A000D7F948F29010CDE90007694602945846BD
:1049B000FDF7CEF91020CDE9000769460294504674
:1049C000FDF7C6F9072003948DE8610069462D487C
:1049D000FDF7BEF9DFF8B480B802CDE900086946FA
:1049E00002952848FDF7B4F941F210300090CDE966
:1049F0000154694623480394FDF7AAF96802CDE9FA
:104A00000008694602965046FDF7A2F9CDF80090DD
:104A1000CDE9018669465846FDF79AF91C4E0420F7
:104A2000CDE90006694602951A48FDF791F908207C
:104A3000CDE90006694602941248FDF789F9202065
:104A4000CDE90007694602940E48FDF781F900227E
:104A500002210820FDF72EFE002202210920FDF789
:104A600029FE002202211720FDF724FE0022012149
:104A70002820FDF71FFE07B000F00EB8001002401E
:104A80000008004800040048001C00480000111005
:104A900000002110000C004830BCBDE8C08F0000B1
:104AA000174810B5154901601649416000210122DF
:104AB000C0E90212016141618161C1610162FDF7DA
:104AC0008BFA18B1432110A001F0AEFA00210C4876
:104AD000FDF71AFA18B14A210BA001F0A5FA00213E
:104AE0000748FDF73CFA18B1512107A001F09CFAE4
:104AF000BDE810404FF48010FDF75ABA0054004052
:104B0000500D0020330F30002E2E2F5372632F696B
:104B100032632E6300000000174810B5154901608C
:104B20001649416000210122C0E902120161416180
:104B30008161C1610162FDF74FFA18B1682110A0CF
:104B400001F072FA00210C48FDF7DEF918B16F216F
:104B50000BA001F069FA00210748FDF700FA18B12F
:104B6000762107A001F060FABDE810404FF4800004
:104B7000FDF71EBA005C00409C0D0020330F300092
:104B80002E2E2F5372632F6932632E6300000000B4
:104B90000C4810B50A4901600621416040F6FF71DA
:104BA000C1604FF47A718160FDF7CAFC002805D01E
:104BB000BDE810403B2104A001F036BA10BD000052
:104BC00000300040E80D00202E2E2F5372632F6915
:104BD0007764672E6300000010B5214886B01F4936
:104BE0000024C0E900147F218160FF21C0E9031483
:104BF00044618461C461FEF793FB18B1432119A09D
:104C000001F012FA09208DF800008DF801408DF8AE
:104C1000024003940022694611480494FEF72AFDDD
:104C200018B14F210FA001F0FFF905208DF81400F5
:104C300003208DF815000F208DF8160013208DF835
:104C40001700002205A90648FEF7ACFC002803D097
:104C5000592104A001F0E8F906B010BD0028004079
:104C6000F80D00202E2E2F5372632F7274632E6363
:104C700000000000134810B5114901604FF4827123
:104C8000416000214FF4E062C0E902124FF400726B
:104C90000161C0E905123822C0E9072107224162FB
:104CA000C0E90A12016308214163FEF77DFD002877
:104CB00005D0BDE81040472103A001F0B5B910BDF3
:104CC000003800401C0E00202E2E2F5372632F73CD
:104CD00070692E630000000010B5184888B04FF0CE
:104CE0008041016041F63F710024C0E9011447F2A0
:104CF0002F51C0E903148461FEF76CFF18B1412104
:104D00000FA001F091F94FF48050039003A90B48D4
:104D1000FEF7EEFF18B1472109A001F085F90094D4
:104D2000694606480294FEF729FF002803D04E2169
:104D300003A001F079F908B010BD0000800E00203A
:104D40002E2E2F5372632F74696D2E6300000000A6
:104D50003EB511480F490024016043F67F61C0E968
:104D6000011444F61F618461C160FEF733FF18B17E
:104D70005E210AA001F058F90094694606480294A1
:104D8000FEF7FCFE002803D0652104A001F04CF9D9
:104D90003EBD000000100040C00E00202E2E2F53FC
:104DA00072632F74696D2E63000000003EB51148D8
:104DB0000F490024016043F67F61C0E9011444F605
:104DC0001F618461C160FEF705FF18B175210AA05B
:104DD00001F02AF90094694606480294FEF7CEFED7
:104DE000002803D07C2104A001F01EF93EBD000084
:104DF00000140040000F00202E2E2F5372632F74DA
:104E0000696D2E63000000000E4810B50C4901606A
:104E10004FF4E1314160002181600C22C160C0E9A2
:104E200004128161C16101624162FFF7A3F90028A8
:104E300005D0BDE81040472103A001F0F5B810BD32
:104E400000380140400F00202E2E2F5372632F7523
:104E5000736172742E6300000E4810B50C49016036
:104E60004FF4E1314160002181600C22C160C0E952
:104E700004128161C16101624162FFF77BF9002880
:104E800005D0BDE810405C2103A001F0CDB810BDF5
:104E900000440040B80F00202E2E2F5372632F7550
:104EA000736172742E6300000E4810B50C490160E6
:104EB0004FF4E1314160002181600C22C160C0E902
:104EC00004128161C16101624162FFF753F9002858
:104ED00005D0BDE81040712103A001F0A5B810BDB8
:104EE00000480040301000202E2E2F5372632F7583
:104EF000736172742E630000FEE770470907090EA4
:104F0000002806DA00F00F0000F1E02080F8141D00
:104F1000704700F1E02080F80014704770470000EF
:104F20002DE9F041434E05468846F068002481078C
:104F300028680ED0F16801F00301814207D130B139
:104F4000F0686968C0F30210401C88421FD0012439
:104F50006DE0012809D002280AD00328F7D1316872
:104F6000890309D43168490304E03168890701E005
:104F7000316849050029EADAF1686A686FF00F03C1
:104F800021F0730103EB021211430143F160306819
:104F900020F080603060FCF7B1FF074604E0FCF7CA
:104FA000ADFFC01B022838D830680001F7D474BBAD
:104FB000B8F1000F18D0B8F1010F1DD0287D4FF0C7
:104FC0007E41400801EB4060A96840EA0120316958
:104FD000194A114008433061306840F08060306009
:104FE000FCF78CFF07461AE0A868297B000240EA1C
:104FF000C1603169114AECE7288A1149400801EB88
:105000004050A96840EA012031690E4AE1E70EE00C
:10501000FCF774FFC01B022801D9032407E03068A5
:105020000001F5D51CB93069A969084330612046F3
:10503000BDE8F08100100240FF80FFF9FF80FF070C
:105040000000E0FFFF809FFFF8B51C4E05460024DE
:10505000B06DC00002D5FDF7AFFB0DE0B06D40F0C4
:105060008050B065B06D00F080500090FDF7A4FB5B
:10507000B16D21F08051B165B0F5007F04D0802D75
:1050800007D94FF003040AE0802D08D9A02D01D8DC
:1050900004E001D1022402E0702D00D1012408486F
:1050A000016821F0070121430160006800F007005A
:1050B000A04201D00120F8BD0020F8BD0010024040
:1050C0000020024010B504461F488AB00168C86835
:1050D00000F0800060F4C070C8601C494FF480206C
:1050E000086000221A491848FEF7F0F80022194912
:1050F0001548FEF7C9F8002115488DF800108DF805
:10510000011080783C222044B0FBF2F302FB130034
:105110008DF8020010480391CDE9041001208DF8AC
:105120002000019100020691079109900022694632
:105130000548FEF765F9002803D0992107A000F083
:1051400073FF0AB010BD0000F80D002014040140E8
:10515000D800002016000020008080802E2E2F53C3
:1051600072632F7274632E6300000000010901EB6B
:10517000810100F00F0000EB4100C0B27047002138
:1051800002E00A38C0B2491C0A28FAD2090740EAEC
:105190001160704770B505460068C168490613D4B0
:1051A0004FF0FF31C160FCF7A9FE04464FF47A7658
:1051B00006E0FCF7A3FE001BB04201D9032070BD3E
:1051C0002868C0684006F4D5002070BDF8B50C4EC4
:1051D0000C468DF800004FF48055002229463046D9
:1051E000FCF786FE684600F021FF9DF80100607024
:1051F000012229463046FCF77BFE0020F8BD000066
:10520000000400487047000038B50B4D8DF80000D1
:105210008DF801104FF48054002221462846FCF7F7
:1052200067FE684600F020FF012221462846FCF771
:105230005FFE002038BD00000004004810B542F2B7
:1052400010700CF0A1F90A4C002204212046FCF752
:105250004FFE4CF250300CF097F901220421204609
:10526000FCF746FEBDE8104002480CF08DB9000086
:1052700000080048A086010070B50E4C0022802175
:105280002046FCF735FE40F2DC5528460CF07CF950
:10529000012280212046FCF72BFE28460CF074F9F1
:1052A000002280212046FCF723FE2846BDE87040FE
:1052B0000CF06AB90008004811B583B0FF208DF8E2
:1052C000040064200090012301AA03A90948FEF705
:1052D000FDFA040009D05123074A08A112A000F0EA
:1052E000DFFE214614A000F0DBFE9DF8040004B0B0
:1052F00010BD00001C0E00202EB201082E2E5C55A1
:105300007365725C72633636335C706853756242E3
:10531000616C5C7372635C52656743746C5F53705D
:105320006948772E630000005B25733A20202573BF
:105330003A2025645D200000737069322073656E29
:1053400064206661696C202564200D0A000000005D
:10535000F8B515460E460B460092044600224FF45F
:10536000C05100F019F888B9334600228021204648
:10537000009500F05CF848B9334600224FF4C06154
:105380002046009500F008F8002804D0206E40F078
:10539000200020660320F8BD2DE9F0471D46164683
:1053A0000F4604464FF4C069DDF820800CE04F45FD
:1053B00001D106B9007B681C06D0FCF79FFDA0EB6D
:1053C0000800A84208D23DB1206881683940B14246
:1053D000EDD10020BDE8F0872068416821F0E001B0
:1053E00041606068B0F5827F0BD1A068B0F5004FD6
:1053F00002D0B0F5806F04D12068016821F040012F
:105400000160A06AB0F5005F09D12068016821F44D
:10541000005101602068016841F4005101600120E1
:1054200084F85D00002084F85C000320D2E72DE9B9
:10543000F0411D4617460E460446DDF8188008E088
:10544000681C06D0FCF75AFDA0EB0800A8420BD25E
:1054500055B12068806836EA000030D00020B8429C
:10546000EED10020BDE8F0812068416821F0E00124
:1054700041606068B0F5827F0BD1A068B0F5004F45
:1054800002D0B0F5806F04D12068016821F040019E
:105490000160A06AB0F5005F09D12068016821F4BD
:1054A000005101602068016841F400510160012051
:1054B00084F85D00002084F85C000320D2E701201E
:1054C000CDE770472DE9F043AFB00546142128A879
:1054D000FAF7C5FE44216846FAF7C1FE7E4C002665
:1054E0002D96A06D40F08050A065A06D00F080501A
:1054F0002E906846FDF78AFB4FF00208CDF8288011
:1055000068460096FDF76CFC20B14FF4777173A0EC
:1055100000F08AFD2DA928A8FDF752FB01270320E2
:10552000CDE9287028A82D99FDF7B8FA20B140F2EE
:10553000E9316AA000F078FD70481B9611904FF099
:1055400080501A961D964FF48079259019961F96D3
:10555000CDF89C9012971020CDE913700720CDE96B
:1055600015084FF08070CDE9178011A8FDF73CF9C0
:1055700020B140F2014159A000F056FDFFF7A0F91B
:1055800000F0E8FCA06D40F40010A065A06D00F4F0
:1055900000102E90FFF784FA5948FCF797FFA06D92
:1055A00040F40000A065A06D00F400002E90FFF70D
:1055B000B3FA5448FCF78AFFA06D40F48040A06520
:1055C000A06D00F480402E90FFF754FB4E48FEF78C
:1055D00057F9E06C40F40050E064E06C00F40050D7
:1055E0002E90FFF729F94948FCF726F84748FBF7C2
:1055F000FFF9FBF7C9FA06F04FFD08F0CDFA07F006
:10560000A7FCFFF71BFE06F04FFD05F0CBFC404C5E
:10561000404E2068008800B9377000200BF01EFC57
:105620004FF484633C4A2DA13CA000F039FD206872
:1056300001893EA000F034FD2068007A0BF05AFC8E
:105640004FF4FA600BF0A0FF4FF48057B5F5007FE0
:1056500007D0BD4205D03078012802D001200BF0E0
:1056600049FC2068008848B1082D05D0102D03D0D2
:105670004D4501D0BD4201D102F090FC3048FCF70D
:105680008DFF30480760076010214FF09040FCF715
:105690002AFC01280FD040F234431F4A0FA11FA05B
:1056A00000F0FEFC28A000F0FBFC2648001F01686B
:1056B00041F01001016029480BF066FF40F23A43C7
:1056C000154A06A115A000F0EBFC25A000F0E8FCAF
:1056D0002FB0BDE8F0830000001002402E2E5C5574
:1056E0007365725C4170706C69636174696F6E5C44
:1056F0007372635C6D656E752E6300004741020036
:10570000500D00209C0D00201C0E0020EC0C0020F1
:1057100090000020010000206BAE01085B25733A69
:10572000202025733A2025645D20000020737973C2
:1057300020766F696365203A2564200D0A00000019
:10574000E80D002014040140616E74695F68696AA5
:105750006B20202E2E2E0D0A00000000400D0300AD
:105760002323232323232323232323232323232309
:10577000232077616B657570200D0A0010B5FCF76A
:1057800013FFBDE81040FEF7F2B90000F0B5ADB070
:10579000FDF71AF82A4850F8901F21F0180101600F
:1057A00001251C201C95179060201F90199500243E
:1057B000CDE91D540226CDE921650727CDE92576DF
:1057C00028202796CDE9235017A8FDF709FB0F20C5
:1057D00028900320CDE929042B94042128A82C9497
:1057E000FDF75CF917480A940090280714900C9470
:1057F0000015169008941020CDE9025009940195E7
:1058000000050E94CDE90660CDE904766846FCF704
:10581000EBFF6802FCF780FFFDF7F2F94FF47A71B5
:10582000B0FBF1F0FEF78FF90420FEF77FF9FCF7EB
:10583000D3FF00221146501EFCF73CFF2DB0F0BDF7
:1058400000100240474102000D48016841F4700118
:1058500001600C48016841F0010101600021816094
:105860000268094B1A4002608214C260026822F486
:105870008022026081610249C0038039086070475C
:1058800088ED00E000100240FFFFF6EA0148FEF755
:10589000A4BA0000800E00200148FEF79EBA000066
:1058A000C00E00200148FEF798BA0000000F00204B
:1058B000F0B50268164C4FF08047A04201D0B842C4
:1058C00003D122F070034A681A43124D124EA042CF
:1058D00005D0B84203D0A84201D0B04203D122F48F
:1058E0004073CA681A434B6922F080021A4302606F
:1058F0008A68C2620A688262A04203D0A84201D0CC
:10590000B04201D10969016301214161F0BD00008C
:10591000002C0140004001400044014010B5846863
:1059200042EA032224F47F440A432243826010BDEA
:10593000826822F070020A4342F0070181607047DA
:1059400010B5046A036A23F001030362836923F03C
:10595000F00343EA021324F00A020A43836102625D
:1059600010BD10B5036A23F0100303628469036A53
:1059700024F4704444EA023223F0A00343EA011104
:105980008261016210BD00000448006801694FF6A1
:10599000FE72114001610148FEF77CB9800E0020C3
:1059A00090F82410C90706D001684A68836A22F477
:1059B00000321A434A6090F82410890706D501681E
:1059C0004A68C36A22F480321A434A6090F824106D
:1059D000490706D501684A68036B22F480221A43FE
:1059E0004A6090F82410090706D501684A68436B9D
:1059F00022F400421A434A6090F82410C90606D5E2
:105A000001688A68836B22F480521A438A6090F896
:105A10002410890606D501688A68C36B22F40052F7
:105A20001A438A6090F82410490611D501684A6823
:105A3000036C22F480121A434A60016CB1F5801F96
:105A400006D101684A68436C22F4C0021A434A60D6
:105A500090F82410090606D501684A68806C22F483
:105A6000002202434A607047F8B5002504464567A6
:105A7000FCF744FA0746206800686FF07E4600078E
:105A800008D53B4600224FF400112046009600F056
:105A9000C9F960B92068006840070AD53B46002272
:105AA0004FF480012046009600F0BCF908B10320B5
:105AB000F8BD202084F8710084F8720084F87050DA
:105AC0000020F8BD10B5806A0021A0F85A10A0F897
:105AD0005210FEF7A7FA10BD01680A6822F490720E
