:020000040800F2
:1000000008220020A1010008EF220008C51D0008F9
:10001000ED2200089F050008D92900080000000013
:10002000000000000000000000000000152500088E
:10003000D50500080000000011230008172500085E
:10004000BB010008BB010008BB010008BB010008A0
:10005000BB010008BB010008D7050008BB01000870
:10006000BB010008BB010008BB010008BB01000880
:10007000BB010008BB010008BB010008BB01000870
:10008000BB010008BB010008BB010008BB01000860
:10009000BB010008BB010008BB010008BB01000850
:1000A000BB010008BB010008BB010008BB01000840
:1000B000BB0100080000000000000000BB010008B8
:1000C000BB010008BB010008BB010008BB01000820
:1000D000BB010008BB010008BB010008BB01000810
:1000E000BB010008BB010008000000000000000088
:1000F0000000000000000000000000000000000000
:1001000000000000BB01000800000000BB01000867
:100110000000000000000000BB010008BB01000857
:10012000BB010008BB010008BB010008BB010008BF
:10013000BB010008000000000000000000000000FB
:10014000BB010008BB010008BB0100080000000063
:10015000BB010008BB010008BB010008BB0100088F
:10016000BB010008BB010008BB0100080000000043
:10017000BB010008BB0100080000000000000000F7
:10018000BB010008BB010008BB010008DFF80CD070
:1001900000F0A6F800480047D539000808220020E2
:1001A0000648804706480047FEE7FEE7FEE7FEE711
:1001B000FEE7FEE7FEE7FEE7FEE7FEE7B9250008FB
:1001C0008D0100082DE9F05F0546002092469B4610
:1001D00088460646814640241BE02846414647465D
:1001E000224600F06DF853465A46C01A914110D38A
:1001F00011461846224600F054F82D1A67EB010804
:100200004F4622460120002100F04BF817EB000971
:100210004E41201EA4F10104DFDC484631462A4647
:10022000434600F000B830BCBDE8C09FD2B201E048
:1002300000F8012B491EFBD270470022F6E710B5EB
:1002400013460A4604461946FFF7F0FF204610BD44
:1002500010B5044604E00B7800F8013B03B1491CDB
:10026000521EF8D2204610BD30B505460020034688
:1002700000E05B1C934205D2EC5CC85C201A01D103
:10028000002CF6D130BD10B54843044603F0FCFB0A
:10029000002805D00021002C02D0641E0155FAE789
:1002A00010BD202A04DB203A00FA02F1002070473A
:1002B0009140C2F1200320FA03F3194390407047A4
:1002C000202A04DB203A21FA02F00021704721FAAB
:1002D00002F3D040C2F12002914008431946704712
:1002E000064C074D06E0E06840F0010394E8070083
:1002F00098471034AC42F6D3FFF74CFFD4590008AE
:10030000F459000810B51AA002F0D8FB5A213A207F
:1003100000F00EF90021232000F00AF9E02124204A
:1003200000F006F90021252000F002F9082126201E
:1003300000F0FEF80221272000F0FAF80221282020
:1003400000F0F6F81021292000F0F2F810212A2000
:1003500000F0EEF804212B2000F0EAF800212D2017
:1003600000F0E6F80021BDE810403A2000F0E0B8C7
:100370002D2D2D2D2D2D2D2D2D2D2D415054206920
:100380006E69742D2D2D2D2D2D2D0A0010B5FFF722
:10039000B9FF052000F0E0F95A213A2000F0C8F832
:1003A0000021212000F0C4F808212C2000F0C0F822
:1003B0000221202000F0BCF8FF212A2000F0B8F82C
:1003C00008212D2000F0B4F80021BDE810403A20AB
:1003D00000F0AEB8FFF7DABF1FB54FF47A73012211
:1003E00003A98DE80E0013460246AF21064800F02F
:1003F00043FC010006D005A002F060FB9DF80C0054
:1004000004B010BD06A0F7E75C0000200A72656129
:1004100064206661696C65642025640A0000000040
:100420000A726561642073756365737366756C2009
:1004300025640A002DE9F041062000F019FE2C2069
:10044000FFF7CAFF0446014627A002F037FB20074A
:1004500006D428A002F032FBBDE8F041FFF796BFBA
:100460003420FFF7B9FF06463520FFF7B5FF0446F5
:10047000382003F023FC224D4FF00108AF1CAEB131
:100480005FF0000426FA04F0C0070AD0012003F050
:1004900045FC381985F800804178697019A002F090
:1004A0000DFB641CE4B2082CECD318E0A4B10026C8
:1004B00024FA06F0C0070AD0012003F02FFCB81977
:1004C00085F80080417A69700EA002F0F7FA761C78
:1004D000F6B2082EECD302E011A002F0EFFABDE86C
:1004E000F041062000F0CFBD0A54656D703A2564D6
:1004F00020200A00756E706F776572200A00000078
:10050000280000206765745F6375725F6E756D62A9
:1005100065722E6E756D6265723A25640A00000080
:100520006B657920756E70726573730A0000000048
:1005300003B583B04FF47A73012204A98DE80E004D
:1005400013460246AE21064800F04CFC010005D0DF
:1005500004A000BF02F0B2FA05B000BD06A0F9E7A2
:100560005C0000200A7772697465206661696C65B9
:10057000642025640A0000000A777269746520739C
:10058000756365737366756C2025640A000000004E
:1005900010B503F0AFFABDE8104003F0B3BAFEE7C0
:1005A00070B5002404F1B000C0B202F016FA1020B9
:1005B00002F013FA022002F010FA0025002002F0E7
:1005C0001DFA6D1CEDB2802DF8D3641CE4B2082C2A
:1005D000E8D370BD7047012000F0BAB9124A117F0C
:1005E0001248012901D003290BD1036843F40063A9
:1005F0000360036823F400630360036843F400733B
:100600000360022901D003290BD1016841F4805114
:100610000160016821F480510160016841F480614A
:100620000160002010777047040000200020024085
:10063000C107054803D0416941F0040141614169A6
:1006400041F48031416170470020024006494A6907
:1006500060F3CA024A61486940F002004861486993
:1006600040F480304861704700200240044910B5D2
:100670004C6944F001044C610260436010BD00000D
:1006800000200240074B10B55C69402244F48024EE
:100690005C6172B608C908C0521E12F0FF02F9D19F
:1006A00062B610BD0020024070B5054600F02EFA7B
:1006B0000646174C08E0681C06D000F027FA801B9D
:1006C000A84201D3032070BD2069C003F3D421697F
:1006D00010480140A06900F00040084311D00E49C5
:1006E0004A6802434A60810F04D0A16900F0404289
:1006F0001143A161810002D020F04040206101201F
:1007000070BD2069C00701D001202061002070BDAC
:1007100000200240FAC30200040000200D4910B579
:1007200009684FF6FF734FF48014994201D12246B5
:1007300001E00A05920A02F10062824204D900BF78
:10074000A0F10060C00A10BD994201D009058C0AD1
:10075000001BF5E7E075FF1F70B5044600F0D6F901
:100760000546601C00D0641C00F0D0F9401BA0427C
:10077000FAD370BD2DE9F05F05463448894601780B
:1007800001290CD00127804607704CF2503B584697
:10079000FFF78AFF06004FF0000A03D052E0022064
:1007A00000F058B851464046C8F804A0284C2268CA
:1007B00092050ED5216821F4007121602168490558
:1007C00005D5216821F480612160032109E00777C4
:1007D00008E02268520504D5216821F48061216077
:1007E000022101772868012807D04FF0FF31C9F8AE
:1007F000001040F2FA7BAF681DE06868FFF718FF51
:100800005846FFF751FF0646606920F0040060611A
:1008100016E038466968FFF719FF4CF25030FFF7D1
:1008200043FF0600606920EA0B00606102D0C9F84E
:10083000007005E07F1CD5E902010844B842E8D801
:10084000FFF7CCFE88F800A03046A9E7040000209E
:100850000020024030BCBDE8C09F00000348416951
:1008600041F000414161002070470000002002403B
:100870002DE9FF5F254C0646904620789A460128D0
:100880000BD0012020704CF2503B5846FFF70CFF74
:1008900007004FF0000904D02AE0022004B000F065
:1008A00039B84846C4F80490194D2968490504D55B
:1008B000286820F4806028600220207726B1012E6D
:1008C00009D0022E07D00CE0424653460198FFF7AC
:1008D000CDFE012612E041460198FFF7D3FE022E1D
:1008E0000AD05846FFF7E0FE4FEA0007FFF776FE12
:1008F00084F800903846D1E74FF480265846FFF739
:10090000D3FE07466869B0436861EFE70400002042
:100910000020024030BCBDE8C09F00000649002016
:100920004A69002A07DA054A8A60054A8A604969E5
:10093000002900DA012070470020024023016745AA
:10094000AB89EFCD012801D1FFF774BD70470000DE
:10095000044910B50A68024202D00860FFF7F2FFAE
:1009600010BD0000140401402DE9F84FDFF864B118
:1009700000234FF0010C4FF0030A4FF00F090BF169
:10098000040EA0E00CFA03F6324072D04C68022C40
:1009900001D0122C0ED1DC0800EB8408D8F82040DE
:1009A0005D07EF0E09FA07F5AC430D69BD4025431D
:1009B000C8F8205007685D0091F804800AFA05F431
:1009C00008F00308A74308FA05F848EA0708C0F842
:1009D00000804F68012F05D0022F03D0112F01D0C6
:1009E000122F11D18768D1F80C80A74308FA05F8B7
:1009F00048EA0708C0F808804768B7430E79C6F38D
:100A000000169E403E434660C668A6438C68AC40D4
:100A10003443C4604C68E40054D52F4C256E45F037
:100A200001052566246E23F0030504F001040094FB
:100A30002A4C2E19B4689D072F0F09FA07F5AC430D
:100A4000B0F1904F04D0264DA84203D1012512E009
:100A5000002510E0234DA84201D102250BE0224DD4
:100A6000A84201D1032506E0204DA84202D1042569
:100A700001E027E00725BD402543B560DBF80040D5
:100A80005D464E689443F60300D514432C60DEF8AF
:100A9000004075464E689443B60300D514432C605D
:100AA0000C4D08352C684E689443F60200D514436B
:100AB0002C60084D0C352C684E689443B60200D566
:100AC00014432C605B1C0A6832FA03F47FF45AAFBB
:100AD00000F00EB800040140001002400000014088
:100AE0000004004800080048000C004800100048BE
:100AF00018BCBDE8E08F0069084000D001207047B5
:100B00000AB1816170478162704700000148006846
:100B1000704700000000002090F84120202A24D1D6
:100B200090F84020012A20D0012280F84020242281
:100B300080F841200268136823F001031360026803
:100B4000136823F480531360026813680B43136027
:100B500001680A6842F001020A60202180F8411011
:100B6000002180F84010084670470220704790F836
:100B70004120202A22D190F84020012A1ED00122B3
:100B800080F84020242280F841200268136823F076
:100B9000010313600268136823F4706343EA0121C0
:100BA000116001680A6842F001020A60202180F8A1
:100BB0004110002180F8401008467047022070471D
:100BC00070B5040004D094F84100002510B106E08F
:100BD000012070BD84F84050204600F0B3F9242075
:100BE00084F841002068016821F00101016060681B
:100BF000216820F0706008612068816821F400415C
:100C00008160E0680128A06807D040F404402168B2
:100C10008860E068022803D006E040F40040F6E770
:100C200021684FF40060486020684168114A114310
:100C300041602068C16821F40041C160D4E9040129
:100C40000843A16940EA01202168C860D4E907018E
:100C50000843216808602068016841F001010160D3
:100C60006564202084F84100256384F84250002008
:100C700070BD0000008000022DE9FF4F83B00446E4
:100C8000DDE9108790F84100DDF848909A469346D8
:100C9000202874D15FEA080014D09FB194F8400076
:100CA00001286CD0012084F84000FFF72FFF064692
:100CB000012200901923D103204601F051F90028A8
:100CC00071D103E04FF4007060646CE0222084F87E
:100CD0004100402084F8420000256564C4F8248067
:100CE00067856563CDE9009653465A4620460499C8
:100CF00001F0BCF810B184F8405054E0618D3548E3
:100D0000FF274FF080784FF0007AFF2904D927851C
:100D10003A464346009005E0618D2185009094F8A5
:100D2000282053462046049901F004F94B4600223E
:100D300004212046009601F013F9A0BB2068406A08
:100D4000616A0870606A401C6062208D401E81B23A
:100D50002185608D401E6085608DD8B1D1B94B462C
:100D6000002280212046009601F0FAF8D8B9608D63
:100D7000FF2805D927853A464346009506E026E038
:100D8000608D2085009594F82820534620460499CC
:100D900001F0D0F8608D0028C8D13246494620467F
:100DA00001F00AF918B1012007B000F017B8216866
:100DB0002020C86121684A68074B1A404A6084F8BD
:100DC000410084F8425084F840500020ECE70220B3
:100DD000EAE700000024008000E800FE30BCBDE827
:100DE000C08F00002DE9FF4F83B00446DDE9108776
:100DF00090F84100DDF848909A469346202871D13A
:100E00005FEA080014D09FB194F84000012869D02F
:100E1000012084F84000FFF779FE06460122009089
:100E20001923D103204601F09BF800286ED103E07E
:100E30004FF40070606469E0212084F84100402094
:100E400084F8420000256564C4F8248067856563E2
:100E5000CDE9009653465A462046049901F038F8E9
:100E600010B184F8405051E0608DFF274FF080783A
:100E70004FF0007AFF2804D927853A46434600956B
:100E800005E0608D2085009594F828205346204683
:100E9000049901F04FF832464946204601F0B2F875
:100EA000A0BB606A216800788862606A401C60624A
:100EB000608D401E6085208D401E80B22085618D32
:100EC000D9B1D0B94B46002280212046009601F0CE
:100ED00047F8D8B9608DFF2805D927853A4643469B
:100EE000009506E026E0608D2085009594F8282086
:100EF00053462046049901F01DF8608D0028CAD1A0
:100F000032464946204601F057F818B1012007B093
:100F100000F014B820682021C16120684268064BA7
:100F20001A40426084F8411084F8425084F84050DE
:100F30000020ECE70220EAE700E800FE30BCBDE854
:100F4000C08F000000B500680F4987B0884218D1F3
:100F50004FF4C06000901220019001200290032005
:100F600003900420049069464FF09040FFF7FCFC8A
:100F70000648816D41F400118165806D00F4001018
:100F8000059007B000BD0000005400400010024072
:100F900002480168491C0160704700000000002001
:100FA00010B50024032000F099F8002000F008F8A4
:100FB00008B1012401E000F01BF8204610BD00003C
:100FC00070B5054609484FF47A7100240068B0FBFB
:100FD000F1F000F02CFE08B1012404E000222946C3
:100FE000501E00F05BF8204670BD00002400002079
:100FF0001E4808B5016E41F001010166016E01F065
:1010000001010091816D41F080518165806D00F09A
:1010100080500090032000F061F8002211466FF02C
:101020000B0000F03BF8002211466FF00A0000F0C0
:1010300035F8002211466FF0090000F02FF8002269
:101040001146501F00F02AF800221146101F00F030
:1010500025F800221146901E00F020F80022BDE87D
:1010600008401146501E00F019B800000010024060
:1010700000F01F02012191404009800000F1E020B2
:10108000C0F88011704700F01F0201219140400913
:10109000800000F1E020C0F800117047F0B40E4B62
:1010A0001B680C46C3F30223C3F10705042D00D9C6
:1010B0000425191D072901D2002300E0DB1E0126AB
:1010C00006FA05F1491E214099409E40761E1640C1
:1010D0003143F0BC01F00CB90CED00E0064900F022
:1010E000070208684FF6FF03184040EA0220034A4F
:1010F00010430860704700000CED00E00000FA05A6
:101100001649B0F5007F0868C0F3412009D00228D5
:1011100005D0086820F4C06040F4806008600020BA
:1011200070470128FBD0086820F4C06040F40070CC
:1011300008600B483222006850430A4AB0FBF2F0C4
:10114000401C00E0401E4A69520501D50028F9D133
:1011500048694005E3D50320704700000070004057
:101160002400002040420F000248006800F4C060E4
:1011700070470000007000400248016841F480712F
:1011800001607047007000400248016841F00401AE
:1011900001607047001002402DE9F84F0446002717
:1011A0000088A84D3E46000515D5606C60B1B0F5CD
:1011B000000F04D0B0F5400F2BD001270AE0E868FB
:1011C00040F48030E86024E00021201D01F0A2F806
:1011D00007001ED03E46206880033AD5A86D4FF028
:1011E0000008C00009D4A86D40F08050A865A86D23
:1011F0004FF0010800F080500090DFF84CA2DAF8C0
:10120000001041F48071CAF80010FFF77FFC81469E
:1012100010E0D5F88800616C20F440000843C5F860
:101220008800D8E7FFF772FCA0EB0900022801D97B
:10123000032705E0DAF80000C005F3D5002F7DD0C4
:101240004FEA0706B8F1000F03D0A86D20F08050D8
:10125000A8652078C00707D0D5F88800216A20F05B
:1012600003000843C5F888002078800707D5D5F823
:101270008800616A20F00C000843C5F888002078D7
:10128000400707D5D5F88800A16A20F03000084350
:10129000C5F888002078800607D5D5F88800E16A6F
:1012A00020F440600843C5F888002088800507D5F1
:1012B000D5F88800E16B20F440200843C5F8880089
:1012C0002088400507D5D5F88800216C20F440100F
:1012D0000843C5F888002078400607D5D5F888006F
:1012E000216B20F440500843C5F8880020780006A0
:1012F00007D5D5F88800616B20F440400843C5F855
:1013000088002088C00507D5D5F88800A16B20F497
:1013100040300843C5F8880020684FF0006700039C
:101320004FF0806850D5D5F88800A16C20F040605F
:101330000843C5F88800A06CB84200E005E03BD146
:10134000E86840F48010E8603EE0D5F8900010F4C2
:10135000407014D0A16D814211D0D5F89000D5F81D
:10136000901020F4407041F48031C5F89010D5F809
:10137000901021F48031C5F89010C5F89000C00796
:1013800011D0FFF7C3FB074641F2883907E000BFE1
:10139000FFF7BCFBC11B494501D9032652E7D5F82D
:1013A00090008007F4D5D5F89000A16D20F440702E
:1013B0000843C5F8900045E7404505D10121201DAF
:1013C00000F0A8FF00B106462068400317D5D5F805
:1013D0008800E16C20F040600843C5F88800E06CAC
:1013E000B84204D1E86840F48010E86007E0404566
:1013F00005D10121201D00F08DFF00B10646208897
:10140000400411D5D5F88800216D20F040500843E4
:10141000C5F88800206DB0F1805F05D10221201D44
:1014200000F078FF00B106462088000406D555F884
:10143000880F616D20F0804008432860304600F03E
:1014400005B80000001002400070004018BCBDE864
:10145000E08F00002DE9F0470F46050058D03F4EC1
:10146000306800F00700B84209D2306820F0070069
:1014700038433060306800F00700B84248D128781F
:10148000374CC0072CD06868032811D0022812D02E
:10149000216898B1490500293ADAA16821F00301D1
:1014A0000143A160FFF732FB804641F2883910E02A
:1014B00021688901EFE721688903ECE78907EAE7FA
:1014C000FFF724FBA0EB0801494502D90320BDE842
:1014D000F087A068696800F00C00B0EB810FEFD1D5
:1014E0002878800705D5A068A96820F0F000084397
:1014F000A060306800F00700B8420BD9306820F0D7
:10150000070038433060306800F00700B84201D06F
:101510000120DCE72878400705D5A068E96820F4B9
:10152000E0600843A0602878000706D5A068296914
:1015300020F4605040EAC100A06000F041F8A168CA
:10154000084AC1F30311515C01F01F01C84006496C
:101550000860BDE8F0470020FFF732BD00200240E0
:1015600000100240CC42000824000020014800681E
:10157000704700002400002005480649006889687B
:10158000054AC1F30221515C01F01F01C8407047B8
:1015900024000020001002400C43000805480649C2
:1015A00000688968054AC1F3C221515C01F01F013E
:1015B000C840704724000020001002400C4300087F
:1015C00070B52549002318468A68CC6812F00C02D1
:1015D00004F00306214C4FEA640509D00C2A05D01B
:1015E000042A26D0082A00D1284670BD012E10D129
:1015F0000B681B0704D4D1F89430C3F3032302E033
:101600000B68C3F30313164E56F823307AB10C2A35
:10161000EBD1C86800F00302C868C0F30210401C98
:10162000022A08D0032A09D0B3FBF0F008E01846DC
:1016300070BD204670BDB4FBF0F001E0B5FBF0F0EA
:10164000CA68C968C2F306225043C1F34161491C0C
:101650004900B0FBF1F070BD001002400024F4001E
:10166000DC4200082DE9F84305007CD0FD4CA06861
:1016700000F00C06E06800F003072878C00662D589
:1016800076B10C2E01D1012F0AD0A869002820685C
:1016900078D040F001002060FFF738FA804659E02A
:1016A0002068800702D5A8690028DED0296A206852
:1016B000000703D5206800F0F00004E0D4F894009F
:1016C000F02202EA1010814216D9084600F0B8FE56
:1016D000002848D1206840F0080020602068296A6E
:1016E00020F0F000084320606068E96920F47F4042
:1016F00040EA0120606015E0206840F008002060AA
:101700002068296A20F0F000084320606068E969D9
:1017100020F47F4040EA01206060286A00F090FEDB
:101720000028D6D1FFF74CFFA168CF4AC1F30311BF
:10173000515C01F01F01C840CC4908600020FFF750
:101740003FFC00287ED12EE0FFF7E0F9A0EB080077
:10175000022878D820688007F6D5206840F0080075
:101760002060206801E0BBE00CE0296A20F0F00076
:10177000084320606068E96920F47F4040EA012066
:10178000606010E020F001002060FFF7BFF98046A4
:1017900006E000BFFFF7BAF9A0EB08000228D8D88E
:1017A00020688007F6D42878C00740D0082E18D0CB
:1017B0000C2E01D1032F14D06868B0F5803F17D0EC
:1017C000B0F5A02F206817D020F48030206020686A
:1017D00020F4802020606868E0B1FFF797F9804628
:1017E00014E02068800322D56868002878D01EE0C5
:1017F000206840F48030EDE740F480202060F7E777
:10180000FFF784F9A0EB08006428A2D820688003C1
:10181000F6D50CE0FFF77AF9804605E0FFF776F998
:10182000A0EB0800642894D820688003F6D42878B8
:1018300080073BD5042E11D00C2E01D1022F0DD0E4
:10184000E86801E05EE1B8E0002820681ED040F4BE
:1018500080702060FFF75AF907460CE020684005C9
:101860000CD5E8680028C1D008E000BFFFF74EF9AA
:10187000C01B022893D820684005F7D56068297CF2
:1018800020F0F85040EA016060600FE020F48070C2
:101890002060FFF73BF9074605E000BFFFF736F988
:1018A000C01B0228B1D820684005F7D4287800076B
:1018B00029D568690028D4F8940012D040F00100BE
:1018C000C4F89400FFF722F9074604E0FFF71EF979
:1018D000C01B022871D8D4F894008007F6D512E016
:1018E00017E120F00100C4F89400FFF70FF9074654
:1018F00005E000BFFFF70AF9C01B02285DD8D4F845
:1019000094008007F6D42878400766D5A06D00279C
:10191000C00008D4A06D40F08050A065A06D0127E4
:1019200000F08050009052480168C90512D4016847
:10193000814641F480710160FFF7E8F8804605E0D8
:10194000FFF7E4F8A0EB0800022836D8D9F8000029
:10195000C005F5D5A868012816D00528D4F8900050
:1019600017D020F00100C4F89000D4F8900020F0C7
:10197000040000BFC4F89000A86841F28839C0B1E3
:10198000FFF7C4F880460FE0D4F8900040F0010063
:10199000F0E740F00400C4F89000F5E7FFF7B6F870
:1019A000A0EB0801494508D8D4F890008007F5D588
:1019B0000EE0FFF7ABF8804606E07CE0FFF7A6F804
:1019C000A0EB0801494576D8D4F890008007F5D4FB
:1019D0001FB1A06D20F08050A0652878800628D522
:1019E000686A0028D4F8980012D040F00100C4F8CA
:1019F0009800FFF78BF8074605E000BFFFF786F871
:101A0000C01B02287DD8D4F898008007F6D510E0D6
:101A100020F00100C4F89800FFF778F8074604E0CA
:101A2000FFF774F8C01B02286BD8D4F89800800721
:101A3000F6D4A86AF0B30C2E6BD00228206820F0F0
:101A40008070206018D02068000103D4E06820F086
:101A50000300E060E06807490840E060FFF756F8DF
:101A6000054651E000100240CC420008240000204E
:101A700000700040FFFFEEFEFFF748F8064604E066
:101A8000FFF744F8801B02283BD820688001F7D478
:101A9000286B55F82C1F000110380843298A1E4A6C
:101AA000490802EB4151AA6841EA02210843297D15
:101AB000490801E02BE024E04FF07E4202EB416157
:101AC0000843297B40EAC160E060206840F08070F4
:101AD0002060E06840F08070E060FFF717F805468E
:101AE00005E000BFFFF712F8401B022809D8206864
:101AF0008001F7D50BE000BFFFF708F8401B022874
:101B000002D90320BDE8F88320688001F4D40020C6
:101B1000F8E70120F6E700000000E0FF2DE9F041C2
:101B2000040005D00025A56294F85D0018B107E017
:101B30000120BDE8F08184F85C50204600F044F8B4
:101B4000022384F85D302068016821F040010160C3
:101B5000E0684FF4E066B04201D9002101E04FF4A3
:101B60008051B0F5706F02D0B04200D0A562276BF3
:101B7000012227B9B04201D9236300E02263D4E9EE
:101B800001031843D4E9043633431843238B03F489
:101B900000731843E3691843236A1843A36A184380
:101BA00023681860636B606AA66918430427E368BA
:101BB00007EA164633431843084321684860256600
:101BC00084F85D200020B4E700B500680E4987B0B6
:101BD000884217D10D48816D41F480418165806D47
:101BE000694600F4804005904FF460400090022068
:101BF00001900020029003200390052004900448E7
:101C0000FEF7B2FE07B000BD0038004000100240F1
:101C1000000400484FF0E0210428086903D020F0B8
:101C200004000861704740F00400FAE7704710B5FF
:101C3000401EB0F1807F01D3012010BD4FF0E024A1
:101C400060610F21601700F053FB0020A0610720A6
:101C50002061002010BD10B5FFF7E8FF10BD10B5E2
:101C6000040003D094F8710010B107E0012010BD0A
:101C7000002084F87000204600F026F8242084F824
:101C800071002068016821F001010160204600F028
:101C900047FD0128EBD0606A10B1204600F0AEFC91
:101CA0002068416821F4904141602068816821F0FA
:101CB0002A0181602068016841F00101016020462D
:101CC000BDE8104000F0FEBC00B500680E4987B0CA
:101CD000884216D10D48016E41F480410166006EC4
:101CE000694600F480400590C020009002200190D9
:101CF0000020029003200390072004900448FEF780
:101D000033FE07B000BD0000003801400010024063
:101D1000000400482DE9F843044690F871001F467E
:101D200016460D4620284BD1C5B1BEB194F87000BF
:101D3000012845D0012084F870004FF00008C4F855
:101D40007480212084F87100FEF7E0FEA4F8506052
:101D50008146A4F852604FF4805615E00120BDE89A
:101D6000F8838021204600F005FED8B9A068B04273
:101D700001D12069C0B115F8010B21680885B4F8BC
:101D80005200401EA4F85200B4F852004B464FF0E7
:101D9000000200970028E4D14FF04001204600F0F7
:101DA000E9FD30B10320DAE735F8020BC0F3080093
:101DB000E3E7202084F8710084F870800020CEE7EB
:101DC0000220CCE7FEE701688A69D243920701D47A
:101DD00000228A6200688169C943C90703D081690A
:101DE00041F00101816170472DE9F041044600682E
:101DF00090460E468069C043C00633D40025202794
:101E000020688069C043800615D5701CF8D0FEF7A5
:101E10007DFEA0EB0800B04201D8002EF0D154F8AE
:101E2000440F40F0200044F804096770A570257045
:101E30000120BDE8F08121681020C8612068C761D9
:101E40002046FFF7C0FF54F8440B4168064A114092
:101E50004160206840F0040044F820096777A577C6
:101E60002577E5E70020E4E700E800FE2DE9F843E8
:101E700004461646DDE9089714489846DAB2009001
:101E80000023204600F056F83A464946204600F026
:101E9000B9F8B8B9F5B2B8F1010F08D02168300A25
:101EA00088623A464946204600F0ACF850B92068AE
:101EB00085624B46002240212046009700F050F8F2
:101EC000002800D00120BDE8F88300000020008039
:101ED0002DE9F8430446164615489846DDE908976B
:101EE000DAB2C3020090204600F024F83A46494690
:101EF000204600F087F8B8B9F5B2B8F1010F08D064
:101F00002168300A88623A464946204600F07AF84D
:101F100050B9206885624B460022802120460097F8
:101F200000F01EF8002800D00120BDE8F883000072
:101F300000200080F0B50568059C68684FF4806655
:101F4000064FC1F3090106EA545641EA02413E43F5
:101F50001943B043214308436860F0BDFF63FF03AA
:101F60002DE9F0411D4617460E460446DDF818805F
:101F700008E0681C06D0FEF7C9FDA0EB0800A842E7
:101F80000BD855B12068806936EA000012D00020D5
:101F9000B842EED00020BDE8F08154F8440F40F084
:101FA000200044F80409202060700020A0702070F8
:101FB0000120F0E70120EBE770B516460D46044618
:101FC0000DE0324629462046FFF70EFF08B10120FA
:101FD00070BDFEF79BFD801BA84207D835B1206875
:101FE0008069C0438006ECD4002070BD54F8440FD3
:101FF00040F0200044F80409202060700020A07008
:102000002070E4E770B516460D4604460FE03246F0
:1020100029462046FFF7E8FE08B1012070BD681C84
:1020200005D0FEF773FD801BA84207D835B12068A4
:102030008069C0438007EAD4002070BD54F8440F83
:1020400040F0200044F80409202060700020A070B7
:102050002070E2E710B500F04BFA0D4C012202218E
:102060002046FEF74DFD012211462046FEF748FDB1
:1020700000BF00BF002202212046FEF741FD00BF45
:1020800000BF00222046BDE810400121FEF738BD08
:102090000008004810B500F02BFA0A4C002202217B
:1020A0002046FEF72DFD00BF012211462046FEF717
:1020B00027FD00BF00BF01222046BDE810400221DD
:1020C000FEF71EBD000800482DE9F043394887B0EF
:1020D000C16C41F00401C164C16C01F004010591BF
:1020E000C16C41F00101C164C16C01F001010591B5
:1020F000C16C41F00201C164C06C2F4F00F00200BE
:102100000590002247213846FEF7FAFC4FF0904830
:10211000002202214046FEF7F3FCDFF8A0900022E7
:1021200040F206314846FEF7EBFC01224FF48151A4
:102130004846FEF7E5FC0122D1034046FEF7E0FCED
:102140004720009001250024CDE901546946384616
:102150000394FEF709FC1A4E0095CDE90164694627
:102160004046FEF701FC48F202000090CDE9015420
:10217000694640460394FEF7F7FB2020CDE90006B0
:10218000694602943846FEF7EFFB41F22630009094
:10219000CDE90154694648460394FEF7E5FB002269
:1021A00011460620FEF77AFF0620FEF76CFF07B007
:1021B000BDE8F08300100240000800480004004819
:1021C00000001110174810B51549016040F6146160
:1021D000416000210122C0E9021201614161816177
:1021E000C1610162FEF7ECFC18B142210EA000F0C3
:1021F00063FC00210B48FEF78FFC18B149210AA0AF
:1022000000F05AFC00210748FEF7B1FC002805D079
:10221000BDE81040502104A000F04EBC10BD0000ED
:10222000005400405C0000202E2E2F5372632F6953
:1022300032632E6300000000134810B5114901609D
:102240004FF48271416000214FF4E062C0E9021254
:102250004FF400720161C0E90512C16101620722F9
:102260004162C0E90A12016308214163FFF756FC8D
:10227000002805D0BDE81040472104A000F01CBC98
:1022800010BD000000380040A80000202E2E2F5363
:1022900072632F7370692E63000000000E4810B542
:1022A0000C4901604FF4E1314160002181600C2252
:1022B000C160C0E904128161C16101624162FFF73E
:1022C000CEFC002805D0BDE81040442103A000F05A
:1022D000F3BB10BD003801400C0100202E2E2F53FF
:1022E00072632F75736172742E630000FEE770478E
:1022F0000907090E002806DA00F00F0000F1E020BF
:1023000080F8141D704700F1E02080F80014704739
:10231000704700002DE9F041444C05468846E068CE
:102320000026810728680DD0E16801F00301814291
:1023300016D1A8B1E0686968C0F30210401C884259
:102340000ED120E0012804D0022805D0032807D1AF
:1023500008E02168890701E021684905002907DBB9
:1023600001265FE02168890302D421684903F5E76B
:10237000E1686A686FF00F0321F0730103EB02124A
:1023800011430143E160206820F080602060FEF787
:10239000BDFB074605E000BFFEF7B8FBC01B0228E7
:1023A00037D820680001F7D4B8F1000F18D0B8F181
:1023B000010F1DD0287D4FF07E41400801EB4060A9
:1023C000A96840EA01202169194A114008432061A7
:1023D000206840F080602060FEF798FB07461AE016
:1023E000A868297B000240EAC1602169114AECE734
:1023F000288A1149400801EB4050A96840EA0120B1
:1024000021690E4AE1E700BFFEF780FBC01B0228EE
:1024100001D9032606E020680001F5D52069A969E5
:10242000084320613046BDE8F08100000010024002
:10243000FF80FFF9FF80FF070000E0FFFF809FFFA4
:10244000F8B51C4D06460024A86DC00002D5FEF765
:102450008BFE0DE0A86D40F08050A865A86D00F0DF
:1024600080500090FEF780FEA96D21F08051A96593
:10247000B0F5007F04D0802E07D94FF003040AE0A6
:10248000802E08D9A02E01D804E001D1022402E058
:10249000702E00D101240848016821F00701214372
:1024A0000160006800F00700A04201D00120F8BDE3
:1024B0000020F8BD001002400020024010B50A20A4
:1024C000FEF74AF9094C002204212046FEF718FBCA
:1024D0003220FEF741F9012204212046FEF710FBCD
:1024E000BDE810406420FEF737B90000000800483E
:1024F00000B585B0022000900120019002900320D9
:10250000039069460248FEF72FFA05B000BD0000AF
:1025100000080048704710B5FEF73AFDBDE81040CE
:10252000FFF799BB10B5AEB0FEF726FE214850F874
:10253000901F21F018010160142000900120002458
:102540000290CDE90604A02008900A946846FFF79F
:1025500089F800B1FEE70F20CDE928042A942B94D6
:10256000012128A82C94FEF775FF00B1FEE7412059
:10257000119019941D9411A8FEF70EFE00B1FEE70C
:102580004FF40070FEF7BCFD00B1FEE7FEF7EEFF72
:102590004FF47A71B0FBF1F0FFF749FB0420FFF72D
:1025A00039FBFEF7F1FD00221146501EFEF776FDC5
:1025B0002EB010BD001002400D48016841F47001BA
:1025C00001600C48016841F0010101600021816057
:1025D0000268094B1A4002608214C260026822F449
:1025E0008022026081610249C0038039086070471F
:1025F00088ED00E000100240FFFFF6EA90F824109A
:10260000C90706D001684A68836A22F400321A4377
:102610004A6090F82410890706D501684A68C36AA1
:1026200022F480321A434A6090F82410490706D5F4
:1026300001684A68036B22F480221A434A6090F8CA
:102640002410090706D501684A68436B22F400424A
:102650001A434A6090F82410C90606D501688A68B2
:10266000836B22F480521A438A6090F82410890602
:1026700006D501688A68C36B22F400521A438A6047
:1026800090F82410490611D501684A68036C22F4B9
:1026900080121A434A60016CB1F5801F06D10168AF
:1026A0004A68436C22F4C0021A434A6090F824102E
:1026B000090606D501684A68806C22F400220243AC
:1026C0004A607047F8B5002604464667FEF71EFAD2
:1026D0000546206800686FF07E47000708D52B4646
:1026E00000224FF400112046009700F043F960B932
:1026F0002068006840070AD52B4600224FF480016D
:102700002046009700F036F908B10320F8BD2020DC
:1027100084F8710084F8720084F870600020F8BDBD
:102720002DE9F0410446016880682369E669184391
:1027300063691025002733431843844A0B68844E8D
:10274000334003430B6020684168E36821F4405143
:10275000194341602168A069914201D0236A18435E
:102760008B6823F4306303438B607A4B21687A488B
:1027700099420DD1D0F8880010F0030006D001284E
:1027800039D0022835D0032838D136E0012535E08C
:10279000724B99420BD1D0F8880010F00C0026D073
:1027A000042828D0082824D00C2827D125E06C4BF9
:1027B00099420BD1D0F8880010F0300017D01028C3
:1027C00019D0202815D0302818D116E0914215D103
:1027D000D0F8880010F4406009D0B0F5806F0AD0BE
:1027E000B0F5006F05D0B0F5406F07D105E00025CA
:1027F00004E0022502E0042500E00825594B0026EC
:102800004FF4004091423DD135B1022D07D0042D47
:1028100007D0082D10D107E0FEF7AEFE03E0184602
:1028200002E0FEF7CDFEA8B3626802EB42018142EE
:1028300002D8B0EB023F01D9012774E0DFF828810C
:102840005DB1022D0CD0042D13D0082DF4D1500809
:102850002905401846F1000105E0FEF78DFE0AE06B
:1028600050084249F5E70023FDF7ACFCA0F54071A4
:1028700055E0FEF7A5FE6268010E03025008181825
:102880007141F0E7E1694FF6EF7881422ED1092DD1
:10289000D2D200E047E0DFE805F006091F05220577
:1028A00005052500C8E7FEF767FE01E0FEF776FEA6
:1028B0004100606801EB5001B1FBF0F080B2A0F183
:1028C00010014145B8D84FF6F0710140C0F3420005
:1028D00001432068C16026E025496068EAE7FEF709
:1028E0006FFEE5E74FF480316068E3E7092DA3D27E
:1028F000DFE805F006091E052205050525009BE712
:10290000FEF73AFE01E0FEF749FE0146606801EB82
:10291000500100BFB1FBF0F080B2A0F110014145C1
:102920008AD82168C860266638466666BDE8F081A8
:10293000606803EB5001EDE7FEF742FEE5E76168F2
:1029400000EB5100B0FBF1F0E6E700000080004032
:10295000F369FFEF003801400010024000440040DE
:10296000004800400024F400FFFC0F00000024F4A5
:102970000048E8012DE9F041984617460E46044606
:10298000069D1DE0681C1BD02DB1FEF7BFF8A0EB23
:102990000800A84214D92068016821F4D0710160B0
:1029A0002068816821F001018160202084F8710095
:1029B00084F87200002084F870000320BDE8F081E4
:1029C0002068C06936EA000004D00020B842D9D09F
:1029D0000020F3E70120F9E7FEE710B50446FFF712
:1029E00039FB782000F01CF8002000F019F8204690
:1029F00000F016F8BDE81040FFF74CBB10B50446D8
:102A0000FFF728FB782000F00BF8402000F008F8D2
:102A1000204600F005F8BDE81040FFF73BBB000082
:102A200070B586B00546FFF763FD224E00242806E8
:102A300001D5012200E0002202213046FEF760F8B5
:102A40006806050E00BF012211463046FEF758F811
:102A500000BF00BF002201213046FEF751F8641C80
:102A6000E4B2082CE3D3012202213046FEF748F8F5
:102A700000BF00BF022000900020019001200290C2
:102A80000320039069463046FDF76EFF0122114690
:102A90003046FEF735F800BF00BF02213046FEF792
:102AA0002AF80446002201213046FEF729F806B034
:102AB000204670BD00080048FEE700000FB4054B3B
:102AC00010B503A9044A029800F018F810BC5DF88C
:102AD00014FB0000393800085000002002E008C84C
:102AE000121F08C1002AFAD170477047002001E088
:102AF00001C1121F002AFBD1704700002DE9FF4FD2
:102B00008DB09B460F460446002606E025280BD0D4
:102B10005A460F999047641C761C20780028F5D1FE
:102B200011B0304600F04AB90025A8460122984964
:102B300000E0054314F8013F203B02FA03F008428D
:102B4000F7D120782E2817D114F8010F45F004058D
:102B50002A280ED06FF02F022078A0F13001092929
:102B60000AD808EB880102EB410100EB0108641C64
:102B7000F2E757F8048B641C20786C280DD004DC35
:102B80004C2812D06A2811D104E074280DD07A287C
:102B90000CD10AE045F4001507E0617845F4801592
:102BA000814202D1641C05F58015641C2278692AD3
:102BB00045D008DC002AB3D0582A69D0632A10D047
:102BC000642A08D13BE0702A67D0732A13D0752A93
:102BD0005CD0782A5CD010465A460F999047761CF4
:102BE000D3E017F8040B8DF8000000208DF80100E9
:102BF000E946012003E057F8049B4FF0FF306907D6
:102C00004FF0000501D40AE06D1C45450DDA854200
:102C1000FADB19F805100029F6D106E06D1C854293
:102C2000FCDB19F805100029F8D12E4404E019F84E
:102C3000010B5A460F9990476D1EF8D2A5E00A2065
:102C40000021CDE90801C5F3025002280DD001CFC3
:102C5000C117031E71F100030DDA4FF0000CD0EB29
:102C60000C006CEB01012D2308E0FF1D27F0070786
:102C7000F7E80201EDE72B0504D52B238DF828306A
:102C800001233BE0EB0739D02023F7E70A2000E0DF
:102C900010200021CDE9080107E01020002145F0B7
:102CA0000405CDE908014FF00808C5F302500228D9
:102CB0000FD001CF00214FF0000A2B071FD5702A3B
:102CC0000DD0DDE908C38CF0100C5CEA030C0CD0CD
:102CD00015E0FF1D27F00707F7E80201EBE74022A8
:102CE0008DF828204FF0010A0BE050EA010306D0CE
:102CF00030238DF828308DF8292002239A46582A4F
:102D000004D024A20DF120090B9209E026A2F9E7D4
:102D1000DDE90823FDF756FA0B9B9B5C09F8013DA2
:102D200050EA0102F4D1ADEB0900203008906807A9
:102D300001D44FF001080899884502DDA8EB010095
:102D400000E000208046002506E00AA85A46405DC3
:102D50000F9990476D1C761C5545F6DB04E030203A
:102D60005A460F999047761CB8F10001A8F1010866
:102D7000F5DC05E019F8010B5A460F999047761CCF
:102D80000899481E08900029F4DC641CC5E6000080
:102D90000928010030313233343536373839616231
:102DA00063646566000000003031323334353637F5
:102DB00038394142434445460000000030BCBDE87C
:102DC000C08F0000054900EB40020870C2EBC01044
:102DD0004FF6FF7202EAC0004880704738000020BA
:102DE0002DE9F041002408226349644801F034F8D9
:102DF000614E3088401EB0F5957F71D8B0880028AC
:102E00006ED05F4FB088042815D81CB104F00300C1
:102E1000410077E0FDF7BCFB002506E06806010EE7
:102E2000284600F00BFA6D1CEDB2B088A842F5D828
:102E30000021084666E02CB1797808290FD00229D4
:102E40003DD061E0FDF7A4FB00256806010E284691
:102E500000F0F4F96D1CEDB2042DF6D3E8E7A107FC
:102E600009D0A007450FA81EC1B2601EC0B200F075
:102E7000E5F9294645E0001B800703D0FDF788FBF4
:102E8000002515E0FDF784FB00256806010E2819D2
:102E9000C0B200F0D3F96D1CEDB2042DF5D30BE0F8
:102EA0006806010E2819C0B200F0C8F96D1CEDB219
:102EB000B088001BA842F3DCA007410F21E0A10766
:102EC000B1F1404F0DD0401EA04202D1FDF760FB92
:102ED000F2E7601C8107490FC0B200F0AFF9EBE7E1
:102EE00048E000254FF00608694208EB4100C1B2F6
:102EF000601BC0B200F0A2F96D1CEDB2042DF3D33B
:102F00000621204600F0F0F94CF250354FF0000851
:102F1000387801280AD187F80080787802280DD007
:102F2000082810D00B2815D00A281DD0642000F0E6
:102F30009FFF6D1E2D042D0CEAD117E004B93479E2
:102F4000641EE4B25EE7641CB088E4B2A042F9D12A
:102F5000002457E7204601F0A9F810B100F07AF8F4
:102F6000F6E700F091F8F3E7002D03D1BDE8F0415A
:102F7000FDF70EBBBDE8F0814800002000200308EB
:102F800028000020F8B5FDF703FB0024094E1825A2
:102F900005EB0410C0B20090102206EB441003238E
:102FA000114600F0F7F9641C052CF1DBBDE8F84090
:102FB00000F0A8BDD4570008F8B5FDF7E9FA0024E1
:102FC000094E202505EB0410C0B20090102206EB3C
:102FD00044100323114600F0DDF9641C042CF1DBDE
:102FE000BDE8F84000F08EBD94560008F8B5FDF736
:102FF000CFFA0024094E102505EB0410C0B2009052
:10300000102206EB44100323114600F0C3F9641CA0
:10301000062CF1DBBDE8F84000F074BD1457000841
:1030200038B5FDF7B5FA0A4D00246007000E009090
:1030300004EB440005EB801001233022202100F036
:10304000D3F9641C042CF0DBBDE8384000F05ABD15
:1030500094530008F8B5FDF79BFA0024094E20258B
:1030600005EB0410C0B20090102206EB44100323BD
:10307000114600F08FF9641C042CF1DBBDE8F84028
:1030800000F040BDF4580008F8B5FDF781FA0024BF
:10309000094E202505EB0410C0B20090102206EB6B
:1030A00044100323114600F075F9641C042CF1DB75
:1030B000BDE8F84000F026BD74580008F8B5FDF7EB
:1030C00067FA0024454F022505EBC400C0B200900A
:1030D00007EB041000231022082100F05BF9641CA8
:1030E000022CF1DB0026122404EB0610C0B2009083
:1030F00007EB4610102200231146203000F04AF959
:10310000761C042EF0DB354F0026A03705EBC600F9
:10311000C0B2009007EB061002231022082100F035
:1031200039F9761C022EF1DB5FF0000604EB061085
:10313000C0B2009007EB4610102202231146203047
:1031400000F028F9761C042EF0DB254F002600BF86
:1031500005EBC600C0B2009007EB06100423102256
:10316000082100F017F9761C022EF1DB5FF0000653
:1031700004EB0610C0B2009007EB461010220423A7
:103180001146203000F006F9761C042EF0DB144FB7
:103190000026A03705EBC600C0B2009007EB061072
:1031A00006231022082100F0F5F8761C022EF1DB30
:1031B0005FF0000504EB0510C0B2009007EB45106E
:1031C000102206231146203000F0E4F86D1C042D77
:1031D000F0DBBDE8F84000F095BC00007446000844
:1031E000B447000808B50B290CDA182202EBC1011C
:1031F000C9B200910649032301EB001010220821F7
:1032000000F0C8F8BDE80840032000F09BBC0000B7
:1032100044440008102108B501EBC000C0B20A46C2
:10322000009003230821044800F0B4F8BDE80840EA
:10323000032000F087BC0000E44400082DE9F843B7
:1032400088460221264F0A26264D0446092818D80A
:10325000009107EB001043461022082100F09AF875
:103260005FF0000406EB0410C0B20090102205EBE2
:1032700044104346114600F08DF8641C032CF1DB2A
:103280002AE0A4F10A00592826D8B4FBF6F00091F0
:1032900007EB001043461022082100F07BF8B4FB36
:1032A000F6F006FB104007EB001043461022082101
:1032B000009600F06FF800245FF0120606EB041091
:1032C000C0B20090102205EB44104346114600F0B6
:1032D00061F8641C032CF1DBBDE8F84300F012BC7C
:1032E00044440008745900082DE9F8438846022137
:1032F000264F0A26264D0446092818D8009107EBC8
:10330000001043461022082100F06EF85FF0000420
:1033100006EB0410C0B20090102205EB44104346A7
:10332000114600F061F8641C032CF1DB2AE0A4F1E3
:103330000A00592826D8B4FBF6F0009107EB0010DC
:1033400043461022082100F04FF8B4FBF6F006FBCC
:10335000104007EB0010434610220821009600F0B1
:1033600043F800245FF0120606EB0410C0B2009090
:10337000102205EB44104346114600F035F8641C5A
:10338000032CF1DBBDE8F84300F0BCBB444400086B
:10339000745900082DE9F047824699460020DFF86D
:1033A0004480089F19E000BF09EB0006082E17D8DB
:1033B000002300FB01F40CE0FD18802D0BD80AEB74
:1033C000030C08EBC50514F80CC05B1C05F806C01F
:1033D0009BB28B42F0D3401C80B2B0EBD20FE3D350
:1033E000BDE8F087840100202DE9F0478246994628
:1033F0000020DFF84880089F1BE000BF09EB0006B3
:10340000082E19D8002300FB01F40EE0FD18802DD2
:103410000DD80AEB030C08EBC50514F80CC05B1CB7
:103420006FEA0C0C05F806C09BB28B42EED3401C31
:1034300080B2B0EBD20FE1D3BDE8F0878401002069
:10344000F8B5FDF7A5F80024094E182505EB041082
:10345000C0B20090102206EB441000231146FFF783
:1034600099FF641C052CF1DBBDE8F84000F04ABB75
:10347000F4440008F8B5FDF78BF80024094E082540
:1034800005EB0410C0B20090102206EB441000239C
:103490001146FFF77FFF641C072CF1DBBDE8F84005
:1034A00000F030BB9445000838B5044601460AA038
:1034B000FFF704FB062C0AD8102000EBC400C0B2B2
:1034C00000900423102208210748FFF763FFBDE89E
:1034D000384000F017BB00000D0A206C6F63617468
:1034E000653A25640D0A00007453000838B5044697
:1034F00001460AA0FFF7E2FA062C0AD8102000EBDA
:10350000C400C0B200900423102208210748FFF72E
:1035100041FFBDE8384000F0F5BA00000D0A206C0C
:103520006F636174653A25640D0A000084530008D6
:10353000F8B5FDF72DF80024344F022505EBC40043
:10354000C0B2009007EB0410002310220821FFF7FF
:1035500021FF641C022CF1DB0026122404EB061070
:10356000C0B2009007EB4610102200231146203015
:10357000FFF710FF761C042EF0DB244F0026A03747
:1035800005EBC600C0B2009007EB06100223102224
:103590000821FFF7FFFE761C022EF1DB5FF000062C
:1035A00004EB0610C0B2009007EB46101022022375
:1035B00011462030FFF7EEFE761C042EF0DB144F90
:1035C000002600BF05EBC600C0B2009007EB061056
:1035D000042310220821FFF7DDFE761C022EF1DB0A
:1035E0005FF0000504EB0510C0B2009007EB45103A
:1035F0001022042311462030FFF7CCFE6D1C052D50
:10360000F0DBBDE8F84000F07DBA0000D44C0008C3
:10361000144E0008F8B5FCF7BBFF0024344F022518
:1036200005EBC400C0B2009007EB04100023102289
:103630000821FFF7AFFE641C022CF1DB00261224E8
:1036400004EB0610C0B2009007EB461010220023D6
:1036500011462030FFF79EFE761C042EF0DB244F2F
:103660000026A03705EBC600C0B2009007EB06109D
:10367000022310220821FFF78DFE761C022EF1DBBB
:103680005FF0000604EB0610C0B2009007EB461096
:103690001022022311462030FFF77CFE761C042EF8
:1036A000F0DB144F002600BF05EBC600C0B200904F
:1036B00007EB0610042310220821FFF76BFE761C8F
:1036C000022EF1DB5FF0000504EB0510C0B20090A4
:1036D00007EB45101022042311462030FFF75AFE55
:1036E0006D1C052DF0DBBDE8F84000F00BBA0000C2
:1036F000D44A0008144C00082DE9FF476421242017
:10370000FCF7C1FD2E4C2060E8B10822211D2D4898
:1037100000F0A2FB251DE88800906B88AA88298804
:1037200029A0FFF7CBF92888DFF8B890801E4FF466
:103730006168B0F5957F25D242464846216800F081
:103740008BFB002619E004B027A0BDE8F047FFF787
:10375000B5B900BF216806EBC60001EB8000817996
:10376000477A037AC2798DE88E004379027931462F
:1037700026A0FFF7A3F9761CF6B2A888B042E9D8D4
:1037800000F056B800252E465FF00107206805EBD3
:10379000C50100F8216000EB810020214770867090
:1037A000001DFCF74AFD6D1CEDB2642DEED32168BF
:1037B00004B042464846BDE8F04700F0EFBA0000CA
:1037C00044000020002003080D0A205B3078257893
:1037D0002C307825782C307825782C307825785D39
:1037E0000D0A000000C001080D0A2063616C6C6FB7
:1037F00063206B65795F626F6172645F666C617391
:1038000068206661696C6564200D0A000D0A2064F9
:103810006174615B25645D3A25642025642025641C
:10382000202564202564202564200D0A0000000066
:103830000FBCBDE8F087000013B54FF6FF730122FF
:1038400069460248FEF766FA00981CBD0C0100208C
:1038500010B5AE20FFF7C1F8D520FFF7BEF88020E5
:10386000FFF7BBF8A820FFF7B8F83F20FFF7B5F83F
:10387000D320FFF7B2F80020FFF7AFF84020FFF7A2
:10388000ACF8AD20FFF7A9F88B20FFF7A6F832209F
:10389000FFF7A3F8A020FFF7A0F8C020FFF79DF8DE
:1038A000DA20FFF79AF81220FFF797F88120FFF748
:1038B00094F84020FFF791F8D920FFF78EF81F20E9
:1038C000FFF78BF8DB20FFF788F84020FFF785F83B
:1038D000A420FFF782F8A620FFF77FF8FCF760FE30
:1038E000BDE81040AF20FFF778B8000070B52C4D50
:1038F0002878012852D12B4C4CF2503060806878E7
:103900000A2803D00B2801D0FFF79AFD0026267065
:10391000287801281AD12E7069780A290CD00B2931
:1039200021D02078802803D21F4A1154401C2070D7
:10393000C0B2FFF7B9FD09E0217889B11BA0FFF7FC
:10394000BDF82078411E2170FFF7D0FD642000F003
:103950008FFA6088401E0004000C6080D8D118E007
:10396000FFF75EFB13E0217889B1062903D2FFF748
:1039700023FB642007E00C4800F0C4FA00280ED0B6
:10398000FFF71AFB0E4800F073FA668001E06088CA
:1039900008B9FCF7FDFD0BA0FFF790F8012070BD02
:1039A000280000203C000020840500200D0A206E25
:1039B000756D6265725F6375723A25640D0A000069
:1039C000E09304000D0A206D61696E206C6F6F70CA
:1039D0000D0A0000FDF7E4FAFEF7A4FDFEF774FB04
:1039E000FEF75CFCFEF7EEFBFEF726FC4FF6FF70E1
:1039F00000F064F9FEF762FDFFF72AFF00F07AF8A5
:103A0000002000F08BF92020FFF7DCF9FCF7E2FC46
:103A1000FFF772FEFFF76AFF0028FBD100F002F803
:103A2000F8E7000070B5FFF749FB154C4CF2503039
:103A3000144D608000262878012809D12E706878FE
:103A400001280FD0022810D0032810D004280ED04F
:103A5000642000F00DFA6088401E0004000C6080B5
:103A6000E9D107E000F01EFA01E000F0F1FA608809
:103A7000002803D1BDE87040FCF78ABD70BD00008E
:103A80003C00002028000020F0B50B30154D20F040
:103A900007010024144A0FE003688B420BD38B42CA
:103AA00005D95E1A43184768C3E9006700E0436818
:103AB000136002C004E0021D10680028ECD120460B
:103AC000002802D1286808B10020F0BD064A074846
:103AD0001060074A121A22F00702C0E900240120F0
:103AE0002860D7E758000020540000200C06002072
:103AF000081E00204FF480610148FCF79EBB0000C7
:103B00008401002070B50E4E002400BF04F1B00007
:103B1000C0B2FEF762FF1020FEF75FFF0020FEF745
:103B20005CFF002506EBC500005DFEF767FF6D1C1E
:103B3000EDB2802DF6D3641CE4B2082CE6D370BD40
:103B4000840100202DE9F04106460446104F1AE09A
:103B5000314610A0FEF7B2FF04F1B000C0B2FEF78C
:103B60003CFF1020FEF739FF0020FEF736FF00254E
:103B700007EBC500005DFEF741FF6D1CEDB2802D27
:103B8000F6D3641CE4B2082CE2D3BDE8F081000057
:103B900084010020706167653A25640A0000000016
:103BA0002DE9F04FC1B080216846FCF746FB80212B
:103BB00020A8FCF742FB4FF00009CA46FFF740FC83
:103BC000354E364D4CF250380027EB460024A5F810
:103BD00000803078012824D1377070780A2816D0F8
:103BE0000B282BD0802C1CD20BF804002146FFF7A9
:103BF000F9FAB9F1010F07D120A91BF80400095DFA
:103C0000884201D04FF0010A641CE4B209E094B18B
:103C1000214623A0FEF752FF2046641EE4B2FFF7C0
:103C2000F9FA642000F024F92888401E0004000CF2
:103C30002880CED12AE0FFF7F3F924E0062C11D337
:103C4000BAF1010F0ED009F1010000F0FF09B9F13E
:103C5000020F0ED2FFF70EFC2246694620A8FCF7A1
:103C6000F7FAB3E7FFF7A8F9642000F001F92F8015
:103C70000CE02146684600F061FA10B1FFF782F9C6
:103C800001E0FFF7B3F92888002801D1FCF780FC98
:103C900041B000F00FB800002800002040000020D4
:103CA0000D0A206E756D6265725F6375723A2564E8
:103CB0000D0A000030BCBDE8C08F00002DE9F041C6
:103CC000C043144E85B2002204213046FCF718FF91
:103CD000114F0024002202213046FCF711FFE807B3
:103CE00001D0012200E0002240213846FCF708FF05
:103CF0006D08012202213046FCF702FF00BF641C60
:103D0000A4B2102CE6D33046BDE8F04101220421D4
:103D1000FCF7F6BE00040048000800482DE9F04713
:103D20001D4F05464FF40076002231463846FCF719
:103D3000E7FE41F2883000F09BF800244FF49668CB
:103D40004FF4C879E8074FF00102314638460BD0EE
:103D5000FCF7D6FE404600F08BF80022314638468C
:103D6000FCF7CEFE48460AE0FCF7CAFE484600F0E3
:103D70007FF8002231463846FCF7C2FE404600F08C
:103D800077F86D08641C082CDCDB31463846BDE84A
:103D9000F0470122FCF7B4BE000400482DE9F043CF
:103DA00085B017464FF0000904460D4600EB0708A2
:103DB000CDF80090FCF7B2FD18494FF400400861BF
:103DC0002046FCF7ABFC06464046FCF7A7FC811BEF
:103DD000491CCDE903610120CDE90190694601A8A4
:103DE000FCF7C8FC18B10EA00099FEF767FE00268C
:103DF0000BE000BFF5E8022321460020FCF738FD68
:103E000050B10EA0FEF75AFE0836BE42F2D3FCF7C0
:103E100025FD05B0BDE8F0830834F5E70020024039
:103E20000A0D666C61736820657261736520666156
:103E3000696C65642025640A0D0000000A0D666C3B
:103E40006173682070726F6772616D206661696C62
:103E500065640A0D0000000010B5002305E000BFF6
:103E600010F8014B01F8014B5B1C9342F8D310BDD5
:103E700070B54FF0E024002265690949A36909780B
:103E80004843A1699942FCD002D2A3EB010302E0AE
:103E9000A5EB010633441A440B468242F1D370BDB0
:103EA000380000202DE9F041144C154D4CF25037EC
:103EB000002600BFFFF7AEFB2F802078012807D136
:103EC0002670607801280DD002280ED003280CD06F
:103ED0006420FFF7CDFF2888401E0004000C2880D6
:103EE000EBD105E0FFF75CFEE4E72888002803D16A
:103EF000BDE8F041FCF74CBBBDE8F0812800002094
:103F0000400000202DE9F0430E4636A187B0074659
:103F1000D1E900010024CDE9040106E03A5D214623
:103F200032A0FEF7CBFD641CE4B2B442F6D3082203
:103F300034493548FFF790FF324CE08800906388A1
:103F4000A288218831A0FEF7B9FD2088801EB0F537
:103F5000957F3ED2A088002831D0A4F104084FF408
:103F600061623148D8F80010FFF776FF0025A146BE
:103F70002AE000BFD8F8000005EBC50400EB840080
:103F8000817990F809C0037AC2798DE80E104379DF
:103F90000279294625A0FEF791FDD8F800100020EF
:103FA00001EB840106E00B183A5C1B799A4203D1BD
:103FB000401CC0B2B042F6D3B04203D1002007B0DB
:103FC000BDE8F0836D1CEDB2B9F80400A842D1D869
:103FD00006E0062204A93846FCF746F90028EED090
:103FE0000120ECE708080808080800000D0A207006
:103FF000617373776F72645B25645D3A25640D0AA3
:104000000000000048000020002003080D0A205B8B
:10401000307825782C307825782C307825782C301D
:104020007825785D0D0A000000C001080D0A2064A3
:104030006174615B25645D3A2564202564202564F4
:10404000202564202564202564200D0A000000003E
:1040500070B5FFF76DFA134C4CF25030124D2080C2
:1040600000262878012809D12E706878012805D00B
:1040700002280DD003280DD00B280BD06420FFF7A9
:10408000F7FE2088401E0004000C2080E9D104E0E7
:10409000FEF7A6FE2088002803D1BDE87040FCF79B
:1040A00077BA70BD40000020280000202DE9F041C3
:1040B0001B4D1C4F0646042238462968FFF7CCFEEC
:1040C0000422291D1848FFF7C7FE281D018821B3C7
:1040D000808810B300241EE0B4421AD1314613A0E8
:1040E000FEF7ECFC286804EBC40400EB8400FF221C
:1040F0002021001DFCF79AF82968012001EB8402B9
:10410000D0704FF461623846FFF748FE0020BDE8EA
:10411000F081641CE4B2A042DED80120F7E7000081
:104120004400002000C00108002003080D0A206997
:104130006E6465783A25640D0A0000002DE9F05F91
:104140000E460746002406E03A5D214645A0FEF7EC
:10415000B5FC641CE4B2B442F6D30822474948488F
:10416000FFF77AFE454DDFF81C812C1F28884FF0A1
:10417000010A401EB0F5957F5AD8A888002855D06E
:104180004FF46162A146C34640462168FFF764FED2
:104190000024AA88D9F8001019E004EBC403002019
:1041A00001EB83030AE000BF03EB000817F800C02F
:1041B00098F80480C44503D1401CC0B2B042F3D388
:1041C000B04202D1012000F07DB8641CE4B2A242EA
:1041D000E3D8A846A24229D121462BA0FEF76EFCC7
:1041E000D9F8001004EBC40201EB82004D46847044
:1041F00001F8224080F801A032463946001DFCF744
:1042000027F84FF4616258462968FFF7C7FDB8F8F0
:104210000010491CA8F80010B8F80410491CA8F8B0
:104220000410082215491648FFF7B8FD0020CAE718
:104230001CA0FEF743FC206800213246817000F884
:10424000011B394600F803ABFCF702F82422404674
:104250002168FFF7A3FD2888401C2880A888401CFF
:10426000A880DEE70D0A2070617373776F72645B5C
:1042700025645D3A25640D0A000000004800002016
:104280000020030800C001080D0A2074686520257D
:1042900064207573657220697320636F6D696E6742
:1042A000200D0A000D0A2074686520666972737417
:1042B000207573657220697320636F6D696E672066
:1042C0000D0A000030BCBDE8C09F000000000000E7
:1042D000000000000102030406070809A08601008F
:1042E000400D0300801A060000350C0040420F000C
:1042F00080841E0000093D0000127A000024F400B2
:1043000000366E010048E801006CDC02000000008D
:104310000102030400080888482818FF1828488864
:1043200008080000824231000010600710600000A1
:1043300011E202002424A4FEA3220022CC0000FFEC
:1043400000000000080601FF00010404040404FF4B
:104350000202020090523410FF10345280708F0815
:1043600008F80800829A566322528E008040330C6F
:10437000334080000484E45C44C40002F282828200
:10438000FE80800002017F10103F000808080848E6
:1043900088403F0000000000000000000001010113
:1043A0000101010100000000000000000001010106
:1043B00001010101000000000000000000010101F6
:1043C0000101010104244484649C40300FC80808A2
:1043D0002818000010080601824C20180601061853
:1043E00020408000404042CC0000FC040200FC045D
:1043F00004FC00000040201F20404F4442407F4208
:1044000044434000201008FC2310886704F404246F
:10441000548C000040300077808188B2848380E033
:1044200000116000000000FE00000000000000001D
:104430000000000000000033000000000000000049
:104440000000000000E010080810E000000F10203D
:1044500020100F00001010F8000000000020203F86
:104460002020000000700808088870000030282410
:1044700022213000003008888848300000182020B1
:1044800020110E000000C02010F8000000070424D6
:10449000243F240000F8088888080800001921201B
:1044A00020110E0000E0108888180000000F112075
:1044B00020110E0000380808C83808000000003F2E
:1044C000000000000070880808887000001C22218D
:1044D00021221C0000E010080810E000000031223A
:1044E00022110F000000000000000000000000008A
:1044F000000000004042CC0000445454547F545407
:104500005444400000007F201000FF1515155595FC
:104510007F00000088681FC80810C85452D1129448
:1045200008D01000091909FF0500FF1292FF005F73
:10453000807F0000000000000001E21CE00000009D
:1045400000000000804020100C03000000030C302D
:1045500040808000108C4404E40495A64424148414
:1045600044940C0002027A414143427E424242435B
:10457000F80000000484E45C44C40002F2828282F9
:10458000FE80800002017F10103F000808080848E4
:1045900088403F004042CC0000445454547F54545F
:1045A0005444400000007F201000FF15151555955C
:1045B0007F0000000202F292929292FE92929292F8
:1045C000F20202000404FF04040404070404448407
:1045D0007F04040000020C80608040300FC808088F
:1045E0002818000002027E018040201806010618EB
:1045F0002040800088681FC80810C85452D1129407
:1046000008D01000091909FF0500FF1292FF005F92
:10461000807F0000000000000001E21CE0000000BC
:1046200000000000804020100C03000000030C304C
:1046300040808000108C4404E40495A64424148433
:1046400044940C0002027A414143427E424242437A
:10465000F80000000484E45C44C40002F282828218
:10466000FE80800002017F10103F00080808084803
:1046700088403F00001010F8000000000020203F9C
:10468000202000000000000000000000003030008A
:10469000000000001060028C00109252321E325254
:1046A0009212100004047E0100211840807F08301F
:1046B00004093100101010FF1010F00000F8080875
:1046C00008F800008040300F40807F00007F2020ED
:1046D000207F00000000FE22222222FE222222222F
:1046E000FE00000080601F020202027F020242827E
:1046F0007F000000000000F80808090E08080808FC
:10470000F80000000080601F0101010101010101AA
:10471000030000000070080808887000003028249A
:1047200022213000000000000000000000303000B6
:104730000000000080FE8282FE80FE8282FE8000F9
:10474000F800FF00403F0020BF403F40807F000056
:104750004F807F0000FE225A8620102824E3242860
:104760001020200000FF040827110D41817F010562
:10477000093100000000FE22222222FE22222222F3
:10478000FE00000080601F020202027F02024282DD
:104790007F000000000000F80808090E080808085B
:1047A000F80000000080601F01010101010101010A
:1047B00003000000003008888848300000182020DE
:1047C00020110E000000000000000000003030004A
:1047D00000000000000022322AA6A26221110981F5
:1047E00001000000004222130B42827E02020A12E4
:1047F000234600002030AC63300088C8A8998E881A
:10480000A8C8880022672212128040300F00003FA3
:1048100040407100404042CC0040A09E8282829E77
:10482000A02020000000003F908840432C10284624
:1048300041808000001715D55557557D555755D5E2
:10484000151700004040407F555555555555557F2B
:10485000404040000000C02010F800000007042481
:10486000243F240000000000000000000030300061
:1048700000000000000022322AA6A2622111098154
:1048800001000000004222130B42827E02020A1243
:10489000234600002030AC63300088C8A8998E8879
:1048A000A8C8880022672212128040300F00003F03
:1048B00040407100008060F807000424242526246D
:1048C00024240400010000FF000000F9494949497F
:1048D00049F90000000000FC54545655545454FC4F
:1048E0000000000040300003394141455941417307
:1048F00000083000001010F8000000000020203FE9
:104900002020000000000000000000000030300007
:1049100000000000886423A2A6AAA2BAA4A3A2262B
:104920002AA26200000000FF4A4A4A4A4A4A4BF85B
:1049300000000000048484FC848400FE9292FE92B5
:1049400092FE00002060201F1010404444447F4429
:10495000444440000000C05E525252525252525ED5
:10496000C000000080808F404020100E10102020DA
:104970004F8000000070080808887000003028246C
:104980002221300000000000000000000030300054
:104990000000000040445464457E4444447E456425
:1049A00054444000000000FF49494949494949FF32
:1049B000000000004042CC0000E2222A2AF22A260F
:1049C00022E0000080403F4080FF898989BF89A99B
:1049D000C9BF80000000FE22222222FE22222222C3
:1049E000FE00000080601F020202027F020242827B
:1049F0007F000000000000F80808090E08080808F9
:104A0000F80000000080601F0101010101010101A7
:104A1000030000000030088888483000001820207B
:104A200020110E00000000000000000000303000E7
:104A300000000000008060F8070808F8898E888868
:104A400088080800010000FF8040300F00408040CF
:104A50003F00000080888888FF8888801010FF1041
:104A600010F00000103814131018B04020184780C0
:104A7000403F0000101010FF1010404848487F4889
:104A8000C84840000444827F010002020A124282A8
:104A90007F0202000000FE22222222FE2222222287
:104AA000FE00000080601F020202027F02024282BA
:104AB0007F000000000000F80808090E0808080838
:104AC000F80000000080601F0101010101010101E7
:104AD00003000000001010F8000000000020203F3C
:104AE0002020000000000000000000000030300026
:104AF000000000001060028C00109252321E3252F0
:104B00009212100004047E0100211840807F0830BA
:104B100004093100101010FF1010F00000F8080810
:104B200008F800008040300F40807F00007F202088
:104B3000207F0000101010FF1090003F48484444B0
:104B4000444270000444827F010000FF4949494902
:104B500049FF00002030AC63100808F8090E08F87F
:104B600008080000226722129280402116081621B0
:104B700040808000007008080888700000302824F9
:104B80002221300000000000000000000030300052
:104B9000000000001060028C00109252321E32524F
:104BA0009212100004047E0100211840807F08301A
:104BB00004093100101010FF1010F00000F8080870
:104BC00008F800008040300F40807F00007F2020E8
:104BD000207F0000108C4404E40495A6442414842F
:104BE00044940C0002027A414143427E42424243D5
:104BF000F80000000484E45C44C40002F282828273
:104C0000FE80800002017F10103F0008080808485D
:104C100088403F0000300888884830000018202075
:104C200020110E00000000000000000000303000E5
:104C3000000000001060028C00109252321E3252AE
:104C40009212100004047E0100211840807F083079
:104C500004093100101010FF1010F00000F80808CF
:104C600008F800008040300F40807F00007F202047
:104C7000207F00000000FC04D4545454D4047F84EA
:104C8000C53604008866010063828292AB8482C1CB
:104C90000224CF000000FC0444840425C60404045C
:104CA00004E4040040300F4040414E404063504C0B
:104CB00043404000404040404040FF44444444445E
:104CC00044404000000000000000FF000002040813
:104CD00010000000001010F8000000000020203F2D
:104CE0002020000000000000000000000030300024
:104CF0000000000080FE8282FE80FE8282FE800034
:104D0000F800FF00403F0020BF403F40807F000090
:104D10004F807F0000FE225A8620102824E324289A
:104D20001020200000FF040827110D41817F01059C
:104D300009310000101010FF1090003F4848444413
:104D4000444270000444827F010000FF4949494900
:104D500049FF00002030AC63100808F8090E08F87D
:104D600008080000226722129280402116081621AE
:104D700040808000007008080888700000302824F7
:104D80002221300000000000000000000030300050
:104D90000000000080FE8282FE80FE8282FE800093
:104DA000F800FF00403F0020BF403F40807F0000F0
:104DB0004F807F0000FE225A8620102824E32428FA
:104DC0001020200000FF040827110D41817F0105FC
:104DD00009310000108C4404E40495A64424148492
:104DE00044940C0002027A414143427E42424243D3
:104DF000F80000000484E45C44C40002F282828271
:104E0000FE80800002017F10103F0008080808485B
:104E100088403F0000300888884830000018202073
:104E200020110E00000000000000000000303000E3
:104E30000000000080FE8282FE80FE8282FE8000F2
:104E4000F800FF00403F0020BF403F40807F00004F
:104E50004F807F0000FE225A8620102824E3242859
:104E60001020200000FF040827110D41817F01055B
:104E7000093100000000FC04D4545454D4047F844D
:104E8000C53604008866010063828292AB8482C1C9
:104E90000224CF000000FC0444840425C60404045A
:104EA00004E4040040300F4040414E404063504C09
:104EB00043404000404040404040FF44444444445C
:104EC00044404000000000000000FF000002040811
:104ED00010000000001010F8000000000020203F2B
:104EE0002020000000000000000000000030300022
:104EF0000000000040404444546445464464544427
:104F000044404000000000FF49494949494949FFE0
:104F100000000000202020BEAAAAAAAAAAAAAABE0F
:104F200020202000008080AFAAAAAAFFAAAAAAAFC8
:104F300080800000404042CC0040A09E8282829E41
:104F4000A02020000000003F908840432C102846FD
:104F500041808000001715D55557557D555755D5BB
:104F6000151700004040407F555555555555557F04
:104F70004040400000700808088870000030282475
:104F8000222130000000000000000000003030004E
:104F90000000000002FE9292FE0200101116F014B2
:104FA00013100000101F0808FF048141310D030D8C
:104FB0003141810000FE022242827202224282724C
:104FC00002FE000000FF100806010E100806014E48
:104FD000807F0000404042CC0040A09E8282829EA2
:104FE000A02020000000003F908840432C1028465D
:104FF00041808000001715D55557557D555755D51B
:10500000151700004040407F555555555555557F63
:1050100040404000003008888848300000182020B8
:1050200020110E00000000000000000000303000E1
:1050300000000000000000FE82828282828282FEE6
:1050400000000000000000FF40404040404040FFA2
:10505000000000000004FF242424FF0400FE22229C
:1050600022FE000088482F090919AF48300F02427C
:10507000827F0000404042CC0040A09E8282829EFF
:10508000A02020000000003F908840432C102846BC
:1050900041808000001715D55557557D555755D57A
:1050A000151700004040407F555555555555557FC3
:1050B000404040000000C02010F800000007042419
:1050C000243F2400000000000000000000303000F9
:1050D0000000000000E000FF10200888780F08E8BA
:1050E00008088800010000FF00100C834423180703
:1050F00018628100201008F754545454545454F446
:1051000004040000809090494D57252525554D45B4
:105110008080800000007C40404040FF4040404094
:10512000FC000000007C40404040407F4040404048
:1051300040FC00000000FE02020202020202020223
:105140000202020080601F0000000000000000005A
:1051500000000000404042CC0040A09E8282829E1F
:10516000A02020000000003F908840432C102846DB
:1051700041808000001715D55557557D555755D599
:10518000151700004040407F555555555555557FE2
:1051900040404000001010F8000000000020203FB8
:1051A000202000000000000000000000003030005F
:1051B0000000000004040404F49495969494F4040C
:1051C0000404040000FE02027A4A4A4A4A4A7A0269
:1051D00082FE0000404044445464454644645444C4
:1051E00044404000000000FF49494949494949FFFE
:1051F00000000000202020BEAAAAAAAAAAAAAABE2D
:1052000020202000008080AFAAAAAAFFAAAAAAAFE5
:105210008080000000700808088870000030282492
:1052200022213000000000000000000000303000AB
:10523000000000000000F010101010FF10101010FF
:10524000F000000000000F04040404FF0404040440
:105250000F000000404044445464454644645444B4
:1052600044404000000000FF49494949494949FF7D
:1052700000000000202020BEAAAAAAAAAAAAAABEAC
:1052800020202000008080AFAAAAAAFFAAAAAAAF65
:1052900080800000003008888848300000182020F6
:1052A00020110E000000000000000000003030005F
:1052B00000000000008060F80700FC848484FE8207
:1052C00083828000010000FF0000FF402000418E2B
:1052D0003040F800404044445464454644645444DB
:1052E00044404000000000FF49494949494949FFFD
:1052F00000000000202020BEAAAAAAAAAAAAAABE2C
:1053000020202000008080AFAAAAAAFFAAAAAAAFE4
:10531000808000000000C02010F800000007042476
:10532000243F240000000000000000000030300096
:10533000000000004454547F545444202827E4348F
:105340002CE0000000FF1555957F000949897F0971
:10535000091F010040404444546445464464544499
:1053600044404000000000FF49494949494949FF7C
:1053700000000000404080F0804040000202010F29
:105380000102020000000000000000000000000018
:10539000000000000000000000000000000000000D
:1053A000000000F8F81000000000000000000000FD
:1053B0000000000000000018080808080808080895
:1053C00088E878FFFF18E8080808080808080E0EA3
:1053D000080000000000000000000000C060381E4F
:1053E000070100FFFF0000030E3870E0C08080005E
:1053F0000000000000402010080C0603010000001F
:105400000000003F3F000000000000010303070F01
:10541000070202000000000000E0FC000000001C89
:10542000F0C00000000438F0C00000020C38F0E0CA
:1054300080000000000000060F07010000000000CF
:105440000307010000000007070000000000030F31
:105450000300000000000080808080C0C0E0607019
:10546000383820000000000000000000FCF80800B0
:10547000000000000000000000000000FFFF00002E
:105480000080000000020E7C78000000FFFF00009A
:105490000000000000000202020202E2FFFF42825E
:1054A000030303020030E0C000000000FFFF000023
:1054B0000000000000000000C0781F03FFFF000193
:1054C000073E00808080814740406020FFFF101829
:1054D0001E0800000008040300000000FFFF000099
:1054E000000101010000000000000000FFFF0000BB
:1054F0000000000000000000000000003F1F00004E
:105500000000000000000000000000003F1F00003D
:10551000000000000000000030C0800000FCFC081B
:105520000000C0F020000080FC78100000000000A7
:10553000000000000000206060616F62E0FFFF601B
:10554000686661706040F0FF6360606060E0E0701A
:1055500078604000000000804030180E03FFFF0319
:10556000060E3C80701E037F8000000080FF1F003D
:105570000000000000001130303030F0FC3F3630C9
:1055800030F0F831000000003FE000E0FF0F0000C5
:1055900000000000000000000000060F88C87838F6
:1055A0003E77E1C0000000C0E07F1F7FF1C08000B7
:1055B00000000000000010080C04060301000000B9
:1055C000002010090C060301000000000003070F73
:1055D0000E060400000040404040C0C04040407003
:1055E00070402060602020202020202020F0F0202B
:1055F000000000000000000000F07F070000000035
:1056000000000000F8FE040000000000C0FF0300DE
:1056100000000000000000E0FEFF04040404FE0C93
:1056200000000080FF0F000000000000FF3F0000AE
:10563000C080000000080701FFFF00000000FF001D
:105640000000000103010101010101C1C10101C10B
:10565000FF01000000000000FFFF080808087F00AD
:10566000000101010101010101010101010180FFAE
:105670001F00000000000000030300000000000005
:105680000000000000000000000101030F0E0F03E6
:105690000000000002FA8282FE804020504C434C01
:1056A0005020400008184884443F404458414E6010
:1056B00058474000404042CC000004C40404FC04AD
:1056C000040404000000003F1048407F40407F4138
:1056D000414140000040301E101010FF101010100B
:1056E0001000000081814121110D0301030D1121E2
:1056F0004181810000FE02FA02FE4020D8171010FE
:10570000F01010008047300F1067804021160816F7
:1057100021408000108C4404E40495A644241484A1
:1057200044940C0002027A414143427E4242424389
:10573000F80000000484E45C44C40002F282828227
:10574000FE80800002017F10103F00080808084812
:1057500088403F008080829292929292929292FE32
:1057600080808000404022241048807F0408182454
:1057700022404000000000000001E21CE0000000A8
:1057800000000000804020100C03000000030C30DB
:10579000408080000000F8888888880808FF080991
:1057A0000AC8080080601F0010201F8040211618C2
:1057B0002641F800080808F80808081010FF101023
:1057C00010F000001030101F088848300E01408093
:1057D000403F0000108C4404E40495A64424148443
:1057E00044940C0002027A414143427E42424243C9
:1057F000F80000000484E45C44C40002F282828267
:10580000FE80800002017F10103F00080808084851
:1058100088403F000000E28282828282828282FE91
:105820000000000000003F404040404040404040F9
:1058300040780000040484E41C0724242424A46485
:1058400024040400020100FF00020242827F0202DF
:1058500002020200080888C8380C0B0808E808088B
:1058600008080800020100FF40414141417F4141D9
:105870004141400080FE8282FE80FE8282FE8000E6
:10588000F800FF00403F0020BF403F40807F000005
:105890004F807F0000FE225A8620102824E324280F
:1058A0001020200000FF040827110D41817F010511
:1058B000093100000000F8888888880808FF080976
:1058C0000AC8080080601F0010201F8040211618A1
:1058D0002641F800080808F80808081010FF101002
:1058E00010F000001030101F088848300E01408072
:1058F000403F000080FE8282FE80FE8282FE8000A9
:10590000F800FF00403F0020BF403F40807F000084
:105910004F807F0000FE225A8620102824E324288E
:105920001020200000FF040827110D41817F010590
:10593000093100000040301E101010FF1010101030
:105940001000000081814121110D0301030D11217F
:105950004181810000FE02FA02FE4020D81710109B
:10596000F01010008047300F106780402116081695
:1059700021408000808080BEA2A2A2A2A2A2A2BEDC
:105980008080800000000006050404044484443C38
:1059900000000000108C4404E40495A64424148400
:1059A00044940C0002027A414143427E4242424307
:1059B000F80000000484E45C44C40002F2828282A5
:1059C000FE80800002017F10103F00080808084890
:1059D00088403F00F4590008000000205C000000EF
:1059E000DC2A0008505A00085C000020AC210000AE
:1059F000EC2A000800000000000000000000000089
:105A00000000000000000000010000000000000095
:105A1000000000000000000000093D000000080A2E
:105A200001040708050200000B090603000000003E
:105A30000000000000000000000000000000000066
:105A40000000000000000000000000000000000056
:040000050800018D61
:00000001FF
